:020000040800F2
:10000000880500200101000833280008212300088A
:1000100031280008ED090008612C000800000000EC
:100020000000000000000000000000005728000849
:10003000EF090008000000005528000859280008B2
:100040001B0100081B0100081B0100081B01000820
:100050001B0100081B0100081B0100081B01000810
:100060001B0100081B0100081B0100081B01000800
:100070001B0100081B0100081B0100081B010008F0
:100080001B0100081B010008250900081B010008CE
:100090001B0100081B0100081B0100081B010008D0
:1000A0001B0100081B0100081B0100081B010008C0
:1000B0001B0100081B0100081B0100081B010008B0
:1000C0001B0100081B0100081B0100081B010008A0
:1000D0001B0100081B0100081B0100081B01000890
:1000E0001B0100081B0100081B010008DFF80CD0F1
:1000F00000F006FC00480047513000088805002049
:100100000648804706480047FEE7FEE7FEE7FEE7B1
:10011000FEE7FEE7FEE7FEE7FEE7FEE7E128000870
:10012000ED000008202A04DB203A21FA02F0002129
:10013000704721FA02F3D040C2F1200291400843F7
:1001400019467047F0B480EA0102D40F4200B2EBC6
:10015000410F02D20246084611464A0042D0C30D62
:10016000DDB2C1F3C752AD1A202D35DAC1F3160145
:1001700041F4000204B15242C5F1200602FA06F130
:100180002A411044B3EBD05F23D0C4B1012DA0EBC2
:10019000C35009DCF0BC4FF0004202EAC352DBB2AC
:1001A00000F5000000F0B8BA400000F1807000EBEC
:1001B000C350A0F1807040EAD170490009E04908BD
:1001C00041EAC071A0EBC35000F50000400800EB0D
:1001D000C350F0BC00F097BA6142012202EB41012A
:1001E000001BF6E7F0BC704781F00041AAE780F001
:1001F0000040A7E780EA010210B502F0004340008A
:1002000022D04A001FD0010E01EB1261C0F356004C
:10021000C2F3560240F4000042F40002A0FB0220A8
:1002200000047F39140400D0401C50EA124001D46D
:100230004000491EC2B20C0604EBD010401C40081E
:10024000802A02D003E0002010BD20F00100002928
:1002500000DA0020184310BD30B480EA010202F039
:10026000004530F0004221F0004013D090B1C30DA2
:10027000D40DC2F31601C0F31600E41A41F40001D4
:1002800040F400027D34914201D3641C00E0490037
:10029000002C02DA30BC002070474FF4000000232D
:1002A000914201D3891A034340084FEA4101F7D133
:1002B00051B1914202D14FF0004105E002D24FF01E
:1002C000010101E06FF0010103EBC450284430BC90
:1002D00000F019BA2DE9FE4F804681EA0300C00FF5
:1002E0000C46009021F0004123F00045B8EB0200DD
:1002F000A94105D24046214690461C460B4602467F
:1003000023F00040104347D0270DC7F30A00C3F382
:100310000A510290401A019040286BDAC3F313008F
:1003200040F4801B0098924620B10023D2EB030AD0
:1003300063EB0B0B01985946C0F14002504600F0A8
:10034000C1F906460D4650465946019A00F0C9F9D2
:1003500010EB08006141002487EA115284EAE77338
:100360001A4340D0009A62B3019A012A4FEA075219
:1003700015DC001B61EB02014FF0004202EA07525C
:10038000CDE90042001C41F5801132462B4600F0B9
:1003900000FA03B0BDE8F08F40462146F9E7001BA4
:1003A00061EB0201001C41F5801300185B4120182D
:1003B000A2F5001747EB030140EAD570B6196D416D
:1003C00011E06D084FEA360645EAC0754FEA07525C
:1003D000001B61EB0201001C41F5801149084FEA46
:1003E00030000019514132462B4603B0BDE8F04FB2
:1003F00000F0C0B90098012240000023D0EB0202B7
:1004000063EBE073009821464FEAE074B8EB00001C
:1004100061EB0401E9E783F000435BE781F0004111
:1004200058E72DE9FE4F81EA030404F0004421F06F
:10043000004100944FF0000B23F0004350EA010408
:100440005ED052EA03045BD0C3F30A54C1F30A55E9
:100450002C44A4F2F3340194A0FB0254C1F3130121
:1004600041F48011C3F3130343F4801301FB0244EE
:1004700000FB034E840A970A44EA815447EA8357F3
:10048000A4FB076802958D0A05FB07854FEA932CAC
:1004900004FB0C542705029D4FEA065847EA16371D
:1004A000B5EB08056EEB070C870E920E47EA811735
:1004B00042EA8312A7FB0201B6EB0B0164EB0004D6
:1004C0002B0D43EA0C335E1844EB1C50DA465146C0
:1004D000E7FB0201C5F313044FEA0B3343EA14535D
:1004E0004FEA0432019C43EA0603A4F10C0402948F
:1004F000009CCDE900B400F04CF903B0BDE8F08FEA
:1005000000200146F9E72DE9F04D81EA030404F0EB
:10051000004B21F0004514464FF0000A23F0004143
:1005200050EA050220D054EA01021DD0C5F30A5753
:100530000246C5F31303C1F31300C1F30A5640F496
:10054000801543F48013A7EB0608101BD64608F26B
:10055000FD3873EB050002D308F1010801E09218A1
:100560005B41B8F1000F03DA00200146BDE8F08DD1
:1005700000204FF48011064684460EE0171B73EBF3
:10058000050705D3121B63EB050306434CEA010C78
:1005900049084FEA300092185B4150EA0107EDD15B
:1005A00052EA030012D082EA040083EA05010843FC
:1005B00005D0101BAB4106D20122002306E0002229
:1005C0004FF0004302E06FF0010253101AEB0600F7
:1005D0004CEB085110EB0A0041EB0B01BDE8F04D6C
:1005E00000F0C8B870B521F0004303430CD0C1F34C
:1005F0000A550024D5EB040564EB0403D617AD1AA5
:10060000B34102DB0020014670BD201841EB0251CE
:1006100070BD96230022114600F07EB80EB5C10FC2
:1006200080EAE0700844CA07002140F233438DE8B5
:100630000E000A460B4600F0ACF803B000BD20F0F7
:100640000040C10DC0F3160040F400007F2901DA1C
:1006500000207047962903DCC1F19601C84070471D
:1006600096398840704700F0004230F000400AD0D0
:10067000C10D01F56071C0F3160042EA0151C208D4
:1006800040071143704700200146704701F00043C6
:1006900030B421F0004150EA010206D00A0DA2F563
:1006A0006072C1F31301002A02DC30BC00207047E5
:1006B000440F44EAC104C100E01830BC00EBC25052
:1006C00000F021B8202A04DB203A00FA02F10020D1
:1006D00070479140C2F1200320FA03F31943904080
:1006E0007047202A06DBCB17203A41FA02F043EA92
:1006F000E07306E041FA02F3D040C2F120029140DB
:100700000843194670470029A8BF7047401C49009C
:1007100008BF20F00100704710B4B0FA80FC00FA66
:100720000CF050EA010404BF10BC704749B1CCF191
:10073000200421FA04F411FA0CF118BF012121431D
:100740000843A3EB0C01CB1D4FEA00614FEA1020D8
:1007500042BF002010BC704700EBC350104400297A
:10076000A4BF10BC7047401C490008BF20F0010026
:1007700010BC704710B5141E73F1000408DA401C59
:1007800041F1000192185B411A4301D120F00100B0
:1007900010BD2DE9F04D92469B4611B1B1FA81F2A0
:1007A00002E0B0FA80F220329046FFF78BFF044659
:1007B0000F4640EA0A0041EA0B0153465A460843F5
:1007C00013D0114653EA010019D0C8F14002504637
:1007D000FFF7A8FC05460E46504659464246FFF72D
:1007E00071FF084305D0012004E020463946BDE8EA
:1007F000F08D0020054346EAE0762C4337430A9803
:100800006305E40AA0EB08000022FD0A44EA47540D
:100810000A3002D500200146E9E7010510196941B7
:10082000DDE9084500196941BDE8F04DA2E72DE971
:10083000F04D00231A461B1A8A4103DB00200146B3
:10084000BDE8F08DC1F30A52C1F3130141F48015E4
:100850004FF0000BD10702D100186D41521E002746
:10086000044640F2FF11384601EB620A3E468046DC
:10087000024600204FF48011FFF754FCC219714169
:10088000BB1846EB0100B4EB030C75EB000C04D372
:10089000E41A65EB000517460E46241908F101001D
:1008A0006D4180463428E3DDF91946EB0600091B4B
:1008B000A84103D24FF0FF32134601E00022134655
:1008C0001BEB070046EB0A51BDE8F04DFFF752BFA6
:1008D00030B5041E71F1000404DB4FF000444042C7
:1008E00064EB0101141E73F1000405DB1C464FF09C
:1008F0000043524263EB0403994208BF904230BD6B
:10090000064C074D06E0E06840F0010394E807005C
:1009100098471034AC42F6D3FFF7ECFBF83C0008E4
:10092000183D0008014800F00CBA00005C000020EF
:1009300070B5044600688168C943C9071CD1816845
:1009400021F00101816000F075FC05460FE000BF59
:1009500000F070FC401B022809D9A06A40F010008A
:10096000A062E06A40F00100E062012070BD2068F2
:100970008068C043C007EBD0002070BDF8B50026EA
:100980000446009600688168C943C90728D0816879
:1009900041F001018160134813490068B0FBF1F098
:1009A00000E0401E00900028FBD100F043FC05460B
:1009B00011E000BF00F03EFC401B02280BD9A06AEA
:1009C00040F01000A062E06A40F00100E06284F8AC
:1009D00024600120F8BD20688068C043C007E9D1C9
:1009E0000020F8BD5400002040420F00FEE7704791
:1009F0002DE9F84F804D82463B2028700A270123BD
:100A00002A46D0217D48009700F072FE64200090B5
:100A100006236A1CD021794800F062FDB5F8010078
:100A2000A5F1400440BA6080B5F8030040BAA08048
:100A3000B5F8050040BA00B2E080FFF7EFFD6FF0B7
:100A40000D02FFF7CFFD00227B0702F0A1FB064657
:100A50008846B4F90400FFF7E1FD6FF00D02FFF7DF
:100A6000C1FD00227B0702F093FB32464346FFF7AD
:100A700031FC03F079F806468846B4F90200FFF726
:100A8000CDFD00225E4BFFF7CCFC32464346FFF71C
:100A90003AFD02F087F9DFF86CB15B4B5A46FFF77D
:100AA000C0FCFFF7F3FD554ED4363060B4F90600B4
:100AB000FFF7B4FD6FF00D02FFF794FD00227B07F6
:100AC00002F066FB80468946B4F90200FFF7A6FDF6
:100AD0006FF00D02FFF786FD00227B0702F058FB46
:100AE00042464B46FFF7F6FB03F03EF88046894648
:100AF000B4F90400FFF792FD6FF00D02FFF772FDED
:100B000042464B46FFF7FFFC02F04CF95A463E4B7B
:100B1000FFF787FCFFF7BAFD7060432028700123C0
:100B20002A46D0213548009700F0E2FD06236A1CD2
:100B3000D0213248009700F0D3FC35F8010F40BABD
:100B400000B22081698849BA09B261818846A988C2
:100B500049BA0FB2A781FFF761FDDFF8B09000221C
:100B60004B46FFF7D0FCFFF791FD06F10C0528601E
:100B70004046FFF753FD00224B46FFF7C4FCFFF74A
:100B800085FD68603846FFF749FD00224B46FFF7B8
:100B9000BAFCFFF77BFDA86000F04CFBE16A401A4D
:100BA0004FF47A71B0FBF1F0FFF733FDA06200F073
:100BB00041FBE0623068FFF756FD154A154BFFF721
:100BC00030FC06460F462868A16AFFF713FBDAF8E7
:100BD0000010FFF7B7FAFFF746FD0F4A0F4BFFF77C
:100BE00020FC32463B46FFF775FBFFF74FFDCAF886
:100BF0000000BDE8F88F0000400000208C000020BD
:100C0000000010BFAEB6627FD9A54C4000606040C6
:100C10007B14AE47E17A943F5C8FC2F5285CEF3FCE
:100C200070470000F8B50024009490F82420254671
:100C3000012A12D0012280F824204A681F23072AA3
:100C40000DD20668776B521E02EB820293409F43DF
:100C50000B6893401F43776319E00220F8BD0668D4
:100C60000D2A0AD2376BD21F02EB820293409F43B8
:100C70000B6893401F43376309E0F76A0D3A02EBB4
:100C8000820293409F430B6893401F43F7620A68B8
:100C9000072306680A2A0AD3F7680A3A02EB4202D7
:100CA00093409F438B6893401F43F76008E0376988
:100CB00002EB420293409F438B6893401F4337618E
:100CC0000A68102A01D0112A20D1124B02689A42D8
:100CD00017D193681B0219D4936843F400039360FF
:100CE0000968102912D10C490C4A0968B1FBF2F1CC
:100CF00001EB8101490000E0491E00910029FBD170
:100D000004E0816A41F020018162012480F82450CE
:100D10002046F8BD002401405400002040420F004E
:100D200010B501680968890705D500F007F8FFF7D5
:100D300070FC0149086310BD000000200068C06C11
:100D4000704710B5044600684168890626D50168D9
:100D5000890723D5A16AC90603D4A16A41F40071A9
:100D6000A1628168C1F34241072910D1E16871B9DC
:100D7000416821F020014160A06A20F48070A062E7
:100D8000A06AC00403D4A06A40F00100A06220461B
:100D9000FFF7C6FF21686FF0120008602068416805
:100DA00009062ED5016849072BD5A16AC90603D4C7
:100DB000A16A41F40051A1628168C1F3023107299F
:100DC00009D04168490515D48168C1F3424107291A
:100DD00010D1E16871B9416821F080014160A06AD9
:100DE00020F48050A062A06AC00503D4A06A40F03D
:100DF0000100A0622046FFF713FF21686FF00C008E
:100E000008602068416849060DD50068C0070AD00F
:100E1000A06A40F48030A062204600F093F8216878
:100E20006FF00100086010BD2DE9F0414FF00007A0
:100E300004003D467ED0A06A002628B9E66284F808
:100E40002460204600F080F82046FFF771FDA16A7B
:100E5000C90600D420B1A06A40F01000A06269E089
:100E6000A16A21F4885141F00201A1626268E1693E
:100E7000E3680A4347EA43010A43A1684FF48077D5
:100E8000B94209D0012907D05FF00001D4F814C09D
:100E9000BCF1010F02D00AE03946F7E7F3B1A36ACB
:100EA00043F02003A362E36A43F00103E362236893
:100EB000D3F804C02CF4694C4CEA010CC3F804C00C
:100EC00021688B68DFF870C003EA0C0313438B6062
:100ED000A168B9420BD0012909D00CE0DFF85CC051
:100EE000A3690CEB43330B4343F40061DFE7218A32
:100EF0000D05A5F580152168CB6A23F470032B43FB
:100F0000CB62216889680E4B1940914208D1E66294
:100F1000A16A21F0020141F00101A162BDE8F08166
:100F2000A06A20F0020040F01000A062E06A40F0E9
:100F30000100E0620120F1E7FDF7E1FF00E0FFFFC3
:100F4000FE0E1FFF7047000000B500680F4985B016
:100F5000884218D10E48816941F40071816180692D
:100F6000694600F400700490102000900320019066
:100F7000084800F077F800221146122000F004FD26
:100F8000122000F0F5FC05B000BD00000024014077
:100F9000001002400008014070B5044690F824009B
:100FA00001280DD0012084F824002046FFF7E6FC3C
:100FB00002004FF0000005D084F82400104670BDF8
:100FC000022070BDA16A40F60163994341F480712B
:100FD000A162224D23682249AB4218D10E6816F453
:100FE000702F14D0A66A46F48016A6620E687605A5
:100FF00005D5A66A26F4005646F48056A662A66A6F
:10100000F6040AD5E66A26F00606E66206E0A66A57
:1010100026F48016A6625E68E9E7E06284F82400A0
:101020006FF0020018602068436843F020034360BB
:1010300020688368C3F34243072B05D1A84208D137
:10104000096811F4702F04D0816841F48011816027
:10105000B4E7816841F4A001F9E7000000280140ED
:10106000042401402DE9F84FDFF890A100220AF195
:10107000040B144601274FF00F090BF1040E00BFBB
:101080000B6807FA04F52B40AB4274D1DFF870C14E
:101090004E68A6EB0C0866452BD00DDC032E34D031
:1010A00005DC36B3012E19D0022E2FD11BE0112EF4
:1010B00016D0122E2AD119E0B8F5881F19D006DCF7
:1010C000B8F5803F15D0B8F5801F1FD111E0B8F5F5
:1010D000001F0ED0B8F5041F18D10AE0CA6815E049
:1010E000CA68121D12E0CA6808320FE0CA680C32E2
:1010F0000CE08A682AB1012A4FF0080203D045614A
:1011000004E0042202E0056100E00022FF2B01D888
:10111000064601E000F104064FEA840501D9A5F175
:101120002005D6F800C009FA05F82CEA080C02FAE6
:1011300005F54CEA050CC6F800C04D68ED0057D522
:10114000304DAE6946F00106AE61AD6924F003068C
:1011500005F0010500952C4D06EB050CDCF8085058
:10116000A6074FEA167809FA08F6B543274EB042AB
:1011700002D1002610E03BE0254EB04201D101260D
:101180000AE0244EB04201D1022605E0224EB042D0
:1011900001D1032600E0042606FA08F62E43CCF817
:1011A00008604D68DAF80060ED03554601D51E432E
:1011B00000E09E432E604D68DBF80060AD035D46A5
:1011C00001D51E4300E09E432E604D68DEF80060AE
:1011D000ED02754601D51E4300E09E432E604D682A
:1011E000AD020E4D2E6801D51E4300E09E432E60D9
:1011F000641C102CFFF444AFBDE8F88F00040140DC
:1012000000001110001002400000014000080140E1
:10121000000C014000100140001401400C0401408A
:10122000C2684A40C26070470AB101617047090450
:10123000FBE700000148806870470000480000207C
:1012400070B504001BD094F83D00002520B984F847
:101250003C50204600F0E8FA242084F83D00206845
:10126000016821F00101016000F0E6FC404A61687C
:10127000914201D83F4900E03F49884201D2012014
:1012800070BD3E492368B0FBF1F159606368934239
:1012900006D94FF4967359434FF47A73B1FBF3F1C7
:1012A0002368491C19626168914210D84900401EA8
:1012B000B0FBF1F2521CC2F30B02042A01D204204B
:1012C00022E0B0FBF1F0401CC0F30B001CE0A3686F
:1012D000CBB301EBC10202EB0116421EB2FBF6F2E8
:1012E000521C42F48042120536D06BB301EBC102AE
:1012F00002EB0111401EB0FBF1F0401CC0F30B00EB
:1013000040F4804040F400402168C861D4E90701FE
:10131000084321680860D4E9031008432168886005
:10132000D4E9050108432168C8602068016841F0DC
:10133000010101602564202084F83D00256384F8C4
:101340003E50002070BD00E008E001EB4106421E67
:10135000B2FBF6F2521CC6E70120D5E701EB4101D2
:10136000401EB0FBF1F0401CC0F30B00CAE70000C8
:10137000A086010080841E0000093D0040420F004D
:101380002DE9FF4F81B099468B4604464FF0010886
:10139000FFF750FF054694F83D0020287BD1192324
:1013A00001224D492046009501F0AFF8002872D186
:1013B00094F83C0001286ED0012084F83C0020689D
:1013C0000168C90703D1016841F00101016020688B
:1013D000016821F400610160242084F83D000026AA
:1013E00026643E48E06220272068016841F480714D
:1013F00001604B4600224FF001112046009501F09C
:1014000084F8002858D121680BF0FE000861FFF72E
:1014100011FF2168054648694969C0F3400094F806
:101420003D20C1F380214FF0A00A12E0B9F1000F76
:1014300004D0FFF7FFFE411B494501D984F83DA0C8
:10144000216848694969C0F3400094F83D20C1F320
:101450008021084301D1A02AE8D184F83D7020689A
:101460004169C943890717D4016841F400710160DB
:101470002068416980691923012217492046009597
:1014800001F043F8C0B984F83D7084F83C60002056
:1014900005B0BDE8F08F1DE0016841F40071016006
:1014A00021686FF480604861192301220A492046AF
:1014B000009501F02AF808B10320E9E741460398B6
:1014C00008F1010881428FD384F83D7084F83C60B4
:1014D0000120DDE70220DBE7020010000000FFFF33
:1014E0002DE9F84F1F4690468A460446DDF82890BD
:1014F000FFF7A0FE054694F83D0020287ED1192371
:10150000012278492046009500F0FFFF0028F5D120
:1015100094F83C00012871D0012084F83C00206838
:101520000168C90703D1016841F001010160206829
:10153000016821F400610160222084F83D00102040
:1015400084F83E0000262664C4F824806785664837
:10155000E062608D20852B464A465146204600F0C9
:10156000F4FE28B1206C84F83C60042850D073E06D
:10157000208D5E4F68B1012814D0022820680168D0
:101580001ED041F48061016020684169806900904B
:101590009AE02068416981690091016841F4007115
:1015A000016091E02068016821F48061016072B6F9
:1015B0002068416981690091016841F400710AE085
:1015C00041F40061016072B620684169816900914F
:1015D000016821F48061016062B675E0032850D88B
:1015E00001280CD002284B464FF000023946204615
:1015F000009512D000F089FF70BB13E070E02A461E
:101600004946204600F0F6FF28B1206C202823D060
:101610000120BDE8F88F20684BE000F076FFD8B9D4
:1016200072B61BE02068016821F48061016072B627
:1016300020680169606A421C62620170208D401E50
:101640002085608D401E60854B460022394620462D
:10165000009500F05AFF08B10320DAE7206801681E
:1016600041F40071016020680169606A421C626295
:101670000170208D401E2085608D401E608562B601
:10168000C9E72A464946204600F0B4FF0028BCD1ED
:1016900020680169606A421C62620170208D401EF0
:1016A0002085608D401E608520684169C9434907D7
:1016B0000AD40169606A421C62620170208D401E7A
:1016C0002085608D401E6085208D002886D12020D9
:1016D00084F83D0084F83E6084F83C60002098E780
:1016E000022096E7020010000000FFFF0400010046
:1016F0002DE9F84F1F4690468A460446DDF82890AB
:10170000FFF798FD064694F83D0020287ED1192366
:10171000012243492046009600F0F7FE00287DD1C3
:1017200094F83C00012879D0012084F83C0020681E
:101730000168C90703D1016841F001010160206817
:10174000016821F400610160212084F83D0010202F
:1017500084F83E0000252564C4F82480678531485C
:10176000E062608D208533464A465146204600F0AF
:101770005BFE28B1206C84F83C5004284CD00DE06E
:10178000206841698069009030E032464946204631
:1017900000F061FF28B1206C042838D00320BDE898
:1017A000F88F606A411C6162216800780861608D71
:1017B000401E6085208D401E80B2208521684A69C8
:1017C000D24352070BD450B1606A421C6262007867
:1017D0000861608D401E6085208D401E2085324648
:1017E0004946204600F06AFE0028D4D1208D00280A
:1017F000CBD154F83D0B016841F400710160202009
:1018000004F81E09E57765770020C8E706E0206840
:10181000016841F4007101600120C0E70220BEE7C9
:10182000020010000000FFFF00B500680C4985B001
:10183000884212D1C0200090122001900320039012
:1018400069460848FFF70EFC0748C16941F40011DA
:10185000C161C06900F40010049005B000BD000033
:1018600000540040000C0140001002400248816812
:10187000027811448160704748000020074810B585
:10188000016841F010010160032000F09DF8002084
:1018900000F006F800F024F8002010BD00200240FF
:1018A00070B50D4D04464FF47A712878B1FBF0F015
:1018B0000A490968B1FBF0F000F0A3FB48B9102C0D
:1018C00007D200222146501E00F05EF800206C6016
:1018D00070BD012070BD00004800002054000020B1
:1018E000214808B5816941F001018161816901F0F8
:1018F00001010091C16941F08051C161C06900F0EE
:1019000080500090032000F05FF8002211466FF035
:101910000B0000F039F8002211466FF00A0000F0C9
:1019200033F8002211466FF0090000F02DF8002274
:101930001146501F00F028F800221146101F00F039
:1019400023F800221146901E00F01EF800221146D6
:10195000501E00F019F80548416821F0E06141F09F
:101960008061416008BD000000100240000001409D
:1019700000F01F02012191404009800000F1E020A9
:10198000C0F8001170470000F0B40E4B1B680C4605
:10199000C3F30223C3F10705042D00D90425191D43
:1019A000072901D2002300E0DB1E012606FA05F11B
:1019B000491E214099409E40761E16403143F0BC9E
:1019C00000F038BF0CED00E0064900F0070208689F
:1019D0004FF6FF03184040EA0220034A1043086014
:1019E000704700000CED00E00000FA052DE9F84317
:1019F00005460078354CC00754D0E0690026C00089
:101A000008D4E06940F08050E061E069012600F010
:101A1000805000902E480168C90512D401688046A4
:101A200041F480710160FFF705FC074605E000BF47
:101A3000FFF700FCC01B642823D8D8F80000C005BD
:101A4000F6D5206A10F4407021D0A98801F44071C5
:101A500081421CD0206A1F49012220F440700A6094
:101A600000220A602062C00711D0FFF7E3FB07469F
:101A700041F2883808E000BFFFF7DCFBC11B41459D
:101A800002D90320BDE8F883206A8007F4D5206AD4
:101A9000696820F44070084320621EB1E06920F0BC
:101AA0008050E0612878800705D56068A96820F437
:101AB0004040084360602878C00605D56068E96842
:101AC00020F48000084360600020DBE70010024043
:101AD00000700040400442422DE9F047DFF83C81AD
:101AE00005460E46D8F8000000F00700B0420CD2C0
:101AF000D8F8001021F007013143C8F80010D8F8D9
:101B0000000000F00700B04263D12878444C800701
:101B100005D56068A96820F0F00008436060287867
:101B2000C00745D06868012816D02168022816D061
:101B3000890700294DDA616821F0030101436160E2
:101B4000FFF778FB6968074641F2883001290FD01A
:101B50000229814619D027E021688903E9E7890134
:101B6000E7E700BFFFF766FBC11B494501D918E055
:101B700081466068C0F381000128F3D118E000BFFE
:101B8000FFF758FBC11B49450BD86068C0F38100C3
:101B90000228F5D10CE000BFFFF74CFBC11B494503
:101BA00002D90320BDE8F087606810F00C0FF3D174
:101BB000D8F80010404601F00701B1420BD9016886
:101BC00021F0070131430160006800F00700B042D6
:101BD00001D00120E6E72878400705D56068E9686C
:101BE00020F4E060084360602878000706D560684C
:101BF000296920F4605040EAC100606000F03CF8C0
:101C00006168084AC1F30311515CC8400649086085
:101C10000020FFF745FE0020C4E70000002002403E
:101C200000100240B43B0008540000200148006846
:101C300070470000540000200448054900684968C6
:101C4000044AC1F30221515CC8407047540000208F
:101C500000100240C43B0008044805490068496878
:101C6000044AC1F3C221515CC840704754000020AF
:101C700000100240C43B000812A185B00FC98DE8D6
:101C80000F0014A0144A006804905168134801F032
:101C90000C03042B10D0082B0ED1C1F38343C903CE
:101CA0001DF803000AD5516804AAC1F34041515CF4
:101CB0000A4A5043B0FBF1F005B070470849484369
:101CC000FAE7000002030405060708090A0B0C0DD9
:101CD0000E0F1010010200000010024000127A00E6
:101CE00000093D002DE9F84F04460078B94DC007C2
:101CF00048D06868C0F38100012807D06868C0F345
:101D00008100022809D16868C00306D528688003CD
:101D100038D5606800286FD034E06068B0F5803F47
:101D20000BD010B1B0F5A02F11D0286820F480306E
:101D30002860286820F4802002E0286840F4803081
:101D40002860606888B1FFF775FA064609E02868E0
:101D500040F480202860F0E7FFF76CFA801B6428CD
:101D600075D828688003F7D50CE0FFF763FA0646BC
:101D700005E000BFFFF75EFA801B6428F0D82868F2
:101D80008003F7D42078944E80074FF001094FF07C
:101D900000083BD5686810F00C0F07D06868C0F3E6
:101DA0008100022809D16868C00306D4286880072A
:101DB00014D5206901281FD110E02069B0B1C6F800
:101DC0000090FFF737FA074605E000BFFFF732FA49
:101DD000C01B0228C4D828688007F7D52868616925
:101DE00020F0F80040EAC10028600FE0C6F800804B
:101DF000FFF720FA074606E0E9E000BFFFF71AFA0E
:101E0000C01B022823D828688007F7D42078000751
:101E10002CD57248A169D9B1C0F80090FFF70AFA31
:101E2000074604E0FFF706FAC01B02280FD8686ACD
:101E30008007F7D56A484FF4FA510068B0FBF1F01B
:101E4000009000BF0098411E0091FAD20EE080E0A1
:101E5000C0F80080FFF7EEF9074604E0FFF7EAF963
:101E6000C01B022875D8686A8007F7D4207840071D
:101E700060D5E8690027C00008D4E86940F08050C8
:101E8000E861E869012700F080500090554801683A
:101E9000C90513D40168834641F480710160FFF7DE
:101EA000C9F9824606E000BFFFF7C4F9A0EB0A00BB
:101EB00064284ED8DBF80000C005F5D5E06801289D
:101EC0000AD008B1052813D0286A20F00100286242
:101ED000286A20F0040002E0286A40F0010028622D
:101EE000E06841F2883B98B1FFF7A4F982460BE025
:101EF000286A40F004002862EEE700BFFFF79AF975
:101F0000A0EB0A0159455AD8286A8007F6D50CE09B
:101F1000FFF790F9824605E0FFF78CF9A0EB0A0184
:101F200059454CD8286A8007F6D41FB1E86920F0DB
:101F30008050E861E06988B36968C1F381010229D2
:101F400045D00228C6F8608004D0FFF773F9044634
:101F500038E034E0FFF76EF9074604E0FFF76AF96E
:101F6000C01B02282BD828688001F7D4206AB0F55E
:101F7000803F05D16868A16820F40030084368609C
:101F8000D4E908010843696821F4741108436860C2
:101F9000C6F86090FFF74EF9044606E015E000BF72
:101FA000FFF748F9001B022809D828688001F7D5F7
:101FB0000BE000BFFFF73EF9001B022802D9032007
:101FC000BDE8F88F28688001F4D40020F8E70120EC
:101FD000F6E7000000100240000042428004424246
:101FE00054000020007000404FF0E02104280869F0
:101FF00003D020F004000861704740F00400FAE7C5
:10200000704710B5401EB0F1807F01D3012010BD94
:102010004FF0E02460610F21601700F00BFC0020FE
:10202000A06107202061002010BD10B5FFF7E8FF78
:1020300010BD10B590F83C20012A25D0012280F86F
:102040003C20CA688C6822F4407222434C6822F417
:10205000806222430C6822F4006222430C6922F45D
:10206000805222434C6922F4005222438C6922F4AC
:102070008042224322F4004102680023214351643C
:1020800080F83C30002010BD022010BD30B590F823
:102090003C20012A20D0012280F83C20022380F835
:1020A0003D3003685C6824F070045C6003685C6821
:1020B0000D682C435C6003689C6824F080049C607D
:1020C00003689C6849680C439C6080F83D200021AF
:1020D00080F83C10084630BD022030BD1FB50068B6
:1020E0000649884208D18015009002200190039093
:1020F00069460348FEF7B6FF1FBD0000002C0140F3
:102100000008014070B5044690F83C000D460128D7
:102110000DD0012684F83C60022084F83D0042B1D5
:10212000042A18D0082A2AD00C2A4DD139E00220DE
:1021300070BD206800F03AFC2068816941F0080118
:1021400081612068816921F00401816120688169D1
:102150002A69114311E0206800F050FC2068816971
:1021600041F4006181612068816921F480618161AD
:10217000206881692A6941EA0221816124E020689E
:1021800000F068FC2068C16941F00801C161206865
:10219000C16921F00401C1612068C1692A69114344
:1021A00011E0206800F082FC2068C16941F4006100
:1021B000C1612068C16921F48061C1612068C16981
:1021C0002A6941EA0221C16184F83D60002084F857
:1021D0003C0070BD10B5040003D094F83D0010B170
:1021E00007E0012010BD002084F83C00204600F0EC
:1021F0000DF8022084F83D00211D206800F094FBBA
:10220000012084F83D00002010BD000008B50068E2
:102210000649884208D10648816941F4006181611C
:10222000806900F40060009008BD0000002C0140AF
:102230000010024010B504460068012200F0AAFB1D
:1022400007492068884203D1416C41F40041416450
:102250002068016841F001010160002010BD00000C
:10226000002C014070B5040004D094F8390000251A
:1022700010B106E0012070BD84F83850204600F00F
:1022800023F8242084F839002068C16821F4005123
:10229000C160204600F02CFC2068016921F49041C7
:1022A00001612068416921F02A0141612068C1680B
:1022B00041F40051C160E563202084F8390084F8BE
:1022C0003A00002070BD000010B50068114986B0CA
:1022D00088421CD11048C16941F40031C161C06914
:1022E0000E4C00F400300490042000900220019075
:1022F0000320039069462046FEF7B4FE0021082023
:10230000CDE90001029169462046FEF7ABFE06B01A
:1023100010BD0000004400400010024000080140D1
:10232000FEE701684A69D24352050CD46FF480621B
:102330004A6104210164002140F8301F20224273C9
:10234000017301207047002070472DE9F84F0446C3
:10235000C06A1E4692460D4621680A6842F48062B1
:102360000A60042807D0012805D010F5803F02D06C
:10237000206B112804D12068016841F4807101604C
:102380004FF001185346002241462046009600F0C7
:10239000BCF8B8BB206908F10109B0F5804F12D034
:1023A0000620216800EAD51747F0F000086133469F
:1023B000524608F10701204600F0D8F838B1206CE9
:1023C00004282FD01EE0E8B240F001001FE0216891
:1023D000E8B20861334652464946204600F0C6F846
:1023E0000028ECD12068416981690091016841F4BD
:1023F000807101605346002241462046009600F05D
:1024000084F810B10320BDE8F88F47F0F10021688F
:102410000861334652464946204600F0A7F8002896
:10242000CDD1F0E70120EEE7F8B50446C06A1E46BC
:102430000D461746042807D0012805D010F5803F27
:1024400002D0206B122804D12068016841F4807109
:102450000160134600224FF001112046009600F063
:1024600054F8A0B92069B0F5804F12D00620216839
:1024700000EAD51040F0F000086133463A460E49B4
:10248000204600F073F838B1206C042811D00320E6
:10249000F8BD05F0FE0000E0E8B2216808610649D9
:1024A00033463A46891F204600F060F80028EBD1F9
:1024B000F8BD0120F8BD00000800010070B5164607
:1024C0000D4604461AE02046FFF72BFF08B1012015
:1024D00070BD681C12D025B1FEF7ACFE801BA8426F
:1024E0000CD954F8400F40F0200044F810090020A7
:1024F0002060202161732073032070BD2068406933
:10250000C0434007DFD4002070BD2DE9F0471E46D0
:1025100090460D460446C1F30747DDF8209012E0CF
:10252000701C10D02EB1FEF785FEA0EB0900B04262
:1025300009D9002044F8300F20216173A073207363
:102540000320BDE8F0872068012F0AD0806925EAC2
:1025500000000004000C06D000214145E0D000201E
:10256000EFE74069F3E70121F7E700002DE9F047C5
:102570009A4691460D46044600264FF02008C1F3C6
:1025800007472AE020684069C043400512D420680C
:10259000016841F40071016021686FF48060486156
:1025A00004202064266384F83D8084F83C60012088
:1025B000BDE8F087B9F1FF3F0FD0B9F1000F05D0AA
:1025C000FEF738FEA0EB0A01494506D944F8306F02
:1025D00084F80D8026730320EAE72068012F07D0D6
:1025E000D0F8180025EA00000004000CE0D0C9E78C
:1025F0004069F7E72DE9F041002590460E46044674
:10260000202721E04069C043C0060CD421686FF048
:10261000100048612564256384F83D7084F83C50BF
:102620000120BDE8F0812EB1FEF704FEA0EB08000A
:10263000B04209D954F8400F40F0200044F8040992
:10264000677025700320ECE720684169C94349069B
:10265000D8D40020E5E770B516460D4604461AE0CA
:102660002046FFF75EFE08B1012070BD681C12D045
:1026700025B1FEF7DFFD801BA8420CD954F8400FAE
:1026800040F0200044F810090020206020216173F0
:102690002073032070BD20684069C0430006DFD46A
:1026A000002070BD3EB50F4800240D498460C46011
:1026B00044610160012505614FF460214460C161FE
:1026C000FEF7B2FB00B1FEE70420CDE90005694644
:1026D00002940448FEF7A6FA002800D0FEE73EBDAB
:1026E000002401405C0000202DE9F0411F4886B025
:1026F000816941F020018161816901F0200104912B
:10270000816941F004018161816901F00401049152
:10271000816941F0080181618069154F00F008006E
:102720004FF440740490002221463846FEF77CFDA9
:10273000009401AA01240025022682E8700069465F
:102740003846FEF78FFCDFF82C80670300223946FD
:102750004046FEF769FD01AA009782E870006946CD
:102760004046FEF77FFC06B0BDE8F0810010024055
:10277000000C0140001001400B4810B509490160F0
:102780000A49416000214FF480428160C0E9031290
:1027900041618161C1610162FEF752FD002800D0F4
:1027A000FEE710BD005400408C000020A086010010
:1027B00010B51E4890B01C490024C0E90014C8217F
:1027C000C0E90241046144618461FFF703FD00B187
:1027D000FEE70E940EA915480F94FFF757FC00B1C1
:1027E000FEE76020CDE9000402940394049405946C
:1027F000002269460D480694FFF784FC00B1FEE70D
:102800000794089409944FF400500A94CDE90B40C2
:1028100007A906480D94FFF70CFC00B1FEE703483A
:10282000FFF75CFC10B010BD002C0140E000002060
:10283000FEE770470907090E002806DA00F00F00CE
:1028400000F1E02080F8141D704700F1E02080F8CE
:10285000001470477047704710B5FFF707F8BDE8E0
:102860001040FFF7E2BB30B593B001210804CDE979
:1028700000100025029502240491CDE907404FF491
:10288000E01009906846FFF72DFA00B1FEE70AA9AB
:102890000F2081E831004FF48060CDE90D05022161
:1028A0000AA8FFF719F900B1FEE74FF400401190B4
:1028B0000F940FA8FFF79AF800B1FEE7FFF7B6F9FB
:1028C0004FF47A71B0FBF1F0FFF79BFB0420FFF7A8
:1028D0008BFB00221146501EFFF756F813B030BD97
:1028E0000D48016841F00101016041680B4A114047
:1028F000416001680A4A11400160016821F48021A9
:102900000160416821F4FE0141604FF41F018160C4
:102910000449C00308607047001002400000FFF83F
:10292000FFFFF6FE08ED00E0F0B50268164B174C0D
:10293000174D4FF08047984205D0B84203D0A042CF
:1029400001D0A84203D122F070064A68324398426F
:1029500005D0B84203D0A04201D0A84203D122F44E
:102960004074CA68224322F080044A69224302600C
:102970008A68C2620A688262984201D10969016369
:1029800001214161F0BD0000002C01400004004025
:102990000008004010B50123046A8B409C43046288
:1029A000036A8A401343036210BD000030B5026A17
:1029B00022F001020262026A4368846924F073050E
:1029C0000C682C4322F002058A682A430A4DA8426B
:1029D0000BD122F00805CA6823F440732A434D69DD
:1029E00022F004021D438B692B43436084614968D4
:1029F0004163026230BD0000002C014030B5026A24
:102A000022F010020262026A436884690D6824F4AD
:102A1000E64444EA05248D6822F0200242EA0512C9
:102A20000B4DA8420ED1CD6822F0800242EA051279
:102A30004D6923F4406343EA85038D6922F0400227
:102A400043EA85034360846149688163026230BD63
:102A5000002C014030B5026A22F480720262036ADF
:102A60004268C46923F4007324F073050C682C4396
:102A70008D6843EA05230C4DA8420ED1CD6823F49E
:102A8000006343EA05234D6922F4405242EA0512ED
:102A90008D6923F4806342EA05124260C46149688B
:102AA000C163036230BD0000002C014030B5026AF2
:102AB00022F480520262046A4268C3690D6823F4FA
:102AC000E64343EA05238D6824F4005444EA0534C0
:102AD000064DA84204D14D6922F4804242EA851293
:102AE0004260C36149680164046230BD002C01404A
:102AF0002DE9F041044600680169E26821F4405183
:102B0000114301612169A068084361690843216894
:102B1000CA6841F20C639A430243CA602068416963
:102B2000A26921F44071114341614C492068642538
:102B3000322688423CD1FFF78FF800EBC00101EB51
:102B4000001061688900B0FBF1F7FFF785F800EB32
:102B5000C00101EB00106168B0468900B0FBF1F0E4
:102B6000B0FBF5F06FF01801484307EB800106EB6E
:102B70000110B0FBF5F000F0F006FFF76DF800EB88
:102B8000C00101EB001061688900B0FBF1F0B0FBFF
:102B9000F5F006EB0016FFF75FF800EBC00101EB64
:102BA000001061688900B0FBF1F7FFF755F83BE0D2
:102BB000FFF742F800EBC00101EB001061688900EB
:102BC000B0FBF1F7FFF738F800EBC00101EB0010A4
:102BD0006168B0468900B0FBF1F0B0FBF5F06FF032
:102BE0001801484307EB800106EB0110B0FBF5F03C
:102BF00000F0F006FFF720F800EBC00101EB001039
:102C000061688900B0FBF1F0B0FBF5F006EB00164F
:102C1000FFF712F800EBC00101EB001061688900BA
:102C2000B0FBF1F7FFF708F800EBC00101EB001073
:102C300061688900B0FBF1F0B0FBF5F06FF01801AE
:102C4000484307EB800108EB0110B0FBF5F0216869
:102C500000F00F0030448860BDE8F081003801408A
:102C6000FEE7490050EAC12018BF04204A0D18BFF2
:102C700040F0010040F2FF72B2EB515F08BF40F03C
:102C80000200012808BF052070472DE9F0414F1EC2
:102C900000EBC7010446D1E9000115461E4637F096
:102CA00006020DD02A463346FDF7BBFB7F1E04EB20
:102CB000C703D3E90023FDF70DFB37F00602F1D17E
:102CC000022F25D0042F13D0062F18BFBDE8F081A6
:102CD0002A463346FDF7A5FBD4E90A23FDF7FAFAA5
:102CE0002A463346FDF79DFBD4E90823FDF7F2FAA7
:102CF0002A463346FDF795FBD4E90623FDF7EAFAA9
:102D00002A463346FDF78DFBD4E90423FDF7E2FAAA
:102D10002A463346FDF785FBD4E90223FDF7DAFAAC
:102D20002A463346FDF77DFBD4E90023BDE8F04198
:102D3000FDF7D0BA0022134610460149FDF7E3BB68
:102D40000000F03F0122FDF74DBCFDF7C3BA0022A1
:102D5000134610461146FDF7D6BB40F20132002063
:102D60004FF0E041FDF73EBC024A00201107FDF79D
:102D700039BC000001FDFFFF02E008C8121F08C1B6
:102D8000002AFAD170477047002001E001C1121FEC
:102D9000002AFBD17047000001490860704700001D
:102DA000580000202DE9F84F04460D4621F0004060
:102DB00000917349814211DC7249884201DC06D1DD
:102DC0002CB120462946BDE8F84FFFF7BBBF6E483F
:102DD000002DCCBF6D496E49BDE8F88F6D49814229
:102DE00011DD6D498142D8BF4FF0FF366DDD2046C1
:102DF0002946FFF736FF042808BFFFF7B5FF204636
:102E00002946BDE8F88F6549654F25F000458142A8
:102E100033DD6449814219DD002632464FF080439C
:102E200020462946FDF756FA80468A46012220466A
:102E30002946FDF7D7FB00223B46FDF7ECFA424658
:102E40005346FDF760FB04460D463EE00126002296
:102E5000BA463B4620462946FDF73CFA80460F46D7
:102E60000022534620462946FDF7D5FA42463B4606
:102E7000FDF749FB04460D4627E04B4981421BDD27
:102E8000DFF828A102260022534620462946FDF7F6
:102E9000C8FA00223B46FDF71DFA80460F46002285
:102EA000534620462946FDF7B6FA42463B46FDF713
:102EB0002AFB04460D4608E0032622462B46002046
:102EC0003B49FDF720FB04460D4622462B461046A3
:102ED0001946FDF7A6FA8B46824602460B46FDF7D9
:102EE000A0FA07460246334888460B460621784436
:102EF000FFF7CBFE52465B46FDF793FA82462E481B
:102F00008B463A46434605217844FFF7BEFE3A46D3
:102F10004346FDF786FA02460B46002E50465946B8
:102F20000CDAFDF7D7F922462B46FDF77AFA01B005
:102F300022462B46BDE8F04FFDF770BAFDF7CAF9FF
:102F400022462B46FDF76DFA1C4A7A4402EBC60373
:102F5000D3E90023FDF75FFA22462B46FDF75BFA23
:102F6000174A7A4402EBC603D3E90023FDF756FA69
:102F7000009A002AB8BF81F00041BDE8F88F000038
:102F8000000010440000F07F182D4454FB21F93F4D
:102F9000FB21F9BF0000DC3F0000203E0000F33FB2
:102FA0000000F03F0000E63F008003400000F83FD3
:102FB0000000F0BF460D0000040D0000A20C000050
:102FC0006A0C00002DE9F0411A4C194E6663206B23
:102FD000FDF749FB184A194BFDF723FAFDF756FB9D
:102FE000174FC4E90E7080461648314605682562C1
:102FF0002846FDF7FFF8206139462846FDF7FAF824
:103000006169FDF79FF810496061884202DC0F4951
:10301000884200D961612846616AFDF7E5F8A16A36
:10302000FDF71AF94146FDF7E5F8A061BDE8F0812A
:1030300044633D410000002039052FA7E0E5A43F8F
:10304000E042E0407801002000002041000020C163
:1030500008B5FEF713FCFFF706FCFFF745FB4448F5
:103060004249002501604FF41651C0E901150C21B9
:10307000C560C0E904518561C561FFF7F3F800B18F
:10308000FEE7FFF779FBFFF70DFBFFF791FB3848F1
:1030900000214038FFF7CEF83548C438FDF77CFFF3
:1030A00034486B210223017045700A20009030489B
:1030B000304AD0219438FEF71BFB2E4C2C48403C64
:1030C0000A23012221789438FEF75AF920B94FF4E7
:1030D00000512948FEF7A4F8254EDFF8A0A0284F9C
:1030E000DFF8A090DFF8A0804FF4807B58362048AE
:1030F0005830FDF77DFC306850450FD3012259460A
:103100003846FEF791F800224FF400713846FEF77A
:103110008BF8E06980F00040E06109E00022594648
:103120003846FEF781F8012251023846FEF77CF856
:103130000F48C438FDF730FFFFF744FF30684845BB
:1031400002DC1249884202D92846E56107E0D4E949
:103150000401FCF7F7FFA169FCF7F4FFE061FDF75C
:103160006EFAC8F80000206A6062C0E700440040C0
:10317000200100204000002000100140000080805D
:10318000000C014000003442342C0140000034C2E5
:103190002DE9F04D1D460C4698B0174621F0004130
:1031A00023F00043002814BF4FF0010C4FF0000C37
:1031B0000CEB440CFE4A0CEB02064FEA620C66452F
:1031C0002BD33E0018BF012606EB45061644F94AEC
:1031D000964222D3F84A53EA070C02D0944205D112
:1031E00048B918B000201146BDE8F08D002808BF8E
:1031F0004FF0000C01D04FF0010C0CEB440212F523
:10320000001F0AD8002F14BF4FF0010C4FF0000C24
:103210000CEB450212F5001F07D918B03A462B46B1
:103220002146BDE8F04DFFF790BD0022DFF88CA3EA
:10323000002CB8BF534526DADFF884C36345A8BF26
:10324000022220DADFF870C39C451CDCDFF874C36F
:103250000CEB235CBCF1140F08DDCCF1340627FA2B
:1032600006FC0CFA06F6BE420DD108E05FB9CCF1BF
:10327000140623FA06FC0CFA06F69E4203D10CF063
:103280000102C2F1020251EA000C19D1002D17DA35
:10329000002C18BF022A01D0012A07D00220FFF714
:1032A0007BFD18B0BDE8F04DFFF744BD0220FFF7ED
:1032B00073FDFFF73FFD18B081F00041BDE8F08DD0
:1032C000B7F1000C6CD1534525D104F1804212F5C1
:1032D000801201BF00280020B74918B008BFBDE820
:1032E000F08DB548884207DC002DA1BF6046294615
:1032F00018B0BDE8F08D07E0281E05DA80F0004127
:1033000018B06046BDE8F08DAF497944D1E90001BD
:1033100018B0BDE8F08DDFF8A0C2634525D1002DBF
:103320001FDA19B1514512D1D8B909E0002840F08F
:10333000EC82A24A214618B062F31E01BDE8F08D6E
:103340000020214618B060F31E01BDE8F08D08DAB8
:1033500018B02346BDE8F04D024600206146FDF757
:10336000D2B818B02146BDE8F08D514518DAB5F154
:10337000804F0DD0A5F1005CBCF1FF5C10D1B4F121
:10338000000C0DDB18B06146BDE8F04D00F0ECBB61
:10339000234618B00246BDE8F04D1946FDF741B886
:1033A000060024F0004C3BD1D9B1514533D1002C5B
:1033B00006DD002DA1BF0020514618B0BDE8F08DFC
:1033C000002C01DD002D1BDB002C13DA002D11DB9E
:1033D000012A4FF0000014BF78497C4918B0BDE8BD
:1033E000F08D022A18BF002C0AD0012A08D1002C27
:1033F00006DA0AE0002CB8BF002D11DA012A04D049
:10340000002018B00146BDE8F08D18B000204FF044
:103410000041BDE8F08DA1F14050B0F17F601AD0BD
:10342000012000EBE47050EA020421D0624C521EED
:103430004FF0000B104304BF4FF0000B644C654885
:1034400083427CDD644A654893421FDD884217DB76
:10345000002D25DB37E0002C00DA4AB1022A0CBF30
:1034600001204FF0FF3018B0BDE8F04DFDF7D6B8A1
:103470000120FFF791FC18B0BDE8F04DFFF767BCE5
:103480004D4A8A4202DC002D0ADC1CE0814202DA4D
:10349000002D18DA04E0484B994220DD002D12DDA2
:1034A0000220FFF779FCFFF758FC05460E46002284
:1034B000534658462146FCF7B4FF18B066F31E0188
:1034C0002846BDE8F08D0220FFF766FCFFF74CFCB4
:1034D0000A46214618B062F31E01BDE8F08D0022B5
:1034E00030466146FCF797FF80460E466FF00102BA
:1034F000FDF778F84FF05532394BFCF78FFF424615
:103500003346FCF78EFF0022364BFCF787FF8246DE
:1035100042463346049110461946FCF782FF524654
:10352000049BFCF77EFF8A4600904FF0C0422E4B72
:1035300040463146FCF775FF2C4A2B4B00E027E054
:10354000CDE9060151460098FCF76BFF82460191D8
:10355000274A284B40463146FCF763FF5246019B01
:10356000FCF759FF82460B4602460591DDE906014C
:10357000FCF7B0FEDDE90623002688463046FCF75E
:103580004AFF5246059BFCF749FF024600F07EB910
:103590000020B1F5801F07DA352230466146FDF77D
:1035A00021F806466FF0340000EB215024E00000C3
:1035B000FFFF1F00FFFF0F000000F03F0000F07F43
:1035C0000000404301FCFFFFE20900000000F0FFA3
:1035D0000000F0BF0000E0410000F043FFFFEF3FBC
:1035E0005555D53F0000E03F4715F73FFE822B655C
:1035F00044DF5DF80BAE543EA0F2FF300190C1F302
:10360000130040F07F6141F040510291FE49884231
:10361000D8BF002004DDFD498142C8BF012001DD83
:103620000D9008E000200D900198401C0190029838
:10363000A0F5801002900299F54878440B910D99FD
:1036400000EBC100D0E900230F9330460A920B999A
:10365000FCF7E1FECDE90601DDE90A2130460F9BCA
:10366000FCF738FE02460B460020EA49FCF74BFF08
:10367000059102460B460090DDE90601FCF7D1FEFC
:103680001490E5488A464FF0000878440299006893
:1036900012904FF0005040EA61010D980F9B01EB32
:1036A000804000F5002109910A9A1298FCF7B3FEB8
:1036B00032460B9BFCF7B2FE42465346FCF7B1FE86
:1036C0000646029140465146099B129AFCF7A9FE14
:1036D000DDE90623FCF7A2FE3246029BFCF79BFEC7
:1036E000059B009AFCF79DFE0091149A04905346A6
:1036F00010461946FCF795FE06460246C7480B469B
:10370000029106217844FFF7C0FACDE90510029B2B
:10371000324610461946FCF784FEDDE90532FCF717
:1037200080FE05910646534640461946149AFCF71A
:10373000D1FD009B049AFCF774FE3246059BFCF712
:10374000C9FDCDE905104246534610461946FCF71F
:1037500068FE0022B24B02910A90FCF7BBFDDDE946
:103760000532FCF7B7FD0E464246AD4B4046FCF72E
:1037700052FE029B0A9AFCF74EFEDDE90532FCF789
:103780004DFE424602910A90334610465146FCF7E0
:1037900048FECDE906015346149A02990A98FCF7AF
:1037A00040FE8A4602903346424600990498FCF750
:1037B00038FE5346029AFCF78DFD82460B460246C0
:1037C0000591DDE90601FCF785FDDDE90623002012
:1037D00088460646FCF71FFE5246059BFCF71EFE78
:1037E000824609914FF060428E4B30464146FCF7CD
:1037F00018FE049006918C4A8A4B50460999FCF7B2
:1038000010FE82460291894A894B30464146FCF7B8
:1038100008FE5246029BFCF75DFD864B7B440D9AE9
:1038200003EBC203D3E90023FCF754FD0E9007918C
:103830000198FCF7F3FE0591DDE9061382460E9A26
:103840000498FCF747FD7C4A7A440D9B02EBC303C6
:10385000D3E9002300930292FCF73CFD5246059BFE
:10386000FCF738FD0026884652463046059BFCF79B
:10387000D2FD009B029AFCF7CEFD069B049AFCF752
:10388000CAFD079B0E9AFCF7C9FD024600200B46B5
:10389000029038462946FCF7C4FD824601912B462A
:1038A00038461946029AFCF7B6FD32464346FCF705
:1038B000B8FD5246019BFCF70DFD07468A4632468D
:1038C000434629460298FCF7ACFD05460E463A46AB
:1038D0005346FCF7FFFC594A8846914221DBA8EB8E
:1038E000020353EA000210D12A463346FCF793FD47
:1038F000CDE90401524A534B38465146FCF7EAFCE5
:10390000DDE90423FCF7E4FF21D20220FFF744FAAB
:10391000FFF723FA0A46214618B062F31E01BDE8FC
:10392000F08D494B28F000429A4210D3474A08EBE9
:10393000020353EA00027FF4C6AD2A463346FCF781
:103940006AFD3A465346FCF7C3FF7FF6BCAD002242
:10395000019228F000403E493E4A01EB205182424C
:1039600023DA481C4FF4801121FA00F040443A4A0F
:10397000C0F30A517A44394BA1F2FF31CB4020EA1F
:103980000303C0F3130040F48010C1F11401C840D8
:1039900012680190B8F1000FBCBF40420190284668
:1039A0003146FCF738FD05460E462A463346384672
:1039B0005146FCF78FFC4FF000084246284B40462A
:1039C0000591FCF72EFDCDE90601264A264B40461F
:1039D0000599FCF726FD009102902A4633464046A1
:1039E0000599FCF718FD3A465346FCF717FD1F4AA8
:1039F0001F4BFCF716FD009B029AFCF76BFC074679
:103A0000884602460B4635E08E9803007AB60B00D6
:103A10002A0600000000F03F62060000900500004A
:103A20000000084009C7EE3FFD033ADCF5015B14D6
:103A3000E02F3EBE680400002C040000000090400F
:103A4000FE822B654715973C00CC904000346F3FB9
:103A500001FCFFFF0000E03F78030000FFFF0F00C4
:103A6000432EE63F396CA80C615C20BEEF39FAFEAC
:103A7000422EE63FDDE90601FCF72CFCDDE90623DA
:103A800005460E46FCF7C7FC3A464346FCF7C6FC23
:103A90000F462A463346009010461946FCF7C1FCF3
:103AA000824602462E4888460B4605217844FFF799
:103AB000ECF852464346FCF7B4FC2A463346FCF782
:103AC000ADFC80468A463B4628463146009AFCF7C4
:103AD000A8FC3B46009AFCF7FDFB069100900022F3
:103AE0004FF0804340465146FCF795FC0F460C9042
:103AF0004246534628463146FCF793FC3B460C9A17
:103B0000FCF701FD069B009AFCF785FC2A4633462C
:103B1000FCF781FC0022134BFCF780FC0546019862
:103B20000E4601EB00510815002810DC28463146EE
:103B3000019AFCF757FDFFF794F8042808BFFFF738
:103B400013F928463146019AFCF74CFD05460B4611
:103B500018B02A4658462146BDE8F04DFCF761BC36
:103B6000180200000000F03F2DE9F04106460F4624
:103B7000FCF75DFE041E0D4618BF0120284320F00F
:103B80000040C0F17F6000F1E040C00F0ED0301C5B
:103B900018BF0120384320F00040C0F17F6000F1E1
:103BA000E040C00F04BF0120FFF7F6F82046294689
:103BB000BDE8F081000000000000000001020304E5
:103BC00006070809000000000102030400000000CD
:103BD0004FBB610567ACDD3F182D4454FB21E93F25
:103BE0009BF681D20B73EF3F182D4454FB21F93F14
:103BF000E2652F227F2B7A3C075C143326A6813C9A
:103C0000BDCBF07A8807703C075C143326A6913C44
:103C1000C4EB98999999C9BF711623FEC671BCBFB0
:103C20006D9A74AFF2B0B3BF9AFDDE522DDEADBF18
:103C30002F6C6A2C44B4A2BF0D5555555555D53F30
:103C4000FF8300922449C23F6E204CC5CD45B73F4B
:103C5000513DD0A0660DB13FEB0D76244B7BA93FC3
:103C600011DA22E33AAD903F000000000000F03F7F
:103C7000000000000000F83F00000000000000000D
:103C80000000004003B8E23F000000000000000018
:103C900006D0CF43EBFD4C3E033333333333E33FA6
:103CA000FFAB6FDBB66DDB3F4D268F515555D53FD2
:103CB00001411DA96074D13F65DBC9934A86CD3FA0
:103CC000EF4E454A287ECA3F3E5555555555C53F8E
:103CD00093BDBE166CC166BF2CDE25AF6A56113F80
:103CE000F16BD2C541BDBBBED0A4BE726937663E82
:103CF0000000000000000000183D00080000002047
:103D00005C000000782D0008743D00085C00002075
:103D10002C050000882D00080000000000000000B5
:103D20000000000000000000000000000000000093
:103D30000000000000000000000000000000000083
:103D40000000000000000000000000000000000073
:103D50000000000000000000000000000000000063
:103D600001000000100000000000000000A24A0452
:043D7000000000004F
:04000005080000ED02
:00000001FF
