:020000040800F2
:100000005005002001010008C71D00088F190008D5
:10001000C51D00084D0900088120000800000000EF
:10002000000000000000000000000000EB1D0008C0
:100030004F09000800000000E91D0008ED1D000840
:100040001B0100081B0100081B0100081B01000820
:100050001B0100081B0100081B0100081B01000810
:100060001B0100081B0100081B0100081B01000800
:100070001B0100081B0100081B0100081B010008F0
:100080001B0100081B0100081B0100081B010008E0
:100090001B0100081B0100081B0100081B010008D0
:1000A0001B0100081B0100081B0100081B010008C0
:1000B0001B0100081B0100081B0100081B010008B0
:1000C0001B0100081B0100081B0100081B010008A0
:1000D0001B0100081B0100081B0100081B01000890
:1000E0001B0100081B0100081B010008DFF80CD0F1
:1000F00000F01AFC00480047CD2C000850050020F5
:100100000648804706480047FEE7FEE7FEE7FEE7B1
:10011000FEE7FEE7FEE7FEE7FEE7FEE7651E0008F6
:10012000ED000008202A04DB203A21FA02F0002129
:10013000704721FA02F3D040C2F1200291400843F7
:1001400019467047421C10F8011B0029FBD1801A88
:100150007047F0B480EA0102D40F4200B2EB410FC5
:1001600002D20246084611464A0042D0C30DDDB213
:10017000C1F3C752AD1A202D35DAC1F3160141F48F
:10018000000204B15242C5F1200602FA06F12A41EA
:100190001044B3EBD05F23D0C4B1012DA0EBC3500A
:1001A00009DCF0BC4FF0004202EAC352DBB200F5BA
:1001B000000000F0ADBA400000F1807000EBC350C9
:1001C000A0F1807040EAD170490009E0490841EA95
:1001D000C071A0EBC35000F50000400800EBC35015
:1001E000F0BC00F08CBA6142012202EB4101001B1D
:1001F000F6E7F0BC704781F00041AAE780F00040CC
:10020000A7E780EA010210B502F00043400022D0C7
:100210004A001FD0010E01EB1261C0F35600C2F379
:10022000560240F4000042F40002A0FB0220000449
:100230007F39140400D0401C50EA124001D4400021
:10024000491EC2B20C0604EBD010401C4008802AA4
:1002500002D003E0002010BD20F00100002900DAE8
:100260000020184310BD2DE9FE4F804681EA0300AF
:10027000C00F0C46009021F0004123F00045B8EB80
:100280000200A94105D24046214690461C460B4635
:10029000024623F00040104347D0270DC7F30A0061
:1002A000C3F30A510290401A019040286BDAC3F35D
:1002B000130040F4801B0098924620B10023D2EB3B
:1002C000030A63EB0B0B01985946C0F140025046FC
:1002D00000F0F4F906460D4650465946019A00F0E2
:1002E000FCF910EB08006141002487EA115284EA0E
:1002F000E7731A4340D0009A62B3019A012A4FEA89
:10030000075215DC001B61EB02014FF0004202EACC
:100310000752CDE90042001C41F5801132462B46C0
:1003200000F033FA03B0BDE8F08F40462146F9E70C
:10033000001B61EB0201001C41F5801300185B41BA
:100340002018A2F5001747EB030140EAD570B61953
:100350006D4111E06D084FEA360645EAC0754FEA77
:100360000752001B61EB0201001C41F58011490896
:100370004FEA30000019514132462B4603B0BDE828
:10038000F04F00F0F3B90098012240000023D0EBB9
:10039000020263EBE073009821464FEAE074B8EB89
:1003A000000061EB0401E9E783F000435BE781F0C3
:1003B000004158E72DE9FE4F81EA030404F00044B0
:1003C00021F0004100944FF0000B23F0004350EA6D
:1003D00001045ED052EA03045BD0C3F30A54C1F3B4
:1003E0000A552C44A4F2F3340194A0FB0254C1F347
:1003F000130141F48011C3F3130343F4801301FB91
:10040000024400FB034E840A970A44EA815447EAF7
:100410008357A4FB076802958D0A05FB07854FEA01
:10042000932C04FB0C542705029D4FEA065847EA1B
:100430001637B5EB08056EEB070C870E920E47EAF0
:10044000811742EA8312A7FB0201B6EB0B0164EBB2
:1004500000042B0D43EA0C335E1844EB1C50DA46C3
:100460005146E7FB0201C5F313044FEA0B3343EA9D
:1004700014534FEA0432019C43EA0603A4F10C042E
:100480000294009CCDE900B400F07FF903B0BDE810
:10049000F08F00200146F9E72DE9F04D81EA0304D1
:1004A00004F0004B21F0004514464FF0000A23F001
:1004B000004150EA050220D054EA01021DD0C5F3E4
:1004C0000A570246C5F31303C1F31300C1F30A56DA
:1004D00040F4801543F48013A7EB0608101BD646A2
:1004E00008F2FD3873EB050002D308F1010801E0C2
:1004F00092185B41B8F1000F03DA00200146BDE815
:10050000F08D00204FF48011064684460EE0171B44
:1005100073EB050705D3121B63EB050306434CEA97
:10052000010C49084FEA300092185B4150EA01077C
:10053000EDD152EA030012D082EA040083EA0501F9
:10054000084305D0101BAB4106D20122002306E070
:1005500000224FF0004302E06FF0010253101AEB4B
:1005600006004CEB085110EB0A0041EB0B01BDE813
:10057000F04D00F0FBB870B521F0004303430CD000
:10058000C1F30A550024D5EB040564EB0403D61728
:10059000AD1AB34102DB0020014670BD201841EBCB
:1005A000025170BD96230022114600F0B1B80EB57D
:1005B000C10F80EAE0700844CA07002140F23343CB
:1005C0008DE80E000A460B4600F0DFF803B000BDD0
:1005D00000F0004230F000400AD0C10D01F560711A
:1005E000C0F3160042EA0151C208400711437047A8
:1005F00000200146704701F0004330B421F0004173
:1006000050EA010206D00A0DA2F56072C1F313018F
:10061000002A02DC30BC00207047440F44EAC104C9
:10062000C100E01830BC00EBC25000F068B830B533
:100630000B46014600202022012409E021FA02F5A0
:100640009D4205D303FA02F5491B04FA02F528443A
:10065000151EA2F10102F1DC30BD2DE9F05F054667
:10066000002092469B4688460646814640241BE071
:100670002846414647462246FFF754FD53465A4610
:10068000C01A914110D311461846224600F016F8C0
:100690002D1A67EB01084F4622460120002100F089
:1006A0000DF817EB00094E41201EA4F10104DFDC18
:1006B000484631462A464346BDE8F09F202A04DBDF
:1006C000203A00FA02F1002070479140C2F1200365
:1006D00020FA03F3194390407047202A06DBCB171A
:1006E000203A41FA02F043EAE07306E041FA02F3ED
:1006F000D040C2F1200291400843194670470029BA
:10070000A8BF7047401C490008BF20F00100704797
:1007100010B4B0FA80FC00FA0CF050EA010404BFF7
:1007200010BC704749B1CCF1200421FA04F411FA4D
:100730000CF118BF012121430843A3EB0C01CB1D91
:100740004FEA00614FEA102042BF002010BC704702
:1007500000EBC35010440029A4BF10BC7047401CDC
:10076000490008BF20F0010010BC704710B5141EEE
:1007700073F1000408DA401C41F1000192185B415A
:100780001A4301D120F0010010BD2DE9F04D924631
:100790009B4611B1B1FA81F202E0B0FA80F2203248
:1007A0009046FFF78BFF04460F4640EA0A0041EAF5
:1007B0000B0153465A46084313D0114653EA010031
:1007C00019D0C8F140025046FFF7ACFC05460E4672
:1007D000504659464246FFF771FF084305D00120B5
:1007E00004E020463946BDE8F08D0020054346EA86
:1007F000E0762C4337430A986305E40AA0EB08002F
:100800000022FD0A44EA47540A3002D5002001467E
:10081000E9E7010510196941DDE908450019694159
:10082000BDE8F04DA2E72DE9F04D00231A461B1A52
:100830008A4103DB00200146BDE8F08DC1F30A5276
:10084000C1F3130141F480154FF0000BD10702D121
:1008500000186D41521E0027044640F2FF11384631
:1008600001EB620A3E468046024600204FF48011AA
:10087000FFF758FCC2197141BB1846EB0100B4EBFD
:10088000030C75EB000C04D3E41A65EB0005174666
:100890000E46241908F101006D4180463428E3DD3D
:1008A000F91946EB0600091BA84103D24FF0FF32AD
:1008B000134601E0002213461BEB070046EB0A51EA
:1008C000BDE8F04DFFF752BFC1F30A52C1F3130167
:1008D00040F2FF3341F480119A4202DA00200146CF
:1008E000704740F233439A42A2F2334202DC524252
:1008F000FFF718BCFFF7E2BE30B5041E71F100042B
:1009000004DB4FF00044404264EB0101141E73F11C
:10091000000405DB1C464FF00043524263EB040326
:10092000994208BF904230BD064C074D06E0E06892
:1009300040F0010394E8070098471034AC42F6D326
:10094000FFF7D8FB983B0008B83B0008FEE770476C
:100950002DE9F84FDFF890A100220AF1040B1446AC
:1009600001274FF00F090BF1040E00BF0B6807FAC7
:1009700004F52B40AB4274D1DFF870C14E68A6EB92
:100980000C0866452BD00DDC032E34D005DC36B3C5
:10099000012E19D0022E2FD11BE0112E16D0122EAF
:1009A0002AD119E0B8F5881F19D006DCB8F5803FC8
:1009B00015D0B8F5801F1FD111E0B8F5001F0ED07B
:1009C000B8F5041F18D10AE0CA6815E0CA68121DFC
:1009D00012E0CA6808320FE0CA680C320CE08A687C
:1009E0002AB1012A4FF0080203D0456104E0042235
:1009F00002E0056100E00022FF2B01D8064601E07D
:100A000000F104064FEA840501D9A5F12005D6F8C6
:100A100000C009FA05F82CEA080C02FA05F54CEAC0
:100A2000050CC6F800C04D68ED0057D5304DAE69D5
:100A300046F00106AE61AD6924F0030605F001053C
:100A400000952C4D06EB050CDCF80850A6074FEA84
:100A5000167809FA08F6B543274EB04202D10026AF
:100A600010E03BE0254EB04201D101260AE0244EC1
:100A7000B04201D1022605E0224EB04201D1032648
:100A800000E0042606FA08F62E43CCF808604D680C
:100A9000DAF80060ED03554601D51E4300E09E43A1
:100AA0002E604D68DBF80060AD035D4601D51E4346
:100AB00000E09E432E604D68DEF80060ED02754652
:100AC00001D51E4300E09E432E604D68AD020E4DE1
:100AD0002E6801D51E4300E09E432E60641C102C3E
:100AE000FFF444AFBDE8F88F00040140000011108E
:100AF000001002400000014000080140000C0140CD
:100B000000100140001401400C040140C2684A403A
:100B1000C26070470AB1016170470904FBE7000039
:100B200001488068704700002000002070B5040074
:100B30001BD094F83D00002520B984F83C50204695
:100B400000F0E8FA242084F83D002068016821F0D4
:100B50000101016000F064FC404A6168914201D8E3
:100B60003F4900E03F49884201D2012070BD3E4923
:100B70002368B0FBF1F159606368934206D94FF4E2
:100B8000967359434FF47A73B1FBF3F12368491C10
:100B900019626168914210D84900401EB0FBF1F221
:100BA000521CC2F30B02042A01D2042022E0B0FB43
:100BB000F1F0401CC0F30B001CE0A368CBB301EBC9
:100BC000C10202EB0116421EB2FBF6F2521C42F4C5
:100BD0008042120536D06BB301EBC10202EB01116A
:100BE000401EB0FBF1F0401CC0F30B0040F480400D
:100BF00040F400402168C861D4E907010843216836
:100C00000860D4E90310084321688860D4E905012D
:100C100008432168C8602068016841F00101016053
:100C20002564202084F83D00256384F83E50002090
:100C300070BD00E008E001EB4106421EB2FBF6F297
:100C4000521CC6E70120D5E701EB4101401EB0FB75
:100C5000F1F0401CC0F30B00CAE70000A0860100C1
:100C600080841E0000093D0040420F002DE9FF4F27
:100C700081B099468B4604464FF00108FFF750FFBC
:100C8000054694F83D0020287BD1192301224D49C7
:100C90002046009500F071FF002872D194F83C00C6
:100CA00001286ED0012084F83C0020680168C90743
:100CB00003D1016841F0010101602068016821F45D
:100CC00000610160242084F83D00002626643E482F
:100CD000E06220272068016841F4807101604B4682
:100CE00000224FF001112046009500F046FF002839
:100CF00058D121680BF0FE000861FFF711FF216851
:100D0000054648694969C0F3400094F83D20C1F3A5
:100D100080214FF0A00A12E0B9F1000F04D0FFF7D4
:100D2000FFFE411B494501D984F83DA0216848696F
:100D30004969C0F3400094F83D20C1F38021084385
:100D400001D1A02AE8D184F83D7020684169C943E7
:100D5000890717D4016841F4007101602068416976
:100D600080691923012217492046009500F005FFEC
:100D7000C0B984F83D7084F83C60002005B0BDE83F
:100D8000F08F1DE0016841F40071016021686FF48B
:100D900080604861192301220A492046009500F02D
:100DA000ECFE08B10320E9E74146039808F1010889
:100DB00081428FD384F83D7084F83C600120DDE7E8
:100DC0000220DBE7020010000000FFFF2DE9F84FD2
:100DD0001F4690468A460446DDF82890FFF7A0FE9D
:100DE000054694F83D0020287ED119230122784938
:100DF0002046009500F0C1FE0028F5D194F83C0093
:100E0000012871D0012084F83C0020680168C907DE
:100E100003D1016841F0010101602068016821F4FB
:100E200000610160222084F83D00102084F83E001B
:100E300000262664C4F8248067856648E062608DD9
:100E400020852B464A465146204600F0B5FD28B184
:100E5000206C84F83C60042850D073E0208D5E4FF5
:100E600068B1012814D00228206801681ED041F41E
:100E70008061016020684169806900909AE0206883
:100E8000416981690091016841F40071016091E05C
:100E90002068016821F48061016072B620684169B0
:100EA00081690091016841F400710AE041F4006138
:100EB000016072B62068416981690091016821F47E
:100EC0008061016062B675E0032850D801280CD01B
:100ED00002284B464FF0000239462046009512D0BA
:100EE00000F04BFE70BB13E070E02A4649462046F6
:100EF00000F0B8FE28B1206C202823D00120BDE8E6
:100F0000F88F20684BE000F038FED8B972B61BE0CD
:100F10002068016821F48061016072B6206801696F
:100F2000606A421C62620170208D401E2085608DC7
:100F3000401E60854B46002239462046009500F051
:100F40001CFE08B10320DAE72068016841F4007153
:100F5000016020680169606A421C62620170208D34
:100F6000401E2085608D401E608562B6C9E72A4616
:100F70004946204600F076FE0028BCD12068016971
:100F8000606A421C62620170208D401E2085608D67
:100F9000401E608520684169C94349070AD4016938
:100FA000606A421C62620170208D401E2085608D47
:100FB000401E6085208D002886D1202084F83D00C9
:100FC00084F83E6084F83C60002098E7022096E7B1
:100FD000020010000000FFFF040001002DE9F84F9F
:100FE0001F4690468A460446DDF82890FFF798FD94
:100FF000064694F83D0020287ED11923012243495A
:101000002046009600F0B9FD00287DD194F83C0000
:10101000012879D0012084F83C0020680168C907C4
:1010200003D1016841F0010101602068016821F4E9
:1010300000610160212084F83D00102084F83E000A
:1010400000252564C4F8248067853148E062608DFE
:10105000208533464A465146204600F01DFD28B102
:10106000206C84F83C5004284CD00DE02068416985
:101070008069009030E032464946204600F023FE69
:1010800028B1206C042838D00320BDE8F88F606AAE
:10109000411C6162216800780861608D401E608596
:1010A000208D401E80B2208521684A69D2435207B4
:1010B0000BD450B1606A421C626200780861608D96
:1010C000401E6085208D401E2085324649462046C0
:1010D00000F02CFD0028D4D1208D0028CBD154F86D
:1010E0003D0B016841F400710160202004F81E09E5
:1010F000E57765770020C8E706E02068016841F4DD
:10110000007101600120C0E70220BEE7020010006C
:101110000000FFFF00B500680C4985B0884212D17D
:10112000C0200090122001900320039069460848D7
:10113000FFF70EFC0748C16941F40011C161C069A5
:1011400000F40010049005B000BD00000054004001
:10115000000C0140001002400248816802781144EE
:101160008160704720000020074810B5016841F0F9
:1011700010010160032000F091F8002000F006F853
:1011800000F024F8002010BD0020024070B50D4D85
:1011900004464FF47A712878B1FBF0F00A490968E7
:1011A000B1FBF0F000F021FB48B9102C07D200226F
:1011B0002146501E00F052F800206C6070BD0120E6
:1011C00070BD0000200000202C000020214808B540
:1011D000816941F001018161816901F001010091A2
:1011E000C16941F08051C161C06900F08050009038
:1011F000032000F053F8002211466FF00B0000F0BE
:101200002DF8002211466FF00A0000F027F80022A6
:1012100011466FF0090000F021F800221146501F1E
:1012200000F01CF800221146101F00F017F80022F1
:101230001146901E00F012F800221146501E00F0D8
:101240000DF80548416821F0E06141F0806141609E
:1012500008BD00000010024000000140F0B40E4B39
:101260001B680C46C3F30223C3F10705042D00D904
:101270000425191D072901D2002300E0DB1E0126E9
:1012800006FA05F1491E214099409E40761E1640FF
:101290003143F0BC00F098BD0CED00E0064900F0D1
:1012A000070208684FF6FF03184040EA0220034A8D
:1012B00010430860704700000CED00E00000FA05E4
:1012C0002DE9F047DFF83C8105460E46D8F80000CE
:1012D00000F00700B0420CD2D8F8001021F007014E
:1012E0003143C8F80010D8F8000000F00700B04201
:1012F00063D12878444C800705D56068A96820F040
:10130000F000084360602878C00745D0686801286D
:1013100016D02168022816D0890700294DDA6168A5
:1013200021F0030101436160FFF7FAFB696807469A
:1013300041F2883001290FD00229814619D027E0D7
:1013400021688903E9E78901E7E700BFFFF7E8FBC8
:10135000C11B494501D918E081466068C0F381008E
:101360000128F3D118E000BFFFF7DAFBC11B4945A4
:101370000BD86068C0F381000228F5D10CE000BFF3
:10138000FFF7CEFBC11B494502D90320BDE8F0871A
:10139000606810F00C0FF3D1D8F80010404601F04F
:1013A0000701B1420BD9016821F007013143016007
:1013B000006800F00700B04201D00120E6E728787D
:1013C000400705D56068E96820F4E0600843606084
:1013D0002878000706D56068296920F4605040EA43
:1013E000C100606000F03CF86168084AC1F3031175
:1013F000515CC840064908600020FFF7C7FE002086
:10140000C4E700000020024000100240583A0008E3
:101410002C00002001480068704700002C000020CC
:101420000448054900684968044AC1F30221515C37
:10143000C84070472C00002000100240683A0008A5
:101440000448054900684968044AC1F3C221515C57
:10145000C84070472C00002000100240683A000885
:1014600012A185B00FC98DE80F0014A0144A0068BE
:1014700004905168134801F00C03042B10D0082B82
:101480000ED1C1F38343C9031DF803000AD5516887
:1014900004AAC1F34041515C0A4A5043B0FBF1F049
:1014A00005B0704708494843FAE700000203040505
:1014B000060708090A0B0C0D0E0F101001020000A0
:1014C0000010024000127A0000093D002DE9F84F9B
:1014D00004460078B94DC00748D06868C0F3810061
:1014E000012807D06868C0F38100022809D1686824
:1014F000C00306D52868800338D5606800286FD0FF
:1015000034E06068B0F5803F0BD010B1B0F5A02F8B
:1015100011D0286820F480302860286820F48020CA
:1015200002E0286840F480302860606888B1FFF7E6
:10153000F7FA064609E0286840F480202860F0E7C2
:10154000FFF7EEFA801B642875D828688003F7D56A
:101550000CE0FFF7E5FA064605E000BFFFF7E0FA0A
:10156000801B6428F0D828688003F7D42078944E34
:1015700080074FF001094FF000083BD5686810F074
:101580000C0F07D06868C0F38100022809D1686891
:10159000C00306D42868800714D5206901281FD10C
:1015A00010E02069B0B1C6F80090FFF7B9FA07461D
:1015B00005E000BFFFF7B4FAC01B0228C4D82868B2
:1015C0008007F7D52868616920F0F80040EAC1007B
:1015D00028600FE0C6F80080FFF7A2FA074606E091
:1015E000E9E000BFFFF79CFAC01B022823D8286857
:1015F0008007F7D4207800072CD57248A169D9B1AB
:10160000C0F80090FFF78CFA074604E0FFF788FA6D
:10161000C01B02280FD8686A8007F7D56A484FF4C4
:10162000FA510068B0FBF1F0009000BF0098411E35
:101630000091FAD20EE080E0C0F80080FFF770FA67
:10164000074604E0FFF76CFAC01B022875D8686AE9
:101650008007F7D42078400760D5E8690027C000EC
:1016600008D4E86940F08050E861E869012700F09B
:101670008050009055480168C90513D4016883461D
:1016800041F480710160FFF74BFA824606E000BF2B
:10169000FFF746FAA0EB0A0064284ED8DBF80000FA
:1016A000C005F5D5E06801280AD008B1052813D097
:1016B000286A20F001002862286A20F0040002E075
:1016C000286A40F001002862E06841F2883B98B146
:1016D000FFF726FA82460BE0286A40F004002862F1
:1016E000EEE700BFFFF71CFAA0EB0A0159455AD8F4
:1016F000286A8007F6D50CE0FFF712FA824605E06B
:10170000FFF70EFAA0EB0A0159454CD8286A80076A
:10171000F6D41FB1E86920F08050E861E06988B331
:101720006968C1F38101022945D00228C6F86080AA
:1017300004D0FFF7F5F9044638E034E0FFF7F0F99C
:10174000074604E0FFF7ECF9C01B02282BD82868F5
:101750008001F7D4206AB0F5803F05D16868A168A0
:1017600020F4003008436860D4E908010843696840
:1017700021F4741108436860C6F86090FFF7D0F94F
:10178000044606E015E000BFFFF7CAF9001B022877
:1017900009D828688001F7D50BE000BFFFF7C0F932
:1017A000001B022802D90320BDE8F88F28688001B9
:1017B000F4D40020F8E70120F6E700000010024012
:1017C00000004242800442422C0000200070004091
:1017D0004FF0E0210428086903D020F004000861DC
:1017E000704740F00400FAE7704710B5401EB0F1B2
:1017F000807F01D3012010BD4FF0E02460610F21F4
:10180000601700F0E1FA0020A061072020610020AD
:1018100010BD10B5FFF7E8FF10BD70B5040004D08F
:1018200094F83900002510B106E0012070BD84F85D
:101830003850204600F022F8242084F8390020682F
:10184000C16821F40051C160204600F02FFB2068E0
:10185000016921F4904101612068416921F02A0168
:1018600041612068C16841F40051C160E5632020F6
:1018700084F8390084F83A00002070BD10B5006883
:10188000114986B088421CD11048C16941F4003129
:10189000C161C0690E4C00F4003004900420009037
:1018A000022001900320039069462046FFF750F87C
:1018B00000210820CDE90001029169462046FFF78A
:1018C00047F806B010BD0000004400400010024080
:1018D000000801402DE9F843044690F839001F46FE
:1018E00016460D46202850D1A5B19EB194F8380077
:1018F00001284AD0012084F838004FF00008C4F8CD
:101900003C80212084F83900FFF70AF9A68481463B
:10191000E68426E00120BDE8F883E08C401EE084E8
:10192000A0684B46B0F5805F4FF000024FF0800199
:101930002046009703D000F071FBE8B90DE000F0FD
:101940006DFBC8B928882168C0F308004860206989
:1019500008B16D1C05E0AD1C03E0216815F8010B12
:101960004860E08C0028D8D14B4600224021204618
:10197000009700F053FB08B10320CCE7202084F847
:10198000390084F838800020C5E70220C3E7FEE76D
:1019900001684A69D24352050CD46FF480624A61EF
:1019A00004210164002140F8301F2022427301739A
:1019B00001207047002070472DE9F84F0446C06AA7
:1019C0001E4692460D4621680A6842F480620A600B
:1019D000042807D0012805D010F5803F02D0206BE5
:1019E000112804D12068016841F4807101604FF032
:1019F00001185346002241462046009600F0BDF8EB
:101A0000B8BB206908F10109B0F5804F12D006205B
:101A1000216800EAD51747F0F000086133465246C6
:101A200008F10701204600F0D9F838B1206C0428ED
:101A30002FD01EE0E8B240F001001FE02168E8B2BC
:101A40000861334652464946204600F0C7F8002850
:101A5000ECD12068416981690091016841F480718D
:101A600001605346002241462046009600F085F86A
:101A700010B10320BDE8F88F47F0F100216808613C
:101A8000334652464946204600F0A8F80028CDD1FA
:101A9000F0E70120EEE70000F8B50446C06A1E46F4
:101AA0000D461746042807D0012805D010F5803FC1
:101AB00002D0206B122804D12068016841F48071A3
:101AC0000160134600224FF001112046009600F0FD
:101AD00054F8A0B92069B0F5804F12D006202168D3
:101AE00000EAD51040F0F000086133463A460E494E
:101AF000204600F073F838B1206C042811D0032080
:101B0000F8BD05F0FE0000E0E8B221680861064972
:101B100033463A46891F204600F060F80028EBD192
:101B2000F8BD0120F8BD00000800010070B51646A0
:101B30000D4604461AE02046FFF72AFF08B10120AF
:101B400070BD681C12D025B1FEF7EAFF801BA842C9
:101B50000CD954F8400F40F0200044F81009002040
:101B60002060202161732073032070BD20684069CC
:101B7000C0434007DFD4002070BD2DE9F0471E466A
:101B800090460D460446C1F30747DDF8209012E069
:101B9000701C10D02EB1FEF7C3FFA0EB0900B042BD
:101BA00009D9002044F8300F20216173A0732073FD
:101BB0000320BDE8F0872068012F0AD0806925EA5C
:101BC00000000004000C06D000214145E0D00020B8
:101BD000EFE74069F3E70121F7E700002DE9F0475F
:101BE0009A4691460D46044600264FF02008C1F360
:101BF00007472AE020684069C043400512D42068A6
:101C0000016841F40071016021686FF480604861EF
:101C100004202064266384F83D8084F83C60012021
:101C2000BDE8F087B9F1FF3F0FD0B9F1000F05D043
:101C3000FEF776FFA0EB0A01494506D944F8306F5C
:101C400084F80D8026730320EAE72068012F07D06F
:101C5000D0F8180025EA00000004000CE0D0C9E725
:101C60004069F7E72DE9F041002590460E4604460D
:101C7000202721E04069C043C0060CD421686FF0E2
:101C8000100048612564256384F83D7084F83C5059
:101C90000120BDE8F0812EB1FEF742FFA0EB080065
:101CA000B04209D954F8400F40F0200044F804092C
:101CB000677025700320ECE720684169C943490635
:101CC000D8D40020E5E770B516460D4604461AE064
:101CD0002046FFF75DFE08B1012070BD681C12D0E0
:101CE00025B1FEF71DFF801BA8420CD954F8400F08
:101CF00040F0200044F8100900202060202161738A
:101D00002073032070BD20684069C0430006DFD403
:101D1000002070BD30B51B4885B0816941F01001CD
:101D20008161816901F010010491816941F0200114
:101D30008161816901F020010491816941F008010C
:101D40008161816901F008010491816941F0040118
:101D5000816180690C4D00F004004FF40054049040
:101D6000002221462846FEF7D5FE0120CDE900409D
:101D7000002002900220039069462846FEF7E8FD05
:101D800005B030BD00100240001001400B4810B5F6
:101D9000094901600A49416000214FF48042816095
:101DA000C0E9031241618161C1610162FEF7BEFEBB
:101DB000002800D0FEE710BD005400403400002091
:101DC000801A0600FEE770470907090E002806DAA8
:101DD00000F00F0000F1E02080F8141D704700F1C2
:101DE000E02080F8001470477047704710B5FFF787
:101DF000B3F9BDE81040FFF70CBD30B58FB001213D
:101E00000804CDE900100024029402250491CDE9D4
:101E100007504FF4E01009906846FFF757FB00B1F8
:101E2000FEE70F20CDE90A054FF48060CDE90C40B4
:101E300002210AA80E94FFF743FA00B1FEE7FFF76C
:101E4000E9FA4FF47A71B0FBF1F0FFF7CEFC042011
:101E5000FFF7BEFC00221146501EFFF7FFF90FB03E
:101E600030BD00000D48016841F00101016041688A
:101E70000B4A1140416001680A4A11400160016843
:101E800021F480210160416821F4FE0141604FF49A
:101E90001F0181600449C0030860704700100240C0
:101EA0000000FFF8FFFFF6FE08ED00E02DE9F0412D
:101EB000044600680169E26821F440511143016160
:101EC0002169A0680843616908432168CA6841F232
:101ED0000C639A430243CA6020684169A26921F4F5
:101EE0004071114341614C49206864253226884283
:101EF0003CD1FFF7A5FA00EBC00101EB00106168CF
:101F00008900B0FBF1F7FFF79BFA00EBC00101EB92
:101F100000106168B0468900B0FBF1F0B0FBF5F04D
:101F20006FF01801484307EB800106EB0110B0FB8E
:101F3000F5F000F0F006FFF783FA00EBC00101EBCB
:101F4000001061688900B0FBF1F0B0FBF5F006EB22
:101F50000016FFF775FA00EBC00101EB0010616895
:101F60008900B0FBF1F7FFF76BFA3BE0FFF758FA97
:101F700000EBC00101EB001061688900B0FBF1F7D4
:101F8000FFF74EFA00EBC00101EB00106168B046AC
:101F90008900B0FBF1F0B0FBF5F06FF01801484399
:101FA00007EB800106EB0110B0FBF5F000F0F00646
:101FB000FFF736FA00EBC00101EB00106168890001
:101FC000B0FBF1F0B0FBF5F006EB0016FFF728FAD6
:101FD00000EBC00101EB001061688900B0FBF1F774
:101FE000FFF71EFA00EBC00101EB001061688900E9
:101FF000B0FBF1F0B0FBF5F06FF01801484307EBD0
:10200000800108EB0110B0FBF5F0216800F00F0033
:1020100030448860BDE8F081003801402DE9F0418E
:10202000984617460E460446069D1DE0681C1BD0C8
:102030002DB1FEF775FDA0EB0800A84214D9206869
:10204000C16821F4D071C1602068416921F00101AB
:102050004161202084F8390084F83A00002084F897
:1020600038000320BDE8F0812068006836EA0000EF
:1020700004D00020B842D9D00020F3E70120F9E7CE
:10208000FEE700000FB4084B10B504A902AA03989C
:1020900000F070F9044602A9002000F002FD20467D
:1020A00010BC5DF814FB0000A32A0008490050EAA8
:1020B000C12018BF04204A0D18BF40F0010040F2B3
:1020C000FF72B2EB515F08BF40F00200012808BF69
:1020D000052070472DE9F0414F1E00EBC701044673
:1020E000D1E9000115461E4637F006020DD02A46FA
:1020F0003346FEF75FF97F1E04EBC703D3E90023E5
:10210000FEF7B1F837F00602F1D1022F25D0042FE7
:1021100013D0062F18BFBDE8F0812A463346FEF7DC
:1021200049F9D4E90A23FEF79EF82A463346FEF71A
:1021300041F9D4E90823FEF796F82A463346FEF71C
:1021400039F9D4E90623FEF78EF82A463346FEF71E
:1021500031F9D4E90423FEF786F82A463346FEF720
:1021600029F9D4E90223FEF77EF82A463346FEF722
:1021700021F9D4E90023BDE8F041FEF774B800006E
:102180000022134610460149FEF786B90000F03FD1
:102190000122FEF7F0B9FEF766B80022134610469A
:1021A0001146FEF779B940F2013200204FF0E041CC
:1021B000FEF7E1B9024A00201107FEF7DCB9000082
:1021C00001FDFFFF02E008C8121F08C1002AFAD172
:1021D00070477047002001E001C1121F002AFBD1A7
:1021E000704700000149086070470000300000207F
:1021F0002DE9FF5F82B00021DDE90430020DDDF83A
:1022000040B0034318D044F61050A2F2FF324243CC
:102210001514119801281FD0A5EB0B00401C5FEA94
:10222000000A4FF000064E4FDFF83891B046504696
:1022300015D5CAF1000413E0119801244AA301281E
:1022400001D16FEA0B010298119AC0E90031C0E98F
:10225000024206B0BDE8F09FCBF10000DFE7044684
:102260000021404A491842EB0450CDE9001012E029
:10227000E00707D032463B4640464946FEF79AF80B
:102280008046894632463B4610461946FEF792F88C
:1022900006460F466410002CEAD1DDE90401DDE9B1
:1022A0000023BAF1000F06DAFEF784F842464B46E7
:1022B000FEF780F805E0FEF7EFF842464B46FEF7E2
:1022C000EBF804460E460022284BFEF715FB03D818
:1022D0004FF0FF30014607E00022254B20463146F3
:1022E000FDF7C1FFFEF7F0FA102409E0002C0ADB2D
:1022F0000A220023FEF7B1F9039B30321A55641EFF
:1023000050EA0102F2D1641C039AC4F1110314448F
:10231000119A012A03D0012208430DD10AE0084393
:1023200004D000204FF0110B119072E7A3EB0B05C6
:102330006D1E0DE05B4504DD4FF0000205F1010567
:1023400004E003DA4FF00002A5F10105002AECD009
:1023500002981199C0E90231C0E9004579E700000F
:10236000000014400000F03F300000000000F04387
:102370000000E03F2DE9FF4F95B09B468946064699
:1023800000250FE2252877D100242746F84A0121AD
:10239000059400E0044316F8013F203B01FA03F0E6
:1023A0001042F7D130782A2811D06FF02F033078FF
:1023B000A0F13002092A16D8059A44F0020402EB73
:1023C000820203EB42021044761C0590EFE759F8B5
:1023D000042B0592002A03DA504244F4005405907D
:1023E00044F00204761C30782E2816D116F8010F1E
:1023F00044F004042A280DD06FF02F023078A0F1A9
:102400003003092B09D807EB870302EB4303C718F6
:10241000761CF3E759F8047B761C30786C280FD0D3
:1024200006DC4C2817D068280DD06A2814D104E0A7
:10243000742810D07A280FD10DE044F400140AE07B
:1024400044F4801401E044F440147278824202D1D2
:1024500004F58014761C761C307866280BD013DCCB
:10246000582877D009DC002875D04528F6D04628B2
:10247000F4D047281AD19DE118E0632835D06428AC
:1024800079D0652812D195E1702873D008DC6728CF
:10249000F1D069286FD06E280DD06F2806D1B5E035
:1024A00073282CD0752875D0782874D05A4617997F
:1024B00090476D1C75E1C4F30250022809D003282F
:1024C0000DD0D9F8001004280DD00D6009F10409D1
:1024D00067E1D9F80010EA17C1E90052F6E7D9F828
:1024E00000100D80F2E70D70F0E719F8041B8DF86D
:1024F000001000208DF80100EA46012003E059F8A1
:1025000004AB4FF0FF3061074FF0000102D40DE043
:1025100008F101018846B9420FDA8045F8DB1AF864
:1025200008100029F4D108E008F101018846814231
:10253000FADB1AF808100029F6D105985B46A0EBE3
:10254000080721463846179A00F094FA284400EB11
:10255000080507E04DE029E10DE01AF8010B5A46A5
:1025600017999047B8F10108F7D25B4621463846E3
:10257000179A13E142E00A220092C4F302524FF08C
:10258000000A022A08D059F804CB032A4FEAEC715A
:102590000AD00DE029E02AE009F1070121F0070245
:1025A000F2E802C1914609E00FFA8CFC4FEAEC71A7
:1025B000042A03D14FFA8CFC4FEAEC71002907DAA8
:1025C0000A460021DCF1000C61EB02012D2202E041
:1025D000220504D52B228DF80420012203E0E20716
:1025E00001D02022F7E7904659E00A2102E01022AC
:1025F0000DE010214FF0000A00910BE010224FF087
:10260000000A44F004040827009203E008224FF077
:10261000000A0092C4F30252022A05D059F804CBF2
:102620000021032A08D009E009F1070121F007027F
:10263000F2E802C1914605E01FFA8CFC042A01D1A0
:102640000CF0FF0C4FF00008220728D5702806D0A8
:10265000009B83F0100353EA0A0305D00EE04022EA
:102660008DF80420012208E05CEA010206D0302245
:102670008DF804208DF8050002229046009B83F01F
:10268000080353EA0A030AD15CEA010201D1620796
:1026900005D530228DF804204FF001087F1E582800
:1026A00004D034A003900EA802900DE036A0F9E704
:1026B00053466046009AFDF7D0FF84460398825C3B
:1026C0000298401E029002705CEA0100F0D102986C
:1026D00006A9081A00F1200A600702D524F4803404
:1026E00000E00127574502DDA7EB0A0000E00020CB
:1026F00000EB0A01009005984144401A0590E00360
:1027000006D45B462146179A059800F0B3F90544B4
:10271000002706E001A85A46C05D179990476D1C36
:102720007F1C4745F6DBE0030CD55B462146179A34
:10273000059800F09FF9054404E030205A461799A7
:1027400090476D1C0099481E00900029F5DC08E0B8
:10275000029802995A460078491C029117999047AD
:102760006D1CBAF10001AAF1010AF1DC65E100007B
:102770000928010030313233343536373839616257
:10278000636465660000000030313233343536371B
:1027900038394142434445460000000000F058F9F2
:1027A0000544761C307800287FF4ECAD19B028463B
:1027B000BDE8F08F620700D4062709F1070222F076
:1027C000070CFCE80223E14603F000485FEA080C2E
:1027D00002D00FF2702C0DE05FEA045C02D50FF21C
:1027E000682C07E05FEAC47C02D00FF2602C01E0A5
:1027F000AFF2700C4FF0FF3823F00043CDF850C01B
:1028000065280CD006DC452809D046281DD047286D
:102810003DD13DE0662818D067287ED138E0002100
:10282000112F01DB112000E0781CCDE9000106A981
:102830000EA8FFF7DDFCDDE90F010E9A03910021E0
:10284000009207F1010A04914DE04FF0004000971B
:10285000CDE9011006A90EA8FFF7CAFCDDE90F02B9
:1028600003920E9B11990022DDF80CA000930492B4
:1028700011B9791C00EB010AB7EB0A0004D4C0F1CE
:10288000FF3007F1010A0490AAEB0700019044E031
:10289000012F00DA01270021112F01DD112000E0B6
:1028A0003846CDE9000106A90EA8FFF7A1FCDDE935
:1028B0000F010E9A0391002104910092BA4621075C
:1028C0000CD40399514500DA8A46BAF1010F05DDAF
:1028D000009AAAF10101515C302908D0B84202DA0D
:1028E00010F1040F06DA0121CDE9011015E0AAF17B
:1028F0000101E9E7002805DC049901440491AAEBF1
:10290000000102E0411C514500DD8A460499401A4D
:10291000401C01904FF000400290200704D4019821
:10292000504501DBCDF8048000208DF84F0002985F
:102930000DF14F07B0F1004F25D02B200E900298DB
:102940004FF0020800280CDA404202902D200E9031
:1029500007E00A210298FDF76AFE3031029007F87D
:10296000011DB8F10001A8F10108F2DC029800286D
:10297000EFD1791E0E980870307800F0200040F0FA
:10298000450007F8020D12A8C01B00F107081498B3
:10299000007800B1012000EB0A01019801EBE07121
:1029A00005984144401A401E0590E00306D45B465A
:1029B0002146179A059800F05DF8054414980078B0
:1029C00018B15A46179990476D1CE00324D55B4611
:1029D0002146179A059800F04DF805441CE004982C
:1029E000002807DBDDE90301884203DD0098405C35
:1029F000179901E0179930205A469047049805F13D
:102A00000105401C04900198401E019004D12E2025
:102A10005A46179990476D1CBAF10001AAF1010AB4
:102A2000DDDC05E017F8010B5A46179990476D1C3D
:102A3000B8F10001A8F10108F4DC5B462146179AC1
:102A40000598ABE62D0000002B00000020000000E0
:102A50002DE9F041044600251E461746880404D49B
:102A600005E039462020B0476D1C641EF9D5284684
:102A7000BDE8F0812DE9F041044600251E46904650
:102A8000C80301D5302700E02027880404D505E0DD
:102A900041463846B0476D1C641EF9D52846BDE84E
:102AA000F0810A68531C0B60107070472DE9F84FD5
:102AB00004460D4621F0004000917349814211DC2B
:102AC0007249884201DC06D12CB120462946BDE876
:102AD000F84FFFF75DBB6E48002DCCBF6D496E49C6
:102AE000BDE8F88F6D49814211DD6D498142D8BF43
:102AF0004FF0FF366DDD20462946FFF7D7FA042850
:102B000008BFFFF757FB20462946BDE8F88F654907
:102B1000654F25F00045814233DD6449814219DD6E
:102B2000002632464FF0804320462946FDF79BFBA6
:102B300080468A46012220462946FDF71CFD0022D8
:102B40003B46FDF731FC42465346FDF7A5FC0446E3
:102B50000D463EE001260022BA463B462046294665
:102B6000FDF781FB80460F4600225346204629464A
:102B7000FDF71AFC42463B46FDF78EFC04460D4627
:102B800027E04B4981421BDDDFF828A10226002205
:102B9000534620462946FDF70DFC00223B46FDF733
:102BA00062FB80460F460022534620462946FDF729
:102BB000FBFB42463B46FDF76FFC04460D4608E032
:102BC000032622462B4600203B49FDF765FC0446C0
:102BD0000D4622462B4610461946FDF7EBFB8B4669
:102BE000824602460B46FDF7E5FB074602463348A0
:102BF00088460B4606217844FFF76CFA52465B463E
:102C0000FDF7D8FB82462E488B463A4643460521BF
:102C10007844FFF75FFA3A464346FDF7CBFB02469E
:102C20000B46002E504659460CDAFDF71CFB224697
:102C30002B46FDF7BFFB01B022462B46BDE8F04F07
:102C4000FDF7B5BBFDF70FFB22462B46FDF7B2FBA8
:102C50001C4A7A4402EBC603D3E90023FDF7A4FB28
:102C600022462B46FDF7A0FB174A7A4402EBC60327
:102C7000D3E90023FDF79BFB009A002AB8BF81F03F
:102C80000041BDE8F88F0000000010440000F07F14
:102C9000182D4454FB21F93FFB21F9BF0000DC3F14
:102CA0000000203E0000F33F0000F03F0000E63F40
:102CB000008003400000F83F0000F0BFDE0E00007F
:102CC0009C0E00003A0E0000020E000008B5FEF750
:102CD0004BFAFFF792F8FFF71DF8FFF757F8C748D0
:102CE000C549002601604FF4E131C0E901160C210D
:102CF000C660C0E904618661C661FEF78EFD00B161
:102D0000FEE7BF4C2670BD480A23012221785438C3
:102D1000FDF7ACFF00287DD02078401CC0B22070A9
:102D2000FF28F0D3B64D6B201835022328706E7043
:102D30000A26B24800962A4621785438FEF74EF902
:102D40001C20287008206870AC48009602232A4690
:102D500021785438FEF742F9A94D3B201835A84C8C
:102D600028700A27A548009701232A46217854385D
:102D7000FEF734F964200090A04806236A1C2178ED
:102D80005438FEF723F8B5F8010040BA6080B5F872
:102D9000030040BAA080B5F8050040BA00B2E08058
:102DA000FDF705FC6FF00D02FDF7E5FB4FF0804AE3
:102DB0000022534600F03EF906468846B4F9040066
:102DC000FDF7F5FB6FF00D02FDF7D5FB0022534632
:102DD00000F030F932464346FDF745FA00F016FEA2
:102DE00006468846B4F90200FDF7E1FB0022854B58
:102DF000FDF7E0FA32464346FDF74EFBFFF756FE7D
:102E0000DFF804B2814B5A46FDF7D4FAFDF7F3FB25
:102E10007A4E00E0EAE0A4363060B4F90600FDF72F
:102E2000C6FB6FF00D02FDF7A6FB0022534600F033
:102E300001F980468946B4F90200FDF7B8FB6FF04E
:102E40000D02FDF798FB0022534600F0F3F84246CE
:102E50004B46FDF708FA00F0D9FD80468946B4F9E3
:102E60000400FDF7A4FB6FF00D02FDF784FB424662
:102E70004B46FDF711FBFFF719FE5A46634BFDF772
:102E800099FAFDF7B8FB7060432028700097012382
:102E90002A462178A6F1F800FEF7A0F8009706234D
:102EA0006A1C2178A6F1F800FDF790FF35F8010FB4
:102EB00040BA00B22081698849BA09B26181884666
:102EC000A98849BA0FB2A781FDF771FBDFF84091DD
:102ED00000224B46FDF7E0FAFDF78DFB06F10C05ED
:102EE00028604046FDF763FB00224B46FDF7D4FA0D
:102EF000FDF781FB68603846FDF759FB00224B4621
:102F0000FDF7CAFAFDF777FBA860FDF709FE6169D6
:102F1000401A4FF47A71B0FBF1F0FDF743FB2061EA
:102F2000FDF7FEFD60613068FDF752FB394A3A4B10
:102F3000FDF740FA8A4621690746564628688B46BF
:102F4000FDF75FF905F10C010968FDF702F9FDF7DE
:102F50003FFBDFF8C880DFF8C89042464B46FDF7DC
:102F600029FA3A463346FDF77EF9FDF744FB05F1B1
:102F70000C0106460860544659466868FDF741F959
:102F800005F10C014968FDF7E4F8FDF721FB424625
:102F90004B46FDF70FFA3A462346FDF764F9FDF775
:102FA0002AFB05F10C0148605946A868FDF729F98C
:102FB00005F10C018968FDF7CCF805F10C0188607A
:102FC0003046FDF705FB02460B4616A1A5F1700041
:102FD000FFF758F8A5F17000FDF7B4F882B264234A
:102FE000A5F170010548FEF775FCB5E64FF40051F8
:102FF0000F48FDF78BFD95E6004400408800002057
:1030000000000020000010BFAEB6627FD9A54C4082
:10301000006060407B14AE47E17A943F5C8FC2F55C
:10302000285CEF3F416E67756C6F3A25660A0000B9
:10303000001001402DE9F04D1D460C4698B0174692
:1030400021F0004123F00043002814BF4FF0010C91
:103050004FF0000C0CEB440CFE4A0CEB02064FEA5E
:10306000620C66452BD33E0018BF012606EB4506D1
:103070001644F94A964222D3F84A53EA070C02D082
:10308000944205D148B918B000201146BDE8F08D32
:10309000002808BF4FF0000C01D04FF0010C0CEBE2
:1030A000440212F5001F0AD8002F14BF4FF0010C84
:1030B0004FF0000C0CEB450212F5001F07D918B0B9
:1030C0003A462B462146BDE8F04DFFF764B8002292
:1030D000DFF88CA3002CB8BF534526DADFF884C391
:1030E0006345A8BF022220DADFF870C39C451CDCD0
:1030F000DFF874C30CEB235CBCF1140F08DDCCF1DA
:10310000340627FA06FC0CFA06F6BE420DD108E09A
:103110005FB9CCF1140623FA06FC0CFA06F69E42BF
:1031200003D10CF00102C2F1020251EA000C19D1E4
:10313000002D17DA002C18BF022A01D0012A07D06F
:103140000220FFF74FF818B0BDE8F04DFFF718B8B0
:103150000220FFF747F8FFF713F818B081F000419D
:10316000BDE8F08DB7F1000C6CD1534525D104F1C9
:10317000804212F5801201BF00280020B74918B024
:1031800008BFBDE8F08DB548884207DC002DA1BF1F
:103190006046294618B0BDE8F08D07E0281E05DA24
:1031A00080F0004118B06046BDE8F08DAF49794429
:1031B000D1E9000118B0BDE8F08DDFF8A0C2634589
:1031C00025D1002D1FDA19B1514512D1D8B909E026
:1031D000002840F0EC82A24A214618B062F31E019A
:1031E000BDE8F08D0020214618B060F31E01BDE857
:1031F000F08D08DA18B02346BDE8F04D02460020F5
:103200006146FDF749B918B02146BDE8F08D51453A
:1032100018DAB5F1804F0DD0A5F1005CBCF1FF5C70
:1032200010D1B4F1000C0DDB18B06146BDE8F04DD3
:1032300000F0ECBB234618B00246BDE8F04D19463D
:10324000FDF7B8B8060024F0004C3BD1D9B1514588
:1032500033D1002C06DD002DA1BF0020514618B04F
:10326000BDE8F08D002C01DD002D1BDB002C13DAF6
:10327000002D11DB012A4FF0000014BF78497C4972
:1032800018B0BDE8F08D022A18BF002C0AD0012A20
:1032900008D1002C06DA0AE0002CB8BF002D11DAA4
:1032A000012A04D0002018B00146BDE8F08D18B006
:1032B00000204FF00041BDE8F08DA1F14050B0F189
:1032C0007F601AD0012000EBE47050EA020421D0A4
:1032D000624C521E4FF0000B104304BF4FF0000B26
:1032E000644C654883427CDD644A654893421FDD37
:1032F000884217DB002D25DB37E0002C00DA4AB1CD
:10330000022A0CBF01204FF0FF3018B0BDE8F04D8D
:10331000FDF74DB90120FEF765FF18B0BDE8F04D8F
:10332000FEF73BBF4D4A8A4202DC002D0ADC1CE05E
:10333000814202DA002D18DA04E0484B994220DD80
:10334000002D12DD0220FEF74DFFFEF72CFF054693
:103350000E460022534658462146FDF72BF818B07A
:1033600066F31E012846BDE8F08D0220FEF73AFF05
:10337000FEF720FF0A46214618B062F31E01BDE8A1
:10338000F08D002230466146FDF70EF880460E466D
:103390006FF00102FDF7EFF84FF05532394BFDF7B2
:1033A00006F842463346FDF705F80022364BFCF797
:1033B000FEFF824642463346049110461946FCF70A
:1033C000F9FF5246049BFCF7F5FF8A4600904FF048
:1033D000C0422E4B40463146FCF7ECFF2C4A2B4BAB
:1033E00000E027E0CDE9060151460098FCF7E2FF36
:1033F00082460191274A284B40463146FCF7DAFFC6
:103400005246019BFCF7D0FF82460B4602460591CF
:10341000DDE90601FCF727FFDDE9062300268846E3
:103420003046FCF7C1FF5246059BFCF7C0FF024641
:1034300000F07EB90020B1F5801F07DA3522304652
:103440006146FDF798F806466FF0340000EB215016
:1034500024E00000FFFF1F00FFFF0F000000F03F0F
:103460000000F07F0000404301FCFFFFDE09000088
:103470000000F0FF0000F0BF0000E0410000F0435A
:10348000FFFFEF3F5555D53F0000E03F4715F73FA1
:10349000FE822B6544DF5DF80BAE543EA0F2FF3098
:1034A0000190C1F3130040F07F6141F0405102915F
:1034B000FE498842D8BF002004DDFD498142C8BFD3
:1034C000012001DD0D9008E000200D900198401CC6
:1034D00001900298A0F5801002900299F548784476
:1034E0000B910D9900EBC100D0E900230F933046FA
:1034F0000A920B99FCF758FFCDE90601DDE90A2194
:1035000030460F9BFCF7AFFE02460B460020EA490F
:10351000FCF7C2FF059102460B460090DDE906016B
:10352000FCF748FF1490E5488A464FF000087844BD
:103530000299006812904FF0005040EA61010D9826
:103540000F9B01EB804000F5002109910A9A129827
:10355000FCF72AFF32460B9BFCF729FF42465346F5
:10356000FCF728FF0646029140465146099B129AF5
:10357000FCF720FFDDE90623FCF719FF3246029B2A
:10358000FCF712FF059B009AFCF714FF0091149AB8
:103590000490534610461946FCF70CFF06460246B7
:1035A000C7480B46029106217844FEF793FDCDE90A
:1035B0000510029B324610461946FCF7FBFEDDE97A
:1035C0000532FCF7F7FE059106465346404619467C
:1035D000149AFCF748FE009B049AFCF7EBFE324677
:1035E000059BFCF740FECDE90510424653461046C8
:1035F0001946FCF7DFFE0022B24B02910A90FCF75D
:1036000032FEDDE90532FCF72EFE0E464246AD4B9A
:103610004046FCF7C9FE029B0A9AFCF7C5FEDDE9AD
:103620000532FCF7C4FE424602910A90334610462A
:103630005146FCF7BFFECDE906015346149A0299A4
:103640000A98FCF7B7FE8A46029033464246009934
:103650000498FCF7AFFE5346029AFCF704FE82463C
:103660000B4602460591DDE90601FCF7FCFDDDE9AC
:103670000623002088460646FCF796FE5246059B28
:10368000FCF795FE824609914FF060428E4B304622
:103690004146FCF78FFE049006918C4A8A4B5046B7
:1036A0000999FCF787FE82460291894A894B304688
:1036B0004146FCF77FFE5246029BFCF7D4FD864B49
:1036C0007B440D9A03EBC203D3E90023FCF7CBFD47
:1036D0000E9007910198FCF76AFF0591DDE906134A
:1036E00082460E9A0498FCF7BEFD7C4A7A440D9BF4
:1036F00002EBC303D3E9002300930292FCF7B3FD6E
:103700005246059BFCF7AFFD0026884652463046E0
:10371000059BFCF749FE009B029AFCF745FE069BC1
:10372000049AFCF741FE079B0E9AFCF740FE024606
:1037300000200B46029038462946FCF73BFE8246A5
:1037400001912B4638461946029AFCF72DFE324667
:103750004346FCF72FFE5246019BFCF784FD0746CB
:103760008A463246434629460298FCF723FE054620
:103770000E463A465346FCF776FD594A8846914232
:1037800021DBA8EB020353EA000210D12A4633469C
:10379000FCF70AFECDE90401524A534B3846514624
:1037A000FCF761FDDDE90423FDF7A6F821D2022034
:1037B000FEF718FDFEF7F7FC0A46214618B062F343
:1037C0001E01BDE8F08D494B28F000429A4210D30B
:1037D000474A08EB020353EA00027FF4C6AD2A46CB
:1037E0003346FCF7E1FD3A465346FDF785F87FF690
:1037F000BCAD0022019228F000403E493E4A01EB58
:103800002051824223DA481C4FF4801121FA00F043
:1038100040443A4AC0F30A517A44394BA1F2FF318D
:10382000CB4020EA0303C0F3130040F48010C1F141
:103830001401C84012680190B8F1000FBCBF4042AB
:10384000019028463146FCF7AFFD05460E462A4654
:10385000334638465146FCF706FD4FF00008424615
:10386000284B40460591FCF7A5FDCDE90601264A07
:10387000264B40460599FCF79DFD009102902A4693
:10388000334640460599FCF78FFD3A465346FCF710
:103890008EFD1F4A1F4BFCF78DFD009B029AFCF723
:1038A000E2FC0746884602460B4635E08E98030048
:1038B0007AB60B00260600000000F03F5E0600000E
:1038C0008C0500000000084009C7EE3FFD033ADC0C
:1038D000F5015B14E02F3EBE6404000028040000E4
:1038E00000009040FE822B654715973C00CC90402D
:1038F00000346F3F01FCFFFF0000E03F7403000055
:10390000FFFF0F00432EE63F396CA80C615C20BE20
:10391000EF39FAFE422EE63FDDE90601FCF7A3FC93
:10392000DDE9062305460E46FCF73EFD3A464346D2
:10393000FCF73DFD0F462A463346009010461946D7
:10394000FCF738FD824602462E4888460B46052184
:103950007844FEF7BFFB52464346FCF72BFD2A4650
:103960003346FCF724FD80468A463B4628463146CE
:10397000009AFCF71FFD3B46009AFCF774FC069189
:10398000009000224FF0804340465146FCF70CFD6A
:103990000F460C904246534628463146FCF70AFD36
:1039A0003B460C9AFCF778FD069B009AFCF7FCFC62
:1039B0002A463346FCF7F8FC0022134BFCF7F7FCD1
:1039C000054601980E4601EB00510815002810DC51
:1039D00028463146019AFCF7CEFDFEF767FB042826
:1039E00008BFFEF7E7FB28463146019AFCF7C3FD06
:1039F00005460B4618B02A4658462146BDE8F04D0C
:103A0000FCF7D8BC140200000000F03F2DE9F041A3
:103A100006460F46FCF707FF041E0D4618BF01209F
:103A2000284320F00040C0F17F6000F1E040C00F6B
:103A30000ED0301C18BF0120384320F00040C0F1E8
:103A40007F6000F1E040C00F04BF0120FEF7CAFB19
:103A500020462946BDE8F08100000000000000007B
:103A60000102030406070809000000000102030424
:103A70004FBB610567ACDD3F182D4454FB21E93F86
:103A80009BF681D20B73EF3F182D4454FB21F93F75
:103A9000E2652F227F2B7A3C075C143326A6813CFB
:103AA000BDCBF07A8807703C075C143326A6913CA6
:103AB000C4EB98999999C9BF711623FEC671BCBF12
:103AC0006D9A74AFF2B0B3BF9AFDDE522DDEADBF7A
:103AD0002F6C6A2C44B4A2BF0D5555555555D53F92
:103AE000FF8300922449C23F6E204CC5CD45B73FAD
:103AF000513DD0A0660DB13FEB0D76244B7BA93F25
:103B000011DA22E33AAD903F000000000000F03FE0
:103B1000000000000000F83F00000000000000006E
:103B20000000004003B8E23F000000000000000079
:103B300006D0CF43EBFD4C3E033333333333E33F07
:103B4000FFAB6FDBB66DDB3F4D268F515555D53F33
:103B500001411DA96074D13F65DBC9934A86CD3F01
:103B6000EF4E454A287ECA3F3E5555555555C53FEF
:103B700093BDBE166CC166BF2CDE25AF6A56113FE1
:103B8000F16BD2C541BDBBBED0A4BE726937663EE3
:103B90000000000000000000B83B0008000000200A
:103BA00034000000C4210008EC3B00083400002071
:103BB0001C050000D42100080000000000000000E7
:103BC00000000000000000000000000000000000F5
:103BD00000000000000000000100000010000000D4
:0C3BE0000000000000A24A0400000000E9
:04000005080000ED02
:00000001FF
