:020000040800F2
:1000000038060020010100085F260008372100089B
:100010005D260008B90A0008F12A00080000000067
:10002000000000000000000000000000832600081F
:10003000BB0A000800000000812600088526000891
:100040001B0100081B0100081B0100081B01000820
:100050001B0100081B0100081B0100081B01000810
:100060001B0100081B0100081B0100081B01000800
:100070001B0100081B0100081B0100081B010008F0
:100080001B0100081B010008F10900081B01000802
:100090001B0100081B0100081B0100081B010008D0
:1000A0001B0100081B0100081B0100081B010008C0
:1000B0001B0100081B0100081B0100081B010008B0
:1000C0001B0100081B0100081B0100081B010008A0
:1000D0001B0100081B0100081B0100081B01000890
:1000E0001B0100081B0100081B010008DFF80CD0F1
:1000F00000F06CFC004800473D370008380600203F
:100100000648804706480047FEE7FEE7FEE7FEE7B1
:10011000FEE7FEE7FEE7FEE7FEE7FEE70D27000845
:10012000ED000008202A04DB203A21FA02F0002129
:10013000704721FA02F3D040C2F1200291400843F7
:1001400019467047421C10F8011B0029FBD1801A88
:100150007047F0B480EA0102D40F4200B2EB410FC5
:1001600002D20246084611464A0042D0C30DDDB213
:10017000C1F3C752AD1A202D35DAC1F3160141F48F
:10018000000204B15242C5F1200602FA06F12A41EA
:100190001044B3EBD05F23D0C4B1012DA0EBC3500A
:1001A00009DCF0BC4FF0004202EAC352DBB200F5BA
:1001B000000000F0FFBA400000F1807000EBC35077
:1001C000A0F1807040EAD170490009E0490841EA95
:1001D000C071A0EBC35000F50000400800EBC35015
:1001E000F0BC00F0DEBA6142012202EB4101001BCB
:1001F000F6E7F0BC704781F00041AAE780F00040CC
:10020000A7E780EA010210B502F00043400022D0C7
:100210004A001FD0010E01EB1261C0F35600C2F379
:10022000560240F4000042F40002A0FB0220000449
:100230007F39140400D0401C50EA124001D4400021
:10024000491EC2B20C0604EBD010401C4008802AA4
:1002500002D003E0002010BD20F00100002900DAE8
:100260000020184310BD30B480EA010202F00045BE
:1002700030F0004221F0004013D090B1C30DD40DF6
:10028000C2F31601C0F31600E41A41F4000140F471
:1002900000027D34914201D3641C00E04900002C2F
:1002A00002DA30BC002070474FF400000023914276
:1002B00001D3891A034340084FEA4101F7D151B1F4
:1002C000914202D14FF0004105E002D24FF001010E
:1002D00001E06FF0010103EBC450284430BC00F092
:1002E00060BA2DE9FE4F804681EA0300C00F0C463C
:1002F000009021F0004123F00045B8EB0200A94135
:1003000005D24046214690461C460B46024623F045
:100310000040104347D0270DC7F30A00C3F30A512A
:100320000290401A019040286BDAC3F3130040F4A6
:10033000801B0098924620B10023D2EB030A63EBA6
:100340000B0B01985946C0F14002504600F008FAE4
:1003500006460D4650465946019A00F010FA10EB39
:1003600008006141002487EA115284EAE7731A43C6
:1003700040D0009A62B3019A012A4FEA075215DC75
:10038000001B61EB02014FF0004202EA0752CDE987
:100390000042001C41F5801132462B4600F047FA1E
:1003A00003B0BDE8F08F40462146F9E7001B61EB42
:1003B0000201001C41F5801300185B412018A2F5D2
:1003C000001747EB030140EAD570B6196D4111E003
:1003D0006D084FEA360645EAC0754FEA0752001B22
:1003E00061EB0201001C41F5801149084FEA300021
:1003F0000019514132462B4603B0BDE8F04F00F0E2
:1004000007BA0098012240000023D0EB020263EB00
:10041000E073009821464FEAE074B8EB000061EB0E
:100420000401E9E783F000435BE781F0004158E70E
:100430002DE9FE4F81EA030404F0004421F000415D
:1004400000944FF0000B23F0004350EA01045ED00B
:1004500052EA03045BD0C3F30A54C1F30A552C4497
:10046000A4F2F3340194A0FB0254C1F3130141F44C
:100470008011C3F3130343F4801301FB024400FB18
:10048000034E840A970A44EA815447EA8357A4FB3F
:10049000076802958D0A05FB07854FEA932C04FB3C
:1004A0000C542705029D4FEA065847EA1637B5EB6C
:1004B00008056EEB070C870E920E47EA811742EA99
:1004C0008312A7FB0201B6EB0B0164EB00042B0DBA
:1004D00043EA0C335E1844EB1C50DA465146E7FB06
:1004E0000201C5F313044FEA0B3343EA14534FEAF6
:1004F0000432019C43EA0603A4F10C040294009C1C
:10050000CDE900B400F093F903B0BDE8F08F00200E
:100510000146F9E72DE9F04D81EA030404F0004BB0
:1005200021F0004514464FF0000A23F0004150EA44
:10053000050220D054EA01021DD0C5F30A57024635
:10054000C5F31303C1F31300C1F30A5640F4801539
:1005500043F48013A7EB0608101BD64608F2FD38BB
:1005600073EB050002D308F1010801E092185B412A
:10057000B8F1000F03DA00200146BDE8F08D00203D
:100580004FF48011064684460EE0171B73EB0507F7
:1005900005D3121B63EB050306434CEA010C490823
:1005A0004FEA300092185B4150EA0107EDD152EA60
:1005B000030012D082EA040083EA0501084305D053
:1005C000101BAB4106D20122002306E000224FF0AF
:1005D000004302E06FF0010253101AEB06004CEBEF
:1005E000085110EB0A0041EB0B01BDE8F04D00F0A3
:1005F0000FB970B521F0004303430CD0C1F30A5585
:100600000024D5EB040564EB0403D617AD1AB341FF
:1006100002DB0020014670BD201841EB025170BD85
:1006200096230022114600F0C5B80EB5C10F80EA2E
:10063000E0700844CA07002140F233438DE80E0001
:100640000A460B4600F0F3F803B000BD20F000406E
:10065000C10DC0F3160040F400007F2901DA00202C
:100660007047962903DCC1F19601C840704796395E
:100670008840704700F0004230F000400AD0C10DC1
:1006800001F56071C0F3160042EA0151C20840074B
:100690001143704700200146704701F0004330B419
:1006A00021F0004150EA010206D00A0DA2F5607265
:1006B000C1F31301002A02DC30BC00207047440F54
:1006C00044EAC104C100E01830BC00EBC25000F0A5
:1006D00068B830B50B46014600202022012409E00D
:1006E00021FA02F59D4205D303FA02F5491B04FAEB
:1006F00002F52844151EA2F10102F1DC30BD2DE9FE
:10070000F05F0546002092469B4688460646814695
:1007100040241BE02846414647462246FFF702FD9B
:1007200053465A46C01A914110D3114618462246E4
:1007300000F016F82D1A67EB01084F4622460120FB
:10074000002100F00DF817EB00094E41201EA4F126
:100750000104DFDC484631462A464346BDE8F09FA7
:10076000202A04DB203A00FA02F100207047914071
:10077000C2F1200320FA03F3194390407047202A66
:1007800006DBCB17203A41FA02F043EAE07306E0B9
:1007900041FA02F3D040C2F12002914008431946C9
:1007A00070470029A8BF7047401C490008BF20F0CF
:1007B0000100704710B4B0FA80FC00FA0CF050EA67
:1007C000010404BF10BC704749B1CCF1200421FAE8
:1007D00004F411FA0CF118BF012121430843A3EBE3
:1007E0000C01CB1D4FEA00614FEA102042BF0020F0
:1007F00010BC704700EBC35010440029A4BF10BCCC
:100800007047401C490008BF20F0010010BC704731
:1008100010B5141E73F1000408DA401C41F1000108
:1008200092185B411A4301D120F0010010BD2DE95F
:10083000F04D92469B4611B1B1FA81F202E0B0FA56
:1008400080F220329046FFF78BFF04460F4640EAC5
:100850000A0041EA0B0153465A46084313D0114699
:1008600053EA010019D0C8F140025046FFF75AFC84
:1008700005460E46504659464246FFF771FF08436B
:1008800005D0012004E020463946BDE8F08D002067
:10089000054346EAE0762C4337430A986305E40AA9
:1008A000A0EB08000022FD0A44EA47540A3002D5B2
:1008B00000200146E9E7010510196941DDE9084515
:1008C00000196941BDE8F04DA2E72DE9F04D002384
:1008D0001A461B1A8A4103DB00200146BDE8F08D51
:1008E000C1F30A52C1F3130141F480154FF0000B1C
:1008F000D10702D100186D41521E0027044640F274
:10090000FF11384601EB620A3E468046024600204F
:100910004FF48011FFF706FCC2197141BB1846EB7A
:100920000100B4EB030C75EB000C04D3E41A65EB87
:10093000000517460E46241908F101006D41804656
:100940003428E3DDF91946EB0600091BA84103D260
:100950004FF0FF32134601E0002213461BEB070065
:1009600046EB0A51BDE8F04DFFF752BFC1F30A5202
:10097000C1F3130140F2FF3341F480119A4202DACD
:1009800000200146704740F233439A42A2F23342BC
:1009900002DC5242FFF7C6BBFFF7E2BE30B5041ED1
:1009A00071F1000404DB4FF00044404264EB0101AC
:1009B000141E73F1000405DB1C464FF00043524245
:1009C00063EB0403994208BF904230BD064C074DCB
:1009D00006E0E06840F0010394E80700984710340F
:1009E000AC42F6D3FFF786FB1047000830470008FB
:1009F000014800F0F4B800005800002070B504462B
:100A000000688168C943C9071CD1816821F00101D0
:100A1000816000F059FB05460FE000BF00F054FB79
:100A2000401B022809D9A06A40F01000A062E06AC9
:100A300040F00100E062012070BD20688068C04382
:100A4000C007EBD0002070BDF8B500260446009624
:100A500000688168C943C90728D0816841F0010155
:100A60008160134813490068B0FBF1F000E0401EBC
:100A700000900028FBD100F027FB054611E000BFE5
:100A800000F022FB401B02280BD9A06A40F01000A6
:100A9000A062E06A40F00100E06284F82460012076
:100AA000F8BD20688068C043C007E9D10020F8BDC8
:100AB0005000002040420F00FEE7704770470000E2
:100AC000F8B50024009490F824202546012A12D07D
:100AD000012280F824204A681F23072A0DD20668C5
:100AE000776B521E02EB820293409F430B68934048
:100AF0001F43776319E00220F8BD06680D2A0AD269
:100B0000376BD21F02EB820293409F430B689340E6
:100B10001F43376309E0F76A0D3A02EB8202934004
:100B20009F430B6893401F43F7620A6807230668D8
:100B30000A2A0AD3F7680A3A02EB420293409F431B
:100B40008B6893401F43F76008E0376902EB42026D
:100B500093409F438B6893401F4337610A68102A74
:100B600001D0112A20D1124B02689A4217D1936802
:100B70001B0219D4936843F4000393600968102999
:100B800012D10C490C4A0968B1FBF2F101EB810169
:100B9000490000E0491E00910029FBD104E0816A70
:100BA00041F020018162012480F824502046F8BDE4
:100BB000002401405000002040420F0010B50168A1
:100BC0000968890705D500F007F8FFF729FD0149F5
:100BD000486210BD000000200068C06C704710B56E
:100BE000044600684168890626D50168890723D52F
:100BF000A16AC90603D4A16A41F40071A1628168A7
:100C0000C1F34241072910D1E16871B9416821F06F
:100C100020014160A06A20F48070A062A06AC00434
:100C200003D4A06A40F00100A0622046FFF7C6FF8F
:100C300021686FF0120008602068416809062ED50F
:100C4000016849072BD5A16AC90603D4A16A41F4FA
:100C50000051A1628168C1F30231072909D04168BE
:100C6000490515D48168C1F34241072910D1E168D3
:100C700071B9416821F080014160A06A20F4805080
:100C8000A062A06AC00503D4A06A40F00100A0627F
:100C90002046FFF713FF21686FF00C000860206802
:100CA000416849060DD50068C0070AD0A06A40F423
:100CB0008030A062204600F093F821686FF00100B8
:100CC000086010BD2DE9F0414FF0000704003D46DB
:100CD0007ED0A06A002628B9E66284F82460204607
:100CE00000F080F82046FFF789FEA16AC90600D40B
:100CF00020B1A06A40F01000A06269E0A16A21F46E
:100D0000885141F00201A1626268E169E3680A4327
:100D100047EA43010A43A1684FF48077B94209D0FA
:100D2000012907D05FF00001D4F814C0BCF1010F15
:100D300002D00AE03946F7E7F3B1A36A43F0200393
:100D4000A362E36A43F00103E3622368D3F804C0BB
:100D50002CF4694C4CEA010CC3F804C021688B6880
:100D6000DFF870C003EA0C0313438B60A168B9423B
:100D70000BD0012909D00CE0DFF85CC0A3690CEBB3
:100D800043330B4343F40061DFE7218A0D05A5F5EA
:100D900080152168CB6A23F470032B43CB62216852
:100DA00089680E4B1940914208D1E662A16A21F090
:100DB000020141F00101A162BDE8F081A06A20F0CA
:100DC000020040F01000A062E06A40F00100E06222
:100DD0000120F1E7FDF7E1FF00E0FFFFFE0E1FFF3E
:100DE0007047000000B500680F4985B0884218D1EF
:100DF0000E48816941F4007181618069694600F49F
:100E0000007004907020009003200190084800F0CA
:100E100077F800221146122000F064FC122000F046
:100E200055FC05B000BD0000002401400010024048
:100E30000008014070B5044690F8240001280DD048
:100E4000012084F824002046FFF7FEFD02004FF049
:100E5000000005D084F82400104670BD022070BD4B
:100E6000A16A40F60163994341F48071A162224D69
:100E700023682249AB4218D10E6816F4702F14D0A3
:100E8000A66A46F48016A6620E68760505D5A66A9F
:100E900026F4005646F48056A662A66AF6040AD5E1
:100EA000E66A26F00606E66206E0A66A26F48016E2
:100EB000A6625E68E9E7E06284F824006FF0020051
:100EC00018602068436843F020034360206883680B
:100ED000C3F34243072B05D1A84208D1096811F496
:100EE000702F04D0816841F480118160B4E781687B
:100EF00041F4A001F9E7000000280140042401406A
:100F00002DE9F84FDFF890A100220AF1040B1446F6
:100F100001274FF00F090BF1040E00BF0B6807FA11
:100F200004F52B40AB4274D1DFF870C14E68A6EBDC
:100F30000C0866452BD00DDC032E34D005DC36B30F
:100F4000012E19D0022E2FD11BE0112E16D0122EF9
:100F50002AD119E0B8F5881F19D006DCB8F5803F12
:100F600015D0B8F5801F1FD111E0B8F5001F0ED0C5
:100F7000B8F5041F18D10AE0CA6815E0CA68121D46
:100F800012E0CA6808320FE0CA680C320CE08A68C6
:100F90002AB1012A4FF0080203D0456104E004227F
:100FA00002E0056100E00022FF2B01D8064601E0C7
:100FB00000F104064FEA840501D9A5F12005D6F811
:100FC00000C009FA05F82CEA080C02FA05F54CEA0B
:100FD000050CC6F800C04D68ED0057D5304DAE6920
:100FE00046F00106AE61AD6924F0030605F0010587
:100FF00000952C4D06EB050CDCF80850A6074FEACF
:10100000167809FA08F6B543274EB04202D10026F9
:1010100010E03BE0254EB04201D101260AE0244E0B
:10102000B04201D1022605E0224EB04201D1032692
:1010300000E0042606FA08F62E43CCF808604D6856
:10104000DAF80060ED03554601D51E4300E09E43EB
:101050002E604D68DBF80060AD035D4601D51E4390
:1010600000E09E432E604D68DEF80060ED0275469C
:1010700001D51E4300E09E432E604D68AD020E4D2B
:101080002E6801D51E4300E09E432E60641C102C88
:10109000FFF444AFBDE8F88F0004014000001110D8
:1010A000001002400000014000080140000C014017
:1010B00000100140001401400C0401400AB101611C
:1010C00070470904FBE70000014880687047000092
:1010D0004400002070B504001BD094F83D000025AA
:1010E00020B984F83C50204600F038FA242084F8D7
:1010F0003D002068016821F00101016000F04AFC18
:10110000404A6168914201D83F4900E03F49884226
:1011100001D2012070BD3E492368B0FBF1F1596056
:101120006368934206D94FF4967359434FF47A7328
:10113000B1FBF3F12368491C19626168914210D830
:101140004900401EB0FBF1F2521CC2F30B02042A0C
:1011500001D2042022E0B0FBF1F0401CC0F30B00F0
:101160001CE0A368CBB301EBC10202EB0116421EE7
:10117000B2FBF6F2521C42F48042120536D06BB339
:1011800001EBC10202EB0111401EB0FBF1F0401C6B
:10119000C0F30B0040F4804040F400402168C86177
:1011A000D4E90701084321680860D4E90310084323
:1011B00021688860D4E9050108432168C860206877
:1011C000016841F0010101602564202084F83D00A0
:1011D000256384F83E50002070BD00E008E001EB7C
:1011E0004106421EB2FBF6F2521CC6E70120D5E7CB
:1011F00001EB4101401EB0FBF1F0401CC0F30B00BD
:10120000CAE70000A086010080841E0000093D009E
:1012100040420F002DE9F84F1F4690468A4604468B
:10122000DDF82890FFF750FF054694F83D00202890
:101230007ED11923012278492046009501F071F8EA
:101240000028F5D194F83C00012871D0012084F8E1
:101250003C0020680168C90703D1016841F0010121
:1012600001602068016821F400610160222084F897
:101270003D00102084F83E0000262664C4F8248037
:1012800067856648E062608D20852B464A46514658
:10129000204600F065FF28B1206C84F83C600428EB
:1012A00050D073E0208D5E4F68B1012814D0022821
:1012B000206801681ED041F48061016020684169A6
:1012C000806900909AE02068416981690091016815
:1012D00041F40071016091E02068016821F48061AF
:1012E000016072B62068416981690091016841F42A
:1012F00000710AE041F40061016072B62068416942
:1013000081690091016821F48061016062B675E035
:10131000032850D801280CD002284B464FF0000279
:1013200039462046009512D000F0FBFF70BB13E059
:1013300070E02A464946204601F068F828B1206C42
:10134000202823D00120BDE8F88F20684BE000F072
:10135000E8FFD8B972B61BE02068016821F480610B
:10136000016072B620680169606A421C62620170A5
:10137000208D401E2085608D401E60854B460022DA
:1013800039462046009500F0CCFF08B10320DAE78B
:101390002068016841F40071016020680169606A99
:1013A000421C62620170208D401E2085608D401EAF
:1013B000608562B6C9E72A464946204601F026F80C
:1013C0000028BCD120680169606A421C6262017019
:1013D000208D401E2085608D401E608520684169FB
:1013E000C94349070AD40169606A421C62620170FC
:1013F000208D401E2085608D401E6085208D002838
:1014000086D1202084F83D0084F83E6084F83C605A
:10141000002098E7022096E7020010000000FFFF7E
:10142000040001002DE9F84F1F4690468A46044605
:10143000DDF82890FFF748FE064694F83D00202886
:101440007ED11923012243492046009600F069FF0E
:1014500000287DD194F83C00012879D0012084F83F
:101460003C0020680168C90703D1016841F001010F
:1014700001602068016821F400610160212084F886
:101480003D00102084F83E0000252564C4F8248027
:1014900067853148E062608D208533464A46514673
:1014A000204600F0CDFE28B1206C84F83C50042882
:1014B0004CD00DE0206841698069009030E03246F0
:1014C0004946204600F0D3FF28B1206C042838D0CC
:1014D0000320BDE8F88F606A411C616221680078D2
:1014E0000861608D401E6085208D401E80B2208581
:1014F00021684A69D24352070BD450B1606A421C3A
:10150000626200780861608D401E6085208D401EFB
:10151000208532464946204600F0DCFE0028D4D122
:10152000208D0028CBD154F83D0B016841F40071A7
:101530000160202004F81E09E57765770020C8E7E0
:1015400006E02068016841F4007101600120C0E7F5
:101550000220BEE7020010000000FFFF30B5164D6C
:101560000268122303211548154C85B0AA420ED1FA
:10157000C02203916946CDE90023FFF7C1FCE06971
:1015800040F40010E061E06900F4001011E00D4D3E
:10159000AA420FD14FF4406203916946CDE900237E
:1015A000FFF7AEFCE06940F48000E061E06900F420
:1015B0008000049005B030BD00540040000C014094
:1015C000001002400058004002488168027811442F
:1015D0008160704744000020074810B5016841F061
:1015E00010010160032000F09DF8002000F006F8D3
:1015F00000F024F8002010BD0020024070B50D4D11
:1016000004464FF47A712878B1FBF0F00A49096872
:10161000B1FBF0F000F0A3FB48B9102C07D2002278
:101620002146501E00F05EF800206C6070BD012065
:1016300070BD00004400002050000020214808B583
:10164000816941F001018161816901F0010100912D
:10165000C16941F08051C161C06900F080500090C3
:10166000032000F05FF8002211466FF00B0000F03D
:1016700039F8002211466FF00A0000F033F800221A
:1016800011466FF0090000F02DF800221146501F9E
:1016900000F028F800221146101F00F023F8002265
:1016A0001146901E00F01EF800221146501E00F058
:1016B00019F80548416821F0E06141F0806141601E
:1016C00008BD0000001002400000014000F01F02B1
:1016D000012191404009800000F1E020C0F8001194
:1016E00070470000F0B40E4B1B680C46C3F3022396
:1016F000C3F10705042D00D90425191D072901D2BE
:10170000002300E0DB1E012606FA05F1491E2140F8
:1017100099409E40761E16403143F0BC00F0A0BFB9
:101720000CED00E0064900F0070208684FF6FF03E1
:10173000184040EA0220034A104308607047000046
:101740000CED00E00000FA052DE9F84305460078AD
:10175000354CC00754D0E0690026C00008D4E069C9
:1017600040F08050E061E069012600F08050009078
:101770002E480168C90512D40168804641F4807181
:101780000160FFF7A1FC074605E000BFFFF79CFCE6
:10179000C01B642823D8D8F80000C005F6D5206AFD
:1017A00010F4407021D0A98801F4407181421CD00E
:1017B000206A1F49012220F440700A6000220A605A
:1017C0002062C00711D0FFF77FFC074641F288383E
:1017D00008E000BFFFF778FCC11B414502D9032098
:1017E000BDE8F883206A8007F4D5206A696820F490
:1017F0004070084320621EB1E06920F08050E06133
:101800002878800705D56068A96820F4404008431F
:1018100060602878C00605D56068E96820F480001B
:10182000084360600020DBE70010024000700040C9
:10183000400442422DE9F047DFF83C8105460E4660
:10184000D8F8000000F00700B0420CD2D8F8001021
:1018500021F007013143C8F80010D8F8000000F06B
:101860000700B04263D12878444C800705D56068F2
:10187000A96820F0F000084360602878C00745D0D0
:101880006868012816D02168022816D08907002927
:101890004DDA616821F0030101436160FFF714FC38
:1018A0006968074641F2883001290FD00229814634
:1018B00019D027E021688903E9E78901E7E700BF3C
:1018C000FFF702FCC11B494501D918E08146606859
:1018D000C0F381000128F3D118E000BFFFF7F4FB4B
:1018E000C11B49450BD86068C0F381000228F5D1BF
:1018F0000CE000BFFFF7E8FBC11B494502D90320FC
:10190000BDE8F087606810F00C0FF3D1D8F8001034
:10191000404601F00701B1420BD9016821F00701EF
:1019200031430160006800F00700B04201D001209F
:10193000E6E72878400705D56068E96820F4E060AC
:10194000084360602878000706D56068296920F49C
:10195000605040EAC100606000F03CF86168084AED
:10196000C1F30311515CC840064908600020FFF72D
:1019700045FE0020C4E700000020024000100240A5
:10198000D045000850000020014800687047000062
:10199000500000200448054900684968044AC1F322
:1019A0000221515CC84070475000002000100240E6
:1019B000E04500080448054900684968044AC1F345
:1019C000C221515CC8407047500000200010024006
:1019D000E045000812A185B00FC98DE80F0014A0E2
:1019E000144A006804905168134801F00C03042B5A
:1019F00010D0082B0ED1C1F38343C9031DF8030097
:101A00000AD5516804AAC1F34041515C0A4A5043C7
:101A1000B0FBF1F005B0704708494843FAE7000011
:101A200002030405060708090A0B0C0D0E0F10101F
:101A3000010200000010024000127A0000093D007F
:101A40002DE9F84F04460078B94DC00748D06868C2
:101A5000C0F38100012807D06868C0F38100022824
:101A600009D16868C00306D52868800338D5606846
:101A700000286FD034E06068B0F5803F0BD010B123
:101A8000B0F5A02F11D0286820F480302860286895
:101A900020F4802002E0286840F4803028606068EC
:101AA00088B1FFF711FB064609E0286840F4802062
:101AB0002860F0E7FFF708FB801B642875D82868CA
:101AC0008003F7D50CE0FFF7FFFA064605E000BFFC
:101AD000FFF7FAFA801B6428F0D828688003F7D44F
:101AE0002078944E80074FF001094FF000083BD555
:101AF000686810F00C0F07D06868C0F381000228F6
:101B000009D16868C00306D42868800714D5206905
:101B100001281FD110E02069B0B1C6F80090FFF78E
:101B2000D3FA074605E000BFFFF7CEFAC01B022834
:101B3000C4D828688007F7D52868616920F0F800C4
:101B400040EAC10028600FE0C6F80080FFF7BCFA49
:101B5000074606E0E9E000BFFFF7B6FAC01B02281F
:101B600023D828688007F7D4207800072CD572483E
:101B7000A169D9B1C0F80090FFF7A6FA074604E0C2
:101B8000FFF7A2FAC01B02280FD8686A8007F7D5B2
:101B90006A484FF4FA510068B0FBF1F0009000BFC2
:101BA0000098411E0091FAD20EE080E0C0F800805B
:101BB000FFF78AFA074604E0FFF786FAC01B0228FF
:101BC00075D8686A8007F7D42078400760D5E8693F
:101BD0000027C00008D4E86940F08050E861E86957
:101BE000012700F08050009055480168C90513D4C2
:101BF0000168834641F480710160FFF765FA82460F
:101C000006E000BFFFF760FAA0EB0A0064284ED898
:101C1000DBF80000C005F5D5E06801280AD008B15E
:101C2000052813D0286A20F001002862286A20F0D5
:101C3000040002E0286A40F001002862E06841F2F6
:101C4000883B98B1FFF740FA82460BE0286A40F0E3
:101C500004002862EEE700BFFFF736FAA0EB0A01A6
:101C600059455AD8286A8007F6D50CE0FFF72CFAB8
:101C7000824605E0FFF728FAA0EB0A0159454CD847
:101C8000286A8007F6D41FB1E86920F08050E86127
:101C9000E06988B36968C1F38101022945D002284F
:101CA000C6F8608004D0FFF70FFA044638E034E04D
:101CB000FFF70AFA074604E0FFF706FAC01B0228FE
:101CC0002BD828688001F7D4206AB0F5803F05D171
:101CD0006868A16820F4003008436860D4E908010E
:101CE0000843696821F4741108436860C6F860907D
:101CF000FFF7EAF9044606E015E000BFFFF7E4F954
:101D0000001B022809D828688001F7D50BE000BF26
:101D1000FFF7DAF9001B022802D90320BDE8F88F8B
:101D200028688001F4D40020F8E70120F6E70000DD
:101D30000010024000004242800442425000002055
:101D4000007000404FF0E0210428086903D020F023
:101D500004000861704740F00400FAE7704710B5CE
:101D6000401EB0F1807F01D3012010BD4FF0E02470
:101D700060610F21601700F073FC0020A061072054
:101D80002061002010BD10B5FFF7E8FF10BD10B5B1
:101D900090F83C20012A25D0012280F83C20CA6816
:101DA0008C6822F4407222434C6822F48062224301
:101DB0000C6822F4006222430C6922F48052224310
:101DC0004C6922F4005222438C6922F4804222435F
:101DD00022F40041026800232143516480F83C3022
:101DE000002010BD022010BD30B590F83C20012A23
:101DF00020D0012280F83C20022380F83D30036887
:101E00005C6824F070045C6003685C680D682C43B7
:101E10005C6003689C6824F080049C6003689C6894
:101E200049680C439C6080F83D20002180F83C10FC
:101E3000084630BD022030BD1FB500680649884203
:101E400008D1801500900220019003906946034854
:101E5000FFF756F81FBD0000002C014000080140AC
:101E600070B5044690F83C000D4601280DD00126BF
:101E700084F83C60022084F83D0042B1042A18D066
:101E8000082A2AD00C2A4DD139E0022070BD2068E2
:101E900000F0A2FC2068816941F00801816120689E
:101EA000816921F004018161206881692A691143F7
:101EB00011E0206800F0B8FC2068816941F40061FD
:101EC00081612068816921F4806181612068816974
:101ED0002A6941EA0221816124E0206800F0D0FCF7
:101EE0002068C16941F00801C1612068C16921F021
:101EF0000401C1612068C1692A69114311E02068A9
:101F000000F0EAFC2068C16941F40061C161206809
:101F1000C16921F48061C1612068C1692A6941EA0F
:101F20000221C16184F83D60002084F83C0070BD4E
:101F300010B5040003D094F83D0010B107E0012073
:101F400010BD002084F83C00204600F00DF802206F
:101F500084F83D00211D206800F0FCFB012084F87E
:101F60003D00002010BD000008B500680649884209
:101F700008D10648816941F400618161806900F4FB
:101F80000060009008BD0000002C014000100240DD
:101F900010B504460068012200F012FC07492068D1
:101FA000884203D1416C41F40041416420680168DA
:101FB00041F001010160002010BD0000002C014033
:101FC00070B5040004D094F83900002510B106E083
:101FD000012070BD84F83850204600F023F82420FA
:101FE00084F839002068C16821F40051C16020469E
:101FF00000F094FC2068016921F49041016120689F
:10200000416921F02A0141612068C16841F4005111
:10201000C160E563202084F8390084F83A0000208C
:1020200070BD000010B50068114986B088421CD10F
:102030001048C16941F40031C161C0690E4C00F41F
:1020400000300490042000900220019003200390AF
:1020500069462046FEF754FF00210820CDE9000123
:10206000029169462046FEF74BFF06B010BD000006
:102070000044004000100240000801402DE9F843F0
:10208000044690F839001F4616460D46202850D1C8
:10209000A5B19EB194F8380001284AD0012084F8F7
:1020A00038004FF00008C4F83C80212084F8390043
:1020B000FFF70AF8A6848146E68426E00120BDE801
:1020C000F883E08C401EE084A0684B46B0F5805F4A
:1020D0004FF000024FF080012046009703D000F03F
:1020E000D5FCE8B90DE000F0D1FCC8B9288821681A
:1020F000C0F308004860206908B16D1C05E0AD1C04
:1021000003E0216815F8010B4860E08C0028D8D165
:102110004B46002240212046009700F0B7FC08B152
:102120000320CCE7202084F8390084F83880002090
:10213000C5E70220C3E7FEE701684A69D2435205BA
:102140000CD46FF480624A6104210164002140F8DC
:10215000301F202242730173012070470020704716
:102160002DE9F84F0446C06A1E4692460D46216886
:102170000A6842F480620A60042807D0012805D06A
:1021800010F5803F02D0206B112804D1206801682F
:1021900041F4807101604FF001185346002241461E
:1021A0002046009600F0BDF8B8BB206908F101098F
:1021B000B0F5804F12D00620216800EAD51747F00D
:1021C000F00008613346524608F10701204600F04E
:1021D000D9F838B1206C04282FD01EE0E8B240F0C6
:1021E00001001FE02168E8B20861334652464946C3
:1021F000204600F0C7F80028ECD1206841698169C9
:102200000091016841F4807101605346002241460B
:102210002046009600F085F810B10320BDE8F88F45
:1022200047F0F1002168086133465246494620468E
:1022300000F0A8F80028CDD1F0E70120EEE700007B
:10224000F8B50446C06A1E460D461746042807D056
:10225000012805D010F5803F02D0206B122804D150
:102260002068016841F480710160134600224FF03C
:1022700001112046009600F054F8A0B92069B0F58D
:10228000804F12D00620216800EAD51040F0F000FF
:10229000086133463A460E49204600F073F838B1DB
:1022A000206C042811D00320F8BD05F0FE0000E0EA
:1022B000E8B221680861064933463A46891F20463C
:1022C00000F060F80028EBD1F8BD0120F8BD000057
:1022D0000800010070B516460D4604461AE0204677
:1022E000FFF72AFF08B1012070BD681C12D025B18C
:1022F000FEF7EAFE801BA8420CD954F8400F40F0CC
:10230000200044F810090020206020216173207310
:10231000032070BD20684069C0434007DFD400201F
:1023200070BD2DE9F0471E4690460D460446C1F3A8
:102330000747DDF8209012E0701C10D02EB1FEF798
:10234000C3FEA0EB0900B04209D9002044F8300FC9
:1023500020216173A07320730320BDE8F0872068FB
:10236000012F0AD0806925EA00000004000C06D085
:1023700000214145E0D00020EFE74069F3E701216B
:10238000F7E700002DE9F0479A4691460D460446CE
:1023900000264FF02008C1F307472AE02068406973
:1023A000C043400512D42068016841F40071016007
:1023B00021686FF48060486104202064266384F8FB
:1023C0003D8084F83C600120BDE8F087B9F1FF3F13
:1023D0000FD0B9F1000F05D0FEF776FEA0EB0A0191
:1023E000494506D944F8306F84F80D8026730320E0
:1023F000EAE72068012F07D0D0F8180025EA00008E
:102400000004000CE0D0C9E74069F7E72DE9F0418E
:10241000002590460E460446202721E04069C0432F
:10242000C0060CD421686FF0100048612564256354
:1024300084F83D7084F83C500120BDE8F0812EB155
:10244000FEF742FEA0EB0800B04209D954F8400F55
:1024500040F0200044F80409677025700320ECE781
:1024600020684169C9434906D8D40020E5E770B522
:1024700016460D4604461AE02046FFF75DFE08B1F9
:10248000012070BD681C12D025B1FEF71DFE801B17
:10249000A8420CD954F8400F40F0200044F810092D
:1024A00000202060202161732073032070BD20680C
:1024B0004069C0430006DFD4002070BD3EB50F4820
:1024C00000240D498460C4604461016001250561F8
:1024D0004FF460214460C161FEF7F4FB00B1FEE7F8
:1024E0000420CDE90005694602940448FEF7E8FAA5
:1024F000002800D0FEE73EBD002401405800002027
:1025000030B5174885B0816941F02001816181694A
:1025100001F020010491816941F004018161816928
:1025200001F004010491816941F008018161806931
:102530000C4D00F008004FF4407404900022214636
:102540002846FEF7BBFD0120CDE9004000200290A7
:102550000220039069462846FEF7D2FC05B030BD44
:1025600000100240000C01400B4810B50949016001
:102570000A49416000214FF480428160C0E90312A2
:1025800041618161C1610162FEF7A4FD002800D0B4
:10259000FEE710BD0054004088000020A086010026
:1025A0000B4810B5094901600A49416000214FF408
:1025B00080428160C0E9031241618161C1610162B1
:1025C000FEF788FD002800D0FEE710BD005800404F
:1025D000DC000020A086010010B51F4890B01D4906
:1025E0000024C0E900144FF41671C0E902410461EF
:1025F00044618461FFF79CFC00B1FEE70E940EA9D4
:1026000015480F94FFF7F0FB00B1FEE76020CDE91D
:1026100000040294039404940594002269460E4831
:102620000694FFF71DFC00B1FEE707940894099497
:102630004FF400500A94CDE90B4007A906480D94C9
:10264000FFF7A5FB00B1FEE70348FFF7F5FB10B06D
:1026500010BD0000002C014030010020FEE7704753
:102660000907090E002806DA00F00F0000F1E0204B
:1026700080F8141D704700F1E02080F800147047C6
:102680007047704710B5FEF79FFFBDE81040FFF799
:102690007ABB30B593B001210804CDE900100025C4
:1026A000029502240491CDE907404FF4A01009904F
:1026B0006846FFF7C5F900B1FEE70AA90F2081E8D7
:1026C00031004FF48060CDE90D0502210AA8FFF723
:1026D000B1F800B1FEE74FF4804011900F940FA8BD
:1026E000FFF732F800B1FEE7FFF74EF94FF47A71C9
:1026F000B0FBF1F0FFF733FB0420FFF723FB0022D0
:102700001146501EFEF7EEFF13B030BD0D480168B4
:1027100041F00101016041680B4A114041600168CC
:102720000A4A11400160016821F48021016041687A
:1027300021F4FE0141604FF41F0181600449C00390
:1027400008607047001002400000FFF8FFFFF6FE2F
:1027500008ED00E0F0B50268164B174C174D4FF02E
:102760008047984205D0B84203D0A04201D0A84289
:1027700003D122F070064A683243984205D0B8422D
:1027800003D0A04201D0A84203D122F44074CA6809
:10279000224322F080044A69224302608A68C262AE
:1027A0000A688262984201D109690163012141618D
:1027B000F0BD0000002C0140000400400008004073
:1027C00010B50123046A8B409C430462036A8A406B
:1027D0001343036210BD000030B5026A22F001020B
:1027E0000262026A4368846924F073050C682C4312
:1027F00022F002058A682A430A4DA8420BD122F032
:102800000805CA6823F440732A434D6922F0040284
:102810001D438B692B4343608461496841630262B5
:1028200030BD0000002C014030B5026A22F01002D9
:102830000262026A436884690D6824F4E64444EA4B
:1028400005248D6822F0200242EA05120B4DA842B1
:102850000ED1CD6822F0800242EA05124D6923F4C0
:10286000406343EA85038D6922F0400243EA850311
:102870004360846149688163026230BD002C01407D
:1028800030B5026A22F480720262036A4268C46947
:1028900023F4007324F073050C682C438D6843EA1D
:1028A00005230C4DA8420ED1CD6823F4006343EA02
:1028B00005234D6922F4405242EA05128D6923F442
:1028C000806342EA05124260C4614968C1630362E1
:1028D00030BD0000002C014030B5026A22F4805265
:1028E0000262046A4268C3690D6823F4E64343EA5E
:1028F00005238D6824F4005444EA0534064DA842AB
:1029000004D14D6922F4804242EA85124260C361DB
:1029100049680164046230BD002C01402DE9F0419A
:10292000044600680169E26821F4405111430161E5
:102930002169A0680843616908432168CA6841F2B7
:102940000C639A430243CA6020684169A26921F47A
:102950004071114341614C49206864253226884208
:102960003CD1FFF727F800EBC00101EB00106168D4
:102970008900B0FBF1F7FFF71DF800EBC00101EB98
:1029800000106168B0468900B0FBF1F0B0FBF5F0D3
:102990006FF01801484307EB800106EB0110B0FB14
:1029A000F5F000F0F006FFF705F800EBC00101EBD1
:1029B000001061688900B0FBF1F0B0FBF5F006EBA8
:1029C0000016FEF7F7FF00EBC00101EB0010616895
:1029D0008900B0FBF1F7FEF7EDFF3BE0FEF7DAFF11
:1029E00000EBC00101EB001061688900B0FBF1F75A
:1029F000FEF7D0FF00EBC00101EB00106168B046AC
:102A00008900B0FBF1F0B0FBF5F06FF0180148431E
:102A100007EB800106EB0110B0FBF5F000F0F006CB
:102A2000FEF7B8FF00EBC00101EB00106168890000
:102A3000B0FBF1F0B0FBF5F006EB0016FEF7AAFFD5
:102A400000EBC00101EB001061688900B0FBF1F7F9
:102A5000FEF7A0FF00EBC00101EB001061688900E8
:102A6000B0FBF1F0B0FBF5F06FF01801484307EB55
:102A7000800108EB0110B0FBF5F0216800F00F00B9
:102A800030448860BDE8F081003801402DE9F04114
:102A9000984617460E460446069D1DE0681C1BD04E
:102AA0002DB1FEF711FBA0EB0800A84214D9206855
:102AB000C16821F4D071C1602068416921F0010131
:102AC0004161202084F8390084F83A00002084F81D
:102AD00038000320BDE8F0812068006836EA000075
:102AE00004D00020B842D9D00020F3E70120F9E754
:102AF000FEE700000FB4084B10B504A902AA039822
:102B000000F070F9044602A9002000F002FD204602
:102B100010BC5DF814FB000013350008490050EAB2
:102B2000C12018BF04204A0D18BF40F0010040F238
:102B3000FF72B2EB515F08BF40F00200012808BFEE
:102B4000052070472DE9F0414F1E00EBC7010446F8
:102B5000D1E9000115461E4637F006020DD02A467F
:102B60003346FDF765FC7F1E04EBC703D3E9002362
:102B7000FDF7B7FB37F00602F1D1022F25D0042F65
:102B800013D0062F18BFBDE8F0812A463346FDF763
:102B90004FFCD4E90A23FDF7A4FB2A463346FDF790
:102BA00047FCD4E90823FDF79CFB2A463346FDF792
:102BB0003FFCD4E90623FDF794FB2A463346FDF794
:102BC00037FCD4E90423FDF78CFB2A463346FDF796
:102BD0002FFCD4E90223FDF784FB2A463346FDF798
:102BE00027FCD4E90023BDE8F041FDF77ABB0000E3
:102BF0000022134610460149FDF78CBC0000F03F4F
:102C00000122FDF7F6BCFDF76CBB0022134610460F
:102C10001146FDF77FBC40F2013200204FF0E04149
:102C2000FDF7E7BC024A00201107FDF7E2BC0000F7
:102C300001FDFFFF02E008C8121F08C1002AFAD1F7
:102C400070477047002001E001C1121F002AFBD12C
:102C500070470000014908607047000054000020E0
:102C60002DE9FF5F82B00021DDE90430020DDDF8BF
:102C700040B0034318D044F61050A2F2FF32424352
:102C80001514119801281FD0A5EB0B00401C5FEA1A
:102C9000000A4FF000064E4FDFF83891B04650461C
:102CA00015D5CAF1000413E0119801244AA30128A4
:102CB00001D16FEA0B010298119AC0E90031C0E915
:102CC000024206B0BDE8F09FCBF10000DFE704460A
:102CD0000021404A491842EB0450CDE9001012E0AF
:102CE000E00707D032463B4640464946FDF7A0FB89
:102CF0008046894632463B4610461946FDF798FB0A
:102D000006460F466410002CEAD1DDE90401DDE936
:102D10000023BAF1000F06DAFDF78AFB42464B4664
:102D2000FDF786FB05E0FDF7F5FB42464B46FDF758
:102D3000F1FB04460E460022284BFDF72FFE03D878
:102D40004FF0FF30014607E00022254B2046314678
:102D5000FDF7C7FAFDF70AFE102409E0002C0ADB94
:102D60000A220023FDF7CBFC039B30321A55641E68
:102D700050EA0102F2D1641C039AC4F11103144415
:102D8000119A012A03D0012208430DD10AE0084319
:102D900004D000204FF0110B119072E7A3EB0B054C
:102DA0006D1E0DE05B4504DD4FF0000205F10105ED
:102DB00004E003DA4FF00002A5F10105002AECD08F
:102DC00002981199C0E90231C0E9004579E7000095
:102DD000000014400000F03F300000000000F0430D
:102DE0000000E03F2DE9FF4F95B09B46894606461F
:102DF00000250FE2252877D100242746F84A012133
:102E0000059400E0044316F8013F203B01FA03F06B
:102E10001042F7D130782A2811D06FF02F03307884
:102E2000A0F13002092A16D8059A44F0020402EBF8
:102E3000820203EB42021044761C0590EFE759F83A
:102E4000042B0592002A03DA504244F40054059002
:102E500044F00204761C30782E2816D116F8010FA3
:102E600044F004042A280DD06FF02F023078A0F12E
:102E70003003092B09D807EB870302EB4303C7187C
:102E8000761CF3E759F8047B761C30786C280FD059
:102E900006DC4C2817D068280DD06A2814D104E02D
:102EA000742810D07A280FD10DE044F400140AE001
:102EB00044F4801401E044F440147278824202D158
:102EC00004F58014761C761C307866280BD013DC51
:102ED000582877D009DC002875D04528F6D0462838
:102EE000F4D047281AD19DE118E0632835D0642832
:102EF00079D0652812D195E1702873D008DC672855
:102F0000F1D069286FD06E280DD06F2806D1B5E0BA
:102F100073282CD0752875D0782874D05A46179904
:102F200090476D1C75E1C4F30250022809D00328B4
:102F30000DD0D9F8001004280DD00D6009F1040956
:102F400067E1D9F80010EA17C1E90052F6E7D9F8AD
:102F500000100D80F2E70D70F0E719F8041B8DF8F2
:102F6000001000208DF80100EA46012003E059F826
:102F700004AB4FF0FF3061074FF0000102D40DE0C9
:102F800008F101018846B9420FDA8045F8DB1AF8EA
:102F900008100029F4D108E008F1010188468142B7
:102FA000FADB1AF808100029F6D105985B46A0EB69
:102FB000080721463846179A00F094FA284400EB97
:102FC000080507E04DE029E10DE01AF8010B5A462B
:102FD00017999047B8F10108F7D25B462146384669
:102FE000179A13E142E00A220092C4F302524FF012
:102FF000000A022A08D059F804CB032A4FEAEC71E0
:103000000AD00DE029E02AE009F1070121F00702CA
:10301000F2E802C1914609E00FFA8CFC4FEAEC712C
:10302000042A03D14FFA8CFC4FEAEC71002907DA2D
:103030000A460021DCF1000C61EB02012D2202E0C6
:10304000220504D52B228DF80420012203E0E2079B
:1030500001D02022F7E7904659E00A2102E0102231
:103060000DE010214FF0000A00910BE010224FF00C
:10307000000A44F004040827009203E008224FF0FD
:10308000000A0092C4F30252022A05D059F804CB78
:103090000021032A08D009E009F1070121F0070205
:1030A000F2E802C1914605E01FFA8CFC042A01D126
:1030B0000CF0FF0C4FF00008220728D5702806D02E
:1030C000009B83F0100353EA0A0305D00EE0402270
:1030D0008DF80420012208E05CEA010206D03022CB
:1030E0008DF804208DF8050002229046009B83F0A5
:1030F000080353EA0A030AD15CEA010201D162071C
:1031000005D530228DF804204FF001087F1E582885
:1031100004D034A003900EA802900DE036A0F9E789
:1031200053466046009AFDF7EAFA84460398825CAB
:103130000298401E029002705CEA0100F0D10298F1
:1031400006A9081A00F1200A600702D524F4803489
:1031500000E00127574502DDA7EB0A0000E0002050
:1031600000EB0A01009005984144401A0590E003E5
:1031700006D45B462146179A059800F0B3F905443A
:10318000002706E001A85A46C05D179990476D1CBC
:103190007F1C4745F6DBE0030CD55B462146179ABA
:1031A000059800F09FF9054404E030205A4617992D
:1031B00090476D1C0099481E00900029F5DC08E03E
:1031C000029802995A460078491C02911799904733
:1031D0006D1CBAF10001AAF1010AF1DC65E1000001
:1031E00009280100303132333435363738396162DD
:1031F00063646566000000003031323334353637A1
:1032000038394142434445460000000000F058F977
:103210000544761C307800287FF4ECAD19B02846C0
:10322000BDE8F08F620700D4062709F1070222F0FB
:10323000070CFCE80223E14603F000485FEA080CB3
:1032400002D00FF2702C0DE05FEA045C02D50FF2A1
:10325000682C07E05FEAC47C02D00FF2602C01E02A
:10326000AFF2700C4FF0FF3823F00043CDF850C0A0
:1032700065280CD006DC452809D046281DD04728F3
:103280003DD13DE0662818D067287ED138E0002186
:10329000112F01DB112000E0781CCDE9000106A907
:1032A0000EA8FFF7DDFCDDE90F010E9A0391002166
:1032B000009207F1010A04914DE04FF000400097A1
:1032C000CDE9011006A90EA8FFF7CAFCDDE90F023F
:1032D00003920E9B11990022DDF80CA0009304923A
:1032E00011B9791C00EB010AB7EB0A0004D4C0F154
:1032F000FF3007F1010A0490AAEB0700019044E0B7
:10330000012F00DA01270021112F01DD112000E03B
:103310003846CDE9000106A90EA8FFF7A1FCDDE9BA
:103320000F010E9A0391002104910092BA462107E1
:103330000CD40399514500DA8A46BAF1010F05DD34
:10334000009AAAF10101515C302908D0B84202DA92
:1033500010F1040F06DA0121CDE9011015E0AAF100
:103360000101E9E7002805DC049901440491AAEB76
:10337000000102E0411C514500DD8A460499401AD3
:10338000401C01904FF000400290200704D40198A7
:10339000504501DBCDF8048000208DF84F000298E5
:1033A0000DF14F07B0F1004F25D02B200E90029861
:1033B0004FF0020800280CDA404202902D200E90B7
:1033C00007E00A210298FDF784F93031029007F8EE
:1033D000011DB8F10001A8F10108F2DC02980028F3
:1033E000EFD1791E0E980870307800F0200040F080
:1033F000450007F8020D12A8C01B00F10708149839
:10340000007800B1012000EB0A01019801EBE071A6
:1034100005984144401A401E0590E00306D45B46DF
:103420002146179A059800F05DF805441498007835
:1034300018B15A46179990476D1CE00324D55B4696
:103440002146179A059800F04DF805441CE00498B1
:10345000002807DBDDE90301884203DD0098405CBA
:10346000179901E0179930205A469047049805F1C2
:103470000105401C04900198401E019004D12E20AB
:103480005A46179990476D1CBAF10001AAF1010A3A
:10349000DDDC05E017F8010B5A46179990476D1CC3
:1034A000B8F10001A8F10108F4DC5B462146179A47
:1034B0000598ABE62D0000002B0000002000000066
:1034C0002DE9F041044600251E461746880404D421
:1034D00005E039462020B0476D1C641EF9D528460A
:1034E000BDE8F0812DE9F041044600251E469046D6
:1034F000C80301D5302700E02027880404D505E063
:1035000041463846B0476D1C641EF9D52846BDE8D3
:10351000F0810A68531C0B60107070472DE9F84F5A
:1035200004460D4621F0004000917349814211DCB0
:103530007249884201DC06D12CB120462946BDE8FB
:10354000F84FFFF75DBB6E48002DCCBF6D496E494B
:10355000BDE8F88F6D49814211DD6D498142D8BFC8
:103560004FF0FF366DDD20462946FFF7D7FA0428D5
:1035700008BFFFF757FB20462946BDE8F88F65498D
:10358000654F25F00045814233DD6449814219DDF4
:10359000002632464FF0804320462946FCF7A1FE24
:1035A00080468A46012220462946FDF722F800225D
:1035B0003B46FCF737FF42465346FCF7ABFF044659
:1035C0000D463EE001260022BA463B4620462946EB
:1035D000FCF787FE80460F460022534620462946C8
:1035E000FCF720FF42463B46FCF794FF04460D469D
:1035F00027E04B4981421BDDDFF828A1022600228B
:10360000534620462946FCF713FF00223B46FCF7B1
:1036100068FE80460F460022534620462946FCF7A6
:1036200001FF42463B46FCF775FF04460D4608E0A5
:10363000032622462B4600203B49FCF76BFF04463D
:103640000D4622462B4610461946FCF7F1FE8B46E6
:10365000824602460B46FCF7EBFE0746024633481D
:1036600088460B4606217844FFF76CFA52465B46C3
:10367000FCF7DEFE82462E488B463A46434605213D
:103680007844FFF75FFA3A464346FCF7D1FE02461C
:103690000B46002E504659460CDAFCF722FE224615
:1036A0002B46FCF7C5FE01B022462B46BDE8F04F85
:1036B000FCF7BBBEFCF715FE22462B46FCF7B8FE16
:1036C0001C4A7A4402EBC603D3E90023FCF7AAFEA6
:1036D00022462B46FCF7A6FE174A7A4402EBC603A5
:1036E000D3E90023FCF7A1FE009A002AB8BF81F0BD
:1036F0000041BDE8F88F0000000010440000F07F9A
:10370000182D4454FB21F93FFB21F9BF0000DC3F99
:103710000000203E0000F33F0000F03F0000E63FC5
:10372000008003400000F83F0000F0BFE60F0000FB
:10373000A40F0000420F00000A0F000086B0FDF742
:103740004BFFFEF7A6FFFEF7DBFEFEF70DFFFEF7D1
:1037500027FFFEF741FFFC48FA49002401604FF4BF
:103760001651C0E901140C21C460C0E90441846110
:10377000C461FEF725FC00B1FEE7FEF79FFEF248AC
:1037800000214038FEF704FCF048FDF753FBF04DF4
:103790006B200A262870ED486C7002232A46D0213F
:1037A00084300096FDF73EFE1C20287008206870CB
:1037B000E64802232A46D02184300096FDF732FEE7
:1037C000E24801232A46D02184300096FDF72AFEE4
:1037D0006C7064200090DD4801236A1CD021843085
:1037E000FDF718FDDA4D3B200A262870D748012343
:1037F0002A46D02184300096FDF714FE6420009004
:10380000D24806236A1CD0218430FDF703FDB5F8A9
:103810000100A5F13C0440BA2080B5F8030040BA8D
:103820006080B5F8050040BA00B2A080FCF7FDFE4C
:103830006FF00D02FCF7DDFE0022730700F0B6F911
:1038400080460F46B4F90200FCF7EFFE6FF00D0260
:10385000FCF7CFFE0022730700F0A8F942463B4672
:10386000FCF73FFD00F08EFE07468846B4F90000E5
:10387000FCF7DBFE0022B74BFCF7DAFD3A46434685
:10388000FCF748FEFFF74AFEDFF8D0A2B24A5346E3
:10389000FCF7CEFDFCF701FFAB4F40373860B4F9C1
:1038A0000400FCF7C2FE6FF00D02FCF7A2FE00223E
:1038B000730700F07BF980468946B4F90000FCF7F5
:1038C000B4FE6FF00D02FCF794FE0022730700F0C7
:1038D0006DF942464B46FCF704FD00F053FE81466D
:1038E0008846B4F90200FCF7A0FE6FF00D02FCF769
:1038F00080FE4A464346FCF70DFEFFF70FFE964A50
:103900005346FCF795FDFCF7C8FE7860432028700D
:1039100001232A46D021A7F1D4000096FDF782FDAD
:1039200006236A1CD021A7F1D4000096FDF772FC93
:1039300035F8010F40BA00B2E080698849BA0EB28A
:103940002681A98849BA09B261818846FCF76DFED3
:10395000DFF80C9200224B46FCF7DCFDFCF79DFEE5
:1039600007F10C0528603046FCF75FFE00224B464D
:10397000FCF7D0FDFCF791FE68604046FCF755FE71
:1039800000224B46FCF7C6FDFCF787FEA860FDF75A
:103990009BFBE16A401A4FF47A71B0FBF1F0FCF73F
:1039A0003FFEA062FDF790FBE0623868FCF762FE24
:1039B0006C4A6D4BFCF73CFD884607462868A16AB7
:1039C000464601910091FCF71CFC05F1700BDBF8F9
:1039D0000010FCF7BEFBFCF74DFEDFF89091DFF81E
:1039E00090A14A465346FCF723FD3A463346FCF77E
:1039F00078FCFCF752FE0646584606606868009957
:103A0000FCF7FFFB59464968FCF7A3FBFCF732FEC5
:103A10004A465346FCF70CFD3A464346FCF761FC28
:103A2000FCF73BFE59464860A8680099FCF7E9FBA3
:103A300059468968FCF78DFB594688604D48E66118
:103A4000864250DA3046216BFCF7DBFBE06007462C
:103A50003046616BFCF7D5FB2169FCF77AFB2061EE
:103A600005463046216AFCF7C6FB0199FCF7FBFBD3
:103A7000A16BFCF7C6FB0646606129463846FCF799
:103A800068FB3146FCF765FB3B49A061884201D9E0
:103A9000A16107E03949884201DDA16112E010F11E
:103AA000FF4F0FD3364D012211022846FDF706FBCA
:103AB000002269152846FDF701FBA06980F000404F
:103AC000A0610CE02E4D00224FF480712846FDF7D6
:103AD000F5FA012251022846FDF7F0FAA069FCF739
:103AE000B5FD28490860606A27490546FCF789FB4F
:103AF0002063FCF7BFFD81468A462846FCF7BAFDE5
:103B000007468846A069FCF7B5FD05460E46DBF87A
:103B10000000FCF7AFFD8DE8E00702460A480B46BF
:103B20001AA15830FEF7E6FF07485830FCF70AFBA9
:103B3000054982B2642358310348FEF79FFAE069D1
:103B400020624FE600440040700100205800002031
:103B50003C000020000010BFAEB6627FD9A54C40EB
:103B6000006060407B14AE47E17A943F5C8FC2F501
:103B7000285CEF3F00008242000016C4000016449B
:103B8000000C0140342C01400000C83C416E6775B8
:103B90006C6F3A2566095049443A25660941444309
:103BA0003A2566094B703A25660A00002DE9F04D6A
:103BB0001D460C4698B0174621F0004123F0004303
:103BC000002814BF4FF0010C4FF0000C0CEB440C1C
:103BD000FE4A0CEB02064FEA620C66452BD33E0010
:103BE00018BF012606EB45061644F94A964222D331
:103BF000F84A53EA070C02D0944205D148B918B0EC
:103C000000201146BDE8F08D002808BF4FF0000CE1
:103C100001D04FF0010C0CEB440212F5001F0AD842
:103C2000002F14BF4FF0010C4FF0000C0CEB4502BD
:103C300012F5001F07D918B03A462B462146BDE8B9
:103C4000F04DFEF7E0BF0022DFF88CA3002CB8BFD8
:103C5000534526DADFF884C36345A8BF022220DA81
:103C6000DFF870C39C451CDCDFF874C30CEB235CED
:103C7000BCF1140F08DDCCF1340627FA06FC0CFA6F
:103C800006F6BE420DD108E05FB9CCF1140623FA66
:103C900006FC0CFA06F69E4203D10CF00102C2F1BA
:103CA000020251EA000C19D1002D17DA002C18BFBE
:103CB000022A01D0012A07D00220FEF7CBFF18B05C
:103CC000BDE8F04DFEF794BF0220FEF7C3FFFEF7FC
:103CD0008FFF18B081F00041BDE8F08DB7F1000C06
:103CE0006CD1534525D104F1804212F5801201BFF9
:103CF00000280020B74918B008BFBDE8F08DB548CE
:103D0000884207DC002DA1BF6046294618B0BDE8F7
:103D1000F08D07E0281E05DA80F0004118B06046FB
:103D2000BDE8F08DAF497944D1E9000118B0BDE894
:103D3000F08DDFF8A0C2634525D1002D1FDA19B13F
:103D4000514512D1D8B909E0002840F0EC82A24ACE
:103D5000214618B062F31E01BDE8F08D0020214617
:103D600018B060F31E01BDE8F08D08DA18B02346E4
:103D7000BDE8F04D024600206146FCF7CBBB18B011
:103D80002146BDE8F08D514518DAB5F1804F0DD0D0
:103D9000A5F1005CBCF1FF5C10D1B4F1000C0DDBAF
:103DA00018B06146BDE8F04D00F0ECBB234618B0FA
:103DB0000246BDE8F04D1946FCF73ABB060024F078
:103DC000004C3BD1D9B1514533D1002C06DD002D3B
:103DD000A1BF0020514618B0BDE8F08D002C01DDD8
:103DE000002D1BDB002C13DA002D11DB012A4FF014
:103DF000000014BF78497C4918B0BDE8F08D022A54
:103E000018BF002C0AD0012A08D1002C06DA0AE0DB
:103E1000002CB8BF002D11DA012A04D0002018B000
:103E20000146BDE8F08D18B000204FF00041BDE81C
:103E3000F08DA1F14050B0F17F601AD0012000EB6D
:103E4000E47050EA020421D0624C521E4FF0000B85
:103E5000104304BF4FF0000B644C654883427CDD87
:103E6000644A654893421FDD884217DB002D25DB3D
:103E700037E0002C00DA4AB1022A0CBF01204FF0D3
:103E8000FF3018B0BDE8F04DFCF7CFBB0120FEF7C6
:103E9000E1FE18B0BDE8F04DFEF7B7BE4D4A8A42CC
:103EA00002DC002D0ADC1CE0814202DA002D18DA67
:103EB00004E0484B994220DD002D12DD0220FEF780
:103EC000C9FEFEF7A8FE05460E4600225346584698
:103ED0002146FCF7ADFA18B066F31E012846BDE88E
:103EE000F08D0220FEF7B6FEFEF79CFE0A46214644
:103EF00018B062F31E01BDE8F08D00223046614625
:103F0000FCF790FA80460E466FF00102FCF771FB59
:103F10004FF05532394BFCF788FA42463346FCF7EE
:103F200087FA0022364BFCF780FA82464246334637
:103F3000049110461946FCF77BFA5246049BFCF7A5
:103F400077FA8A4600904FF0C0422E4B40463146E9
:103F5000FCF76EFA2C4A2B4B00E027E0CDE9060176
:103F600051460098FCF764FA82460191274A284B93
:103F700040463146FCF75CFA5246019BFCF752FA88
:103F800082460B4602460591DDE90601FCF7A9F9D8
:103F9000DDE90623002688463046FCF743FA524600
:103FA000059BFCF742FA024600F07EB90020B1F50D
:103FB000801F07DA352230466146FCF71AFB0646B9
:103FC0006FF0340000EB215024E00000FFFF1F00E1
:103FD000FFFF0F000000F03F0000F07F00004043B3
:103FE00001FCFFFFDE0900000000F0FF0000F0BF51
:103FF0000000E0410000F043FFFFEF3F5555D53F83
:104000000000E03F4715F73FFE822B6544DF5DF877
:104010000BAE543EA0F2FF300190C1F3130040F00C
:104020007F6141F040510291FE498842D8BF002093
:1040300004DDFD498142C8BF012001DD0D9008E08B
:1040400000200D900198401C01900298A0F580106E
:1040500002900299F54878440B910D9900EBC1004C
:10406000D0E900230F9330460A920B99FCF7DAF956
:10407000CDE90601DDE90A2130460F9BFCF731F955
:1040800002460B460020EA49FCF744FA0591024635
:104090000B460090DDE90601FCF7CAF91490E548EB
:1040A0008A464FF0000878440299006812904FF059
:1040B000005040EA61010D980F9B01EB804000F534
:1040C000002109910A9A1298FCF7ACF932460B9B31
:1040D000FCF7ABF942465346FCF7AAF906460291B3
:1040E00040465146099B129AFCF7A2F9DDE90623E6
:1040F000FCF79BF93246029BFCF794F9059B009A6A
:10410000FCF796F90091149A04905346104619460C
:10411000FCF78EF906460246C7480B460291062177
:104120007844FEF70FFDCDE90510029B324610469C
:104130001946FCF77DF9DDE90532FCF779F90591BF
:104140000646534640461946149AFCF7CAF8009BA7
:10415000049AFCF76DF93246059BFCF7C2F8CDE9ED
:1041600005104246534610461946FCF761F90022F5
:10417000B24B02910A90FCF7B4F8DDE90532FCF786
:10418000B0F80E464246AD4B4046FCF74BF9029B59
:104190000A9AFCF747F9DDE90532FCF746F9424691
:1041A00002910A90334610465146FCF741F9CDE999
:1041B00006015346149A02990A98FCF739F98A467F
:1041C00002903346424600990498FCF731F9534671
:1041D000029AFCF786F882460B4602460591DDE915
:1041E0000601FCF77EF8DDE9062300208846064636
:1041F000FCF718F95246059BFCF717F9824609911E
:104200004FF060428E4B30464146FCF711F9049066
:1042100006918C4A8A4B50460999FCF709F9824667
:104220000291894A894B30464146FCF701F95246D2
:10423000029BFCF756F8864B7B440D9A03EBC203B6
:10424000D3E90023FCF74DF80E9007910198FCF795
:10425000ECF90591DDE9061382460E9A0498FCF705
:1042600040F87C4A7A440D9B02EBC303D3E9002358
:1042700000930292FCF735F85246059BFCF731F8A3
:104280000026884652463046059BFCF7CBF8009B3B
:10429000029AFCF7C7F8069B049AFCF7C3F8079B41
:1042A0000E9AFCF7C2F8024600200B4602903846F0
:1042B0002946FCF7BDF8824601912B46384619463F
:1042C000029AFCF7AFF832464346FCF7B1F8524683
:1042D000019BFCF706F807468A46324643462946C4
:1042E0000298FCF7A5F805460E463A465346FBF7FA
:1042F000F8FF594A8846914221DBA8EB020353EAB2
:10430000000210D12A463346FCF78CF8CDE90401AF
:10431000524A534B38465146FBF7E3FFDDE904238D
:10432000FCF73CFB21D20220FEF794FCFEF773FC65
:104330000A46214618B062F31E01BDE8F08D494BD4
:1043400028F000429A4210D3474A08EB020353EA8E
:1043500000027FF4C6AD2A463346FCF763F83A46BE
:104360005346FCF71BFB7FF6BCAD0022019228F000
:1043700000403E493E4A01EB2051824223DA481C6C
:104380004FF4801121FA00F040443A4AC0F30A5138
:104390007A44394BA1F2FF31CB4020EA0303C0F34A
:1043A000130040F48010C1F11401C840126801905C
:1043B000B8F1000FBCBF4042019028463146FCF7DF
:1043C00031F805460E462A46334638465146FBF735
:1043D00088FF4FF000084246284B40460591FCF705
:1043E00027F8CDE90601264A264B40460599FCF7F9
:1043F0001FF8009102902A46334640460599FCF783
:1044000011F83A465346FCF710F81F4A1F4BFCF7C9
:104410000FF8009B029AFBF764FF074688460246A6
:104420000B4635E08E9803007AB60B002606000096
:104430000000F03F5E0600008C0500000000084010
:1044400009C7EE3FFD033ADCF5015B14E02F3EBEE9
:10445000640400002804000000009040FE822B65E8
:104460004715973C00CC904000346F3F01FCFFFFA4
:104470000000E03F74030000FFFF0F00432EE63F03
:10448000396CA80C615C20BEEF39FAFE422EE63F83
:10449000DDE90601FBF725FFDDE9062305460E46AB
:1044A000FBF7C0FF3A464346FBF7BFFF0F462A46DD
:1044B0003346009010461946FBF7BAFF8246024683
:1044C0002E4888460B4605217844FEF73BFB5246B2
:1044D0004346FBF7ADFF2A463346FBF7A6FF80466F
:1044E0008A463B4628463146009AFBF7A1FF3B46E9
:1044F000009AFBF7F6FE0691009000224FF08043F1
:1045000040465146FBF78EFF0F460C9042465346FD
:1045100028463146FBF78CFF3B460C9AFBF7FAFF27
:10452000069B009AFBF77EFF2A463346FBF77AFF8D
:104530000022134BFBF779FF054601980E4601EB6D
:1045400000510815002810DC28463146019AFCF776
:1045500050F8FEF7E3FA042808BFFEF763FB28468D
:104560003146019AFCF745F805460B4618B02A4635
:1045700058462146BDE8F04DFBF75ABF1402000033
:104580000000F03F2DE9F04106460F46FCF79DF98B
:10459000041E0D4618BF0120284320F00040C0F142
:1045A0007F6000F1E040C00F0ED0301C18BF01202A
:1045B000384320F00040C0F17F6000F1E040C00FC0
:1045C00004BF0120FEF746FB20462946BDE8F081E6
:1045D00000000000000000000102030406070809B3
:1045E00000000000010203044FBB610567ACDD3F22
:1045F000182D4454FB21E93F9BF681D20B73EF3F0A
:10460000182D4454FB21F93FE2652F227F2B7A3C81
:10461000075C143326A6813CBDCBF07A8807703C3A
:10462000075C143326A6913CC4EB98999999C9BFAD
:10463000711623FEC671BCBF6D9A74AFF2B0B3BFE2
:104640009AFDDE522DDEADBF2F6C6A2C44B4A2BFA2
:104650000D5555555555D53FFF8300922449C23F0E
:104660006E204CC5CD45B73F513DD0A0660DB13F42
:10467000EB0D76244B7BA93F11DA22E33AAD903F54
:10468000000000000000F03F000000000000F83FC4
:1046900000000000000000000000004003B8E23FFE
:1046A000000000000000000006D0CF43EBFD4C3EB0
:1046B000033333333333E33FFFAB6FDBB66DDB3FA5
:1046C0004D268F515555D53F01411DA96074D13FED
:1046D00065DBC9934A86CD3FEF4E454A287ECA3FE7
:1046E0003E5555555555C53F93BDBE166CC166BF69
:1046F0002CDE25AF6A56113FF16BD2C541BDBBBE62
:10470000D0A4BE726937663E0000000000000000C1
:10471000304700080000002058000000342C00083A
:104720008847000858000020E0050000442C0008DD
:104730000000000000000000000000000000000079
:104740000000000000000000000000000000000069
:104750000000000000000000000000000000000059
:104760000000000000000000000000000000000049
:104770000000000001000000100000000000000028
:0847800000A24A040000000041
:04000005080000ED02
:00000001FF
