:020000040800F2
:100000009005002001010008A71C000893160008B5
:10001000A51C0008A1070008511F000800000000EF
:10002000000000000000000000000000CB1C0008E1
:10003000A307000800000000C91C0008CD1C000830
:100040001B0100081B0100081B0100081B01000820
:100050001B0100081B0100081B0100081B01000810
:100060001B0100081B0100081B0100081B01000800
:100070001B0100081B0100081B0100081B010008F0
:100080001B0100081B0100081B0100081B010008E0
:100090001B0100081B0100081B0100081B010008D0
:1000A0001B0100081B0100081B0100081B010008C0
:1000B0001B0100081B0100081B0100081B010008B0
:1000C0001B0100081B0100081B0100081B010008A0
:1000D0001B0100081B0100081B0100081B01000890
:1000E0001B0100081B0100081B010008DFF80CD0F1
:1000F00000F0C6FA00480047592800089005002083
:100100000648804706480047FEE7FEE7FEE7FEE7B1
:10011000FEE7FEE7FEE7FEE7FEE7FEE7351D000827
:10012000ED000008202A04DB203A21FA02F0002129
:10013000704721FA02F3D040C2F1200291400843F7
:100140001946704740EA01039B0703D009E008C93C
:10015000121F08C0042AFAD203E011F8013B00F88C
:10016000013B521EF9D27047421C10F8011B0029B6
:10017000FBD1801A704780EA010210B502F00043FB
:10018000400022D04A001FD0010E01EB1261C0F3E3
:100190005600C2F3560240F4000042F40002A0FBF5
:1001A000022000047F39140400D0401C50EA1240A1
:1001B00001D44000491EC2B20C0604EBD010401C12
:1001C0004008802A02D003E0002010BD20F001008A
:1001D000002900DA0020184310BDC10F80EAE0704A
:1001E0000844CA079623002100F063B800F00042DB
:1001F00030F000400AD0C10D01F56071C0F3160067
:1002000042EA0151C20840071143704700200146ED
:10021000704730B50B46014600202022012409E03A
:1002200021FA02F59D4205D303FA02F5491B04FAAF
:1002300002F52844151EA2F10102F1DC30BD2DE9C2
:10024000F05F0546002092469B468846064681465A
:1002500040241BE02846414647462246FFF762FFFE
:1002600053465A46C01A914110D3114618462246A9
:1002700000F018FA2D1A67EB01084F4622460120BC
:10028000002100F00FFA17EB00094E41201EA4F1E7
:100290000104DFDC484631462A464346BDE8F09F6C
:1002A0000029A8BF7047401C490008BF20F001008A
:1002B000704710B4B0FA80FC00FA0CF050EA010468
:1002C00004BF10BC704749B1CCF1200421FA04F4FA
:1002D00011FA0CF118BF012121430843A3EB0C01D3
:1002E000CB1D4FEA00614FEA102042BF002010BC36
:1002F000704700EBC35010440029A4BF10BC7047E6
:10030000401C490008BF20F0010010BC70472DE9D7
:10031000FE4F804681EA0300C00F0C46009021F09A
:10032000004123F00045B8EB0200A94105D2404648
:10033000214690461C460B46024623F000401043DF
:1003400047D0270DC7F30A00C3F30A510290401AA1
:10035000019040286BDAC3F3130040F4801B00982F
:10036000924620B10023D2EB030A63EB0B0B0198FA
:100370005946C0F14002504600F094F906460D4639
:1003800050465946019A00F09CF910EB0800614173
:10039000002487EA115284EAE7731A4340D0009A96
:1003A00062B3019A012A4FEA075215DC001B61EB88
:1003B00002014FF0004202EA0752CDE90042001C60
:1003C00041F5801132462B4600F09CF903B0BDE8A0
:1003D000F08F40462146F9E7001B61EB0201001C4B
:1003E00041F5801300185B412018A2F5001747EB78
:1003F000030140EAD570B6196D4111E06D084FEA6E
:10040000360645EAC0754FEA0752001B61EB020150
:10041000001C41F5801149084FEA30000019514194
:1004200032462B4603B0BDE8F04F00F05CB90098AF
:10043000012240000023D0EB020263EBE07300983E
:1004400021464FEAE074B8EB000061EB0401E9E7F4
:1004500083F000435BE781F0004158E72DE9FE4F50
:1004600081EA030404F0004421F0004100944FF0BD
:10047000000B23F0004350EA01045ED052EA03046B
:100480005BD0C3F30A54C1F30A552C44A4F2F334ED
:100490000194A0FB0254C1F3130141F48011C3F392
:1004A000130343F4801301FB024400FB034E840A50
:1004B000970A44EA815447EA8357A4FB07680295E8
:1004C0008D0A05FB07854FEA932C04FB0C54270586
:1004D000029D4FEA065847EA1637B5EB08056EEB62
:1004E000070C870E920E47EA811742EA8312A7FB98
:1004F0000201B6EB0B0164EB00042B0D43EA0C3355
:100500005E1844EB1C50DA465146E7FB0201C5F386
:1005100013044FEA0B3343EA14534FEA0432019CAD
:1005200043EA0603A4F10C040294009CCDE900B454
:1005300000F0E8F803B0BDE8F08F00200146F9E7CD
:100540002DE9F04D81EA030404F0004B21F0004551
:1005500014464FF0000A23F0004150EA050220D073
:1005600054EA01021DD0C5F30A570246C5F313032E
:10057000C1F31300C1F30A5640F4801543F480130D
:10058000A7EB0608101BD64608F2FD3873EB0500F2
:1005900002D308F1010801E092185B41B8F1000FA5
:1005A00003DA00200146BDE8F08D00204FF48011F1
:1005B000064684460EE0171B73EB050705D3121B96
:1005C00063EB050306434CEA010C49084FEA30008F
:1005D00092185B4150EA0107EDD152EA030012D0B4
:1005E00082EA040083EA0501084305D0101BAB41F1
:1005F00006D20122002306E000224FF0004302E071
:100600006FF0010253101AEB06004CEB085110EB8F
:100610000A0041EB0B01BDE8F04D00F064B8C1F3F6
:100620000A52C1F3130140F2FF3341F480119A42A0
:1006300002DA00200146704740F233439A42A2F2A8
:10064000334202DC5242FFF76DBD00F02BB80000D0
:1006500030B5041E71F1000404DB4FF00044404249
:1006600064EB0101141E73F1000405DB1C464FF01E
:100670000043524263EB0403994208BF904230BDED
:10068000064C074D06E0E06840F0010394E80700DF
:1006900098471034AC42F6D3FFF72CFDAC29000884
:1006A000CC290008202A04DB203A00FA02F10020BD
:1006B00070479140C2F1200320FA03F319439040A0
:1006C0007047202A06DBCB17203A41FA02F043EAB2
:1006D000E07306E041FA02F3D040C2F120029140FB
:1006E00008431946704710B5141E73F1000408DA68
:1006F000401C41F1000192185B411A4301D120F0E6
:10070000010010BD2DE9F04D92469B4611B1B1FAA2
:1007100081F202E0B0FA80F220329046FFF7C2FF89
:1007200004460F4640EA0A0041EA0B0153465A4686
:10073000084313D0114653EA010019D0C8F1400212
:100740005046FFF7EFFC05460E46504659464246D6
:10075000FFF7A8FF084305D0012004E020463946F2
:10076000BDE8F08D0020054346EAE0762C43374390
:100770000A986305E40AA0EB08000022FD0A44EA97
:1007800047540A3002D500200146E9E70105101957
:100790006941DDE9084500196941BDE8F04DA2E76E
:1007A000FEE7704770B5044600F0ECF80546601CA3
:1007B00002D004480078044400F0E4F8401BA04252
:1007C000FAD370BD1C0000202DE9F84FDFF890A18E
:1007D00000220AF1040B144601274FF00F090BF118
:1007E000040E00BF0B6807FA04F52B40AB4274D12E
:1007F000DFF870C14E68A6EB0C0866452BD00DDC07
:10080000032E34D005DC36B3012E19D0022E2FD1A1
:100810001BE0112E16D0122E2AD119E0B8F5881F30
:1008200019D006DCB8F5803F15D0B8F5801F1FD170
:1008300011E0B8F5001F0ED0B8F5041F18D10AE07A
:10084000CA6815E0CA68121D12E0CA6808320FE0D3
:10085000CA680C320CE08A682AB1012A4FF00802FB
:1008600003D0456104E0042202E0056100E00022BB
:10087000FF2B01D8064601E000F104064FEA84058B
:1008800001D9A5F12005D6F800C009FA05F82CEA2F
:10089000080C02FA05F54CEA050CC6F800C04D68D4
:1008A000ED0057D5304DAE6946F00106AE61AD6939
:1008B00024F0030605F0010500952C4D06EB050C10
:1008C000DCF80850A6074FEA167809FA08F6B5438F
:1008D000274EB04202D1002610E03BE0254EB04248
:1008E00001D101260AE0244EB04201D1022605E0E2
:1008F000224EB04201D1032600E0042606FA08F693
:100900002E43CCF808604D68DAF80060ED035546D8
:1009100001D51E4300E09E432E604D68DBF8006069
:10092000AD035D4601D51E4300E09E432E604D6839
:10093000DEF80060ED02754601D51E4300E09E43DF
:100940002E604D68AD020E4D2E6801D51E4300E0AD
:100950009E432E60641C102CFFF444AFBDE8F88F5A
:10096000000401400000111000100240000001408E
:1009700000080140000C014000100140001401403B
:100980000C04014001488068704700001C000020F2
:1009900070B504001BD094F83D00002520B984F800
:1009A0003C50204600F038FA242084F83D002068AE
:1009B000016821F00101016000F0B4FB404A616868
:1009C000914201D83F4900E03F49884201D20120CD
:1009D00070BD3E492368B0FBF1F1596063689342F2
:1009E00006D94FF4967359434FF47A73B1FBF3F180
:1009F0002368491C19626168914210D84900401E61
:100A0000B0FBF1F2521CC2F30B02042A01D2042003
:100A100022E0B0FBF1F0401CC0F30B001CE0A36827
:100A2000CBB301EBC10202EB0116421EB2FBF6F2A0
:100A3000521C42F48042120536D06BB301EBC10266
:100A400002EB0111401EB0FBF1F0401CC0F30B00A3
:100A500040F4804040F400402168C861D4E90701B7
:100A6000084321680860D4E90310084321688860BE
:100A7000D4E9050108432168C8602068016841F095
:100A8000010101602564202084F83D00256384F87D
:100A90003E50002070BD00E008E001EB4106421E20
:100AA000B2FBF6F2521CC6E70120D5E701EB41018B
:100AB000401EB0FBF1F0401CC0F30B00CAE7000081
:100AC000A086010080841E0000093D0040420F0006
:100AD0002DE9F84F1F4690468A460446DDF82890D7
:100AE000FFF750FF054694F83D0020287ED11923DA
:100AF000012278492046009500F0DBFE0028F5D160
:100B000094F83C00012871D0012084F83C00206852
:100B10000168C90703D1016841F001010160206843
:100B2000016821F400610160222084F83D0010205A
:100B300084F83E0000262664C4F824806785664851
:100B4000E062608D20852B464A465146204600F0E3
:100B5000B5FD28B1206C84F83C60042850D073E0C7
:100B6000208D5E4F68B1012814D0022820680168EA
:100B70001ED041F480610160206841698069009065
:100B80009AE02068416981690091016841F400712F
:100B9000016091E02068016821F48061016072B613
:100BA0002068416981690091016841F400710AE09F
:100BB00041F40061016072B6206841698169009169
:100BC000016821F48061016062B675E0032850D8A5
:100BD00001280CD002284B464FF00002394620462F
:100BE000009512D000F065FE70BB13E070E02A465D
:100BF0004946204600F0D2FE28B1206C202823D0A0
:100C00000120BDE8F88F20684BE000F052FED8B913
:100C100072B61BE02068016821F48061016072B641
:100C200020680169606A421C62620170208D401E6A
:100C30002085608D401E60854B4600223946204647
:100C4000009500F036FE08B10320DAE7206801685D
:100C500041F40071016020680169606A421C6262AF
:100C60000170208D401E2085608D401E608562B61B
:100C7000C9E72A464946204600F090FE0028BCD12C
:100C800020680169606A421C62620170208D401E0A
:100C90002085608D401E608520684169C9434907F1
:100CA0000AD40169606A421C62620170208D401E94
:100CB0002085608D401E6085208D002886D12020F3
:100CC00084F83D0084F83E6084F83C60002098E79A
:100CD000022096E7020010000000FFFF0400010060
:100CE0002DE9F84F1F4690468A460446DDF82890C5
:100CF000FFF748FE064694F83D0020287ED11923D0
:100D0000012243492046009600F0D3FD00287DD102
:100D100094F83C00012879D0012084F83C00206838
:100D20000168C90703D1016841F001010160206831
:100D3000016821F400610160212084F83D00102049
:100D400084F83E0000252564C4F824806785314876
:100D5000E062608D208533464A465146204600F0C9
:100D60001DFD28B1206C84F83C5004284CD00DE0C7
:100D7000206841698069009030E03246494620464B
:100D800000F03DFE28B1206C042838D00320BDE8D7
:100D9000F88F606A411C6162216800780861608D8B
:100DA000401E6085208D401E80B2208521684A69E2
:100DB000D24352070BD450B1606A421C6262007881
:100DC0000861608D401E6085208D401E2085324662
:100DD0004946204600F046FD0028D4D1208D002849
:100DE000CBD154F83D0B016841F400710160202023
:100DF00004F81E09E57765770020C8E706E020685B
:100E0000016841F4007101600120C0E70220BEE7E3
:100E1000020010000000FFFF00B500680C4985B01B
:100E2000884212D1C020009012200190032003902C
:100E300069460848FFF7C8FC0748C16941F400113A
:100E4000C161C06900F40010049005B000BD00004D
:100E500000540040000C014000100240024881682C
:100E600002781144816070471C000020074810B5CB
:100E7000016841F010010160032000F091F80020AA
:100E800000F006F800F024F8002010BD0020024019
:100E900070B50D4D04464FF47A712878B1FBF0F02F
:100EA0000A490968B1FBF0F000F021FB48B9102CA9
:100EB00007D200222146501E00F052F800206C603C
:100EC00070BD012070BD00001C0000202800002023
:100ED000214808B5816941F001018161816901F012
:100EE00001010091C16941F08051C161C06900F008
:100EF00080500090032000F053F8002211466FF05C
:100F00000B0000F02DF8002211466FF00A0000F0EF
:100F100027F8002211466FF0090000F021F80022A6
:100F20001146501F00F01CF800221146101F00F05F
:100F300017F800221146901E00F012F80022114608
:100F4000501E00F00DF80548416821F0E06141F0C5
:100F50008061416008BD00000010024000000140B7
:100F6000F0B40E4B1B680C46C3F30223C3F1070514
:100F7000042D00D90425191D072901D2002300E002
:100F8000DB1E012606FA05F1491E214099409E40CC
:100F9000761E16403143F0BC00F086BE0CED00E03A
:100FA000064900F0070208684FF6FF03184040EAC0
:100FB0000220034A10430860704700000CED00E077
:100FC0000000FA052DE9F047DFF83C8105460E46A2
:100FD000D8F8000000F00700B0420CD2D8F800109A
:100FE00021F007013143C8F80010D8F8000000F0E4
:100FF0000700B04263D12878444C800705D560686B
:10100000A96820F0F000084360602878C00745D048
:101010006868012816D02168022816D0890700299F
:101020004DDA616821F0030101436160FFF7AAFC1A
:101030006968074641F2883001290FD002298146AC
:1010400019D027E021688903E9E78901E7E700BFB4
:10105000FFF798FCC11B494501D918E0814660683B
:10106000C0F381000128F3D118E000BFFFF78AFC2C
:10107000C11B49450BD86068C0F381000228F5D137
:101080000CE000BFFFF77EFCC11B494502D90320DD
:10109000BDE8F087606810F00C0FF3D1D8F80010AD
:1010A000404601F00701B1420BD9016821F0070168
:1010B00031430160006800F00700B04201D0012018
:1010C000E6E72878400705D56068E96820F4E06025
:1010D000084360602878000706D56068296920F415
:1010E000605040EAC100606000F03CF86168084A66
:1010F000C1F30311515CC840064908600020FFF7A6
:10110000C7FE0020C4E7000000200240001002409B
:10111000942900082800002001480068704700005A
:10112000280000200448054900684968044AC1F3C2
:101130000221515CC8407047280000200010024086
:10114000A42900080448054900684968044AC1F315
:10115000C221515CC84070472800002000100240A6
:10116000A429000812A185B00FC98DE80F0014A0B2
:10117000144A006804905168134801F00C03042BD2
:1011800010D0082B0ED1C1F38343C9031DF803000F
:101190000AD5516804AAC1F34041515C0A4A504340
:1011A000B0FBF1F005B0704708494843FAE700008A
:1011B00002030405060708090A0B0C0D0E0F101098
:1011C000010200000010024000127A0000093D00F8
:1011D0002DE9F84F04460078B94DC00748D068683B
:1011E000C0F38100012807D06868C0F3810002289D
:1011F00009D16868C00306D52868800338D56068BF
:1012000000286FD034E06068B0F5803F0BD010B19B
:10121000B0F5A02F11D0286820F48030286028680D
:1012200020F4802002E0286840F480302860606864
:1012300088B1FFF7A7FB064609E0286840F4802044
:101240002860F0E7FFF79EFB801B642875D82868AC
:101250008003F7D50CE0FFF795FB064605E000BFDD
:10126000FFF790FB801B6428F0D828688003F7D430
:101270002078944E80074FF001094FF000083BD5CD
:10128000686810F00C0F07D06868C0F3810002286E
:1012900009D16868C00306D42868800714D520697E
:1012A00001281FD110E02069B0B1C6F80090FFF707
:1012B00069FB074605E000BFFFF764FBC01B02287F
:1012C000C4D828688007F7D52868616920F0F8003D
:1012D00040EAC10028600FE0C6F80080FFF752FB2B
:1012E000074606E0E9E000BFFFF74CFBC01B022801
:1012F00023D828688007F7D4207800072CD57248B7
:10130000A169D9B1C0F80090FFF73CFB074604E0A3
:10131000FFF738FBC01B02280FD8686A8007F7D593
:101320006A484FF4FA510068B0FBF1F0009000BF3A
:101330000098411E0091FAD20EE080E0C0F80080D3
:10134000FFF720FB074604E0FFF71CFBC01B022849
:1013500075D8686A8007F7D42078400760D5E869B7
:101360000027C00008D4E86940F08050E861E869CF
:10137000012700F08050009055480168C90513D43A
:101380000168834641F480710160FFF7FBFA8246F1
:1013900006E000BFFFF7F6FAA0EB0A0064284ED87B
:1013A000DBF80000C005F5D5E06801280AD008B1D7
:1013B000052813D0286A20F001002862286A20F04E
:1013C000040002E0286A40F001002862E06841F26F
:1013D000883B98B1FFF7D6FA82460BE0286A40F0C6
:1013E00004002862EEE700BFFFF7CCFAA0EB0A0189
:1013F00059455AD8286A8007F6D50CE0FFF7C2FA9B
:10140000824605E0FFF7BEFAA0EB0A0159454CD829
:10141000286A8007F6D41FB1E86920F08050E8619F
:10142000E06988B36968C1F38101022945D00228C7
:10143000C6F8608004D0FFF7A5FA044638E034E02F
:10144000FFF7A0FA074604E0FFF79CFAC01B02284A
:101450002BD828688001F7D4206AB0F5803F05D1E9
:101460006868A16820F4003008436860D4E9080186
:101470000843696821F4741108436860C6F86090F5
:10148000FFF780FA044606E015E000BFFFF77AFA9E
:10149000001B022809D828688001F7D50BE000BF9F
:1014A000FFF770FA001B022802D90320BDE8F88F6D
:1014B00028688001F4D40020F8E70120F6E7000056
:1014C00000100240000042428004424228000020F6
:1014D000007000404FF0E0210428086903D020F09C
:1014E00004000861704740F00400FAE7704710B547
:1014F000401EB0F1807F01D3012010BD4FF0E024E9
:1015000060610F21601700F0CFFB0020A061072071
:101510002061002010BD10B5FFF7E8FF10BD70B5C9
:10152000040004D094F83900002510B106E0012031
:1015300070BD84F83850204600F022F8242084F84A
:1015400039002068C16821F40051C160204600F0D4
:1015500015FC2068016921F490410161206841690E
:1015600021F02A0141612068C16841F40051C16045
:10157000E563202084F8390084F83A00002070BD2B
:1015800010B50068114986B088421DD110488169A4
:1015900041F48041816180690E4C00F480400490E8
:1015A0004FF40070009002200190032003906946E0
:1015B0002046FFF709F900212015CDE9000102912D
:1015C00069462046FFF700F906B010BD003801401B
:1015D00000100240000801402DE9F843044690F84D
:1015E00039001F4616460D46202850D1A5B19EB1A0
:1015F00094F8380001284AD0012084F838004FF0D0
:101600000008C4F83C80212084F83900FFF7BAF9BB
:10161000A6848146E68426E00120BDE8F883E08CBC
:10162000401EE084A0684B46B0F5805F4FF000029A
:101630004FF080012046009703D000F057FCE8B936
:101640000DE000F053FCC8B928882168C0F30800F9
:101650004860206908B16D1C05E0AD1C03E02168FD
:1016600015F8010B4860E08C0028D8D14B460022C9
:1016700040212046009700F039FC08B10320CCE758
:10168000202084F8390084F838800020C5E7022043
:10169000C3E7FEE701684A69D24352050CD46FF4F0
:1016A00080624A6104210164002140F8301F202239
:1016B0004273017301207047002070472DE9F84FF5
:1016C0000446C06A1E4692460D4621680A6842F4E6
:1016D00080620A60042807D0012805D010F5803FF9
:1016E00002D0206B112804D12068016841F4807178
:1016F00001604FF0011853460022414620460096F3
:1017000000F0D7F8B8BB206908F10109B0F5804FA7
:1017100012D00620216800EAD51747F0F0000861D2
:101720003346524608F10701204600F0F3F838B17D
:10173000206C04282FD01EE0E8B240F001001FE02A
:101740002168E8B20861334652464946204600F017
:10175000E1F80028ECD120684169816900910168B5
:1017600041F48071016053460022414620460096B4
:1017700000F09FF810B10320BDE8F88F47F0F100AA
:1017800021680861334652464946204600F0C2F8B7
:101790000028CDD1F0E70120EEE70000F8B50446BF
:1017A000C06A1E460D461746042807D0012805D0FA
:1017B00010F5803F02D0206B122804D12068016808
:1017C00041F480710160134600224FF00111204660
:1017D000009600F06EF8A0B92069B0F5804F12D0E5
:1017E0000620216800EAD51040F0F0000861334679
:1017F0003A460E49204600F08DF838B1206C042896
:1018000011D00320F8BD05F0FE0000E0E8B2216829
:101810000861064933463A46891F204600F07AF8A7
:101820000028EBD1F8BD0120F8BD00000800010040
:101830007CB515468DF804000A200E46D024009091
:10184000012301AA21460648FFF74AFA64200090C6
:101850002B46324621460248FFF73AF97CBD00008C
:101860003C01002070B516460D4604461AE020469D
:10187000FFF710FF08B1012070BD681C12D025B120
:10188000FFF780F8801BA8420CD954F8400F40F0B5
:10189000200044F81009002020602021617320738B
:1018A000032070BD20684069C0434007DFD400209A
:1018B00070BD2DE9F0471E4690460D460446C1F323
:1018C0000747DDF8209012E0701C10D02EB1FFF712
:1018D00059F8A0EB0900B04209D9002044F8300FB4
:1018E00020216173A07320730320BDE8F087206876
:1018F000012F0AD0806925EA00000004000C06D000
:1019000000214145E0D00020EFE74069F3E70121E5
:10191000F7E700002DE9F0479A4691460D46044648
:1019200000264FF02008C1F307472AE020684069ED
:10193000C043400512D42068016841F40071016081
:1019400021686FF48060486104202064266384F875
:101950003D8084F83C600120BDE8F087B9F1FF3F8D
:101960000FD0B9F1000F05D0FFF70CF8A0EB0A017A
:10197000494506D944F8306F84F80D80267303205A
:10198000EAE72068012F07D0D0F8180025EA000008
:101990000004000CE0D0C9E74069F7E72DE9F04109
:1019A000002590460E460446202721E04069C043AA
:1019B000C0060CD421686FF01000486125642563CF
:1019C00084F83D7084F83C500120BDE8F0812EB1D0
:1019D000FEF7D8FFA0EB0800B04209D954F8400F39
:1019E00040F0200044F80409677025700320ECE7FC
:1019F00020684169C9434906D8D40020E5E770B59D
:101A000016460D4604461AE02046FFF743FE08B18D
:101A1000012070BD681C12D025B1FEF7B3FF801BFA
:101A2000A8420CD954F8400F40F0200044F81009A7
:101A300000202060202161732073032070BD206886
:101A40004069C0430006DFD4002070BD1CB50223EE
:101A50008DF8040064208DF805100090D02101AAB3
:101A60000148FFF73DF91CBD3C01002070B504465C
:101A700080216B20FFF7EAFF6420FEF793FE2078B9
:101A80002179402200F0070002EA811101436B2016
:101A9000FFF7DCFF6420FEF785FEE07800F0070129
:101AA0001A20FFF7D3FF6078182505EAC0011B2034
:101AB000FFF7CCFFA07805EAC0011C20FFF7C6FFA6
:101AC000042000F0CFF8A2781049114832B1012A61
:101AD00006D0022A06D0032A06D10EE0C16003E038
:101AE0000C4A00E00C4AC260627842B1012A08D078
:101AF000022A08D0032A08D106E0084AF3E7084979
:101B000002E0084900E00849016170BD00007A3D2B
:101B1000000000200000FA3D00007A3E0000FA3E7E
:101B20000000FA3B00007A3C0000FA3C10B586B099
:101B3000044601223A200DF10101FFF779FE9DF8DC
:101B40000100002834D0062201A93B20FFF770FED7
:101B50009DF805009DF80410062200EB012020806E
:101B60009DF807009DF8061000EB012060809DF8AD
:101B700009009DF8081000EB0120A08003A9432074
:101B8000FFF756FE9DF80D009DF80C1000EB0121AB
:101B9000084801809DF80F109DF80E2001EB0221EE
:101BA00041809DF811109DF8102001EB02218180E9
:101BB00006B010BD140000207CB504466846FFF74F
:101BC000B5FFBDF90000FEF708FB0B49C9680D46DB
:101BD000FEF7D1FA2060BDF90200FEF7FEFA2946B1
:101BE000FEF7C9FA6060BDF90400FEF7F6FA29466F
:101BF000FEF7C1FAA0607CBD0000002003490A88FE
:101C000002804A88428089888180704714000020C1
:101C10007CB504466846FFF7F1FFBDF90000FEF70A
:101C2000DCFA0B4909690D46FEF7A5FA2060BDF9FB
:101C30000200FEF7D2FA2946FEF79DFA6060BDF970
:101C40000400FEF7CAFA2946FEF795FAA0607CBDAB
:101C500000000020014654220148FEF773BA00003C
:101C60003C01002001461920FFF7F0BE0B4810B5DB
:101C7000094901600A49416000214FF480428160B6
:101C8000C0E9031241618161C1610162FEF780FE1A
:101C9000002800D0FEE710BD005400402C000020BA
:101CA000A0860100FEE770470907090E002806DA42
:101CB00000F00F0000F1E02080F8141D704700F1E3
:101CC000E02080F8001470477047704710B5FFF7A8
:101CD000C5F8BDE81040FFF71EBC10B590B002205B
:101CE000009001200490102000240590079468467D
:101CF000FFF76EFA00B1FEE70F20CDE90A040C945D
:101D00000D9400210AA80E94FFF75CF900B1FEE7DC
:101D1000FFF702FA4FF47A71B0FBF1F0FFF7E7FB3F
:101D20000420FFF7D7FB00221146501EFFF718F9D9
:101D300010B010BD0D48016841F00101016041681B
:101D40000B4A1140416001680A4A11400160016874
:101D500021F480210160416821F4FE0141604FF4CB
:101D60001F0181600449C0030860704700100240F1
:101D70000000FFF8FFFFF6FE08ED00E02DE9F0415E
:101D8000044600680169E26821F440511143016191
:101D90002169A0680843616908432168CA6841F263
:101DA0000C639A430243CA6020684169A26921F426
:101DB0004071114341614C492068642532268842B4
:101DC0003CD1FFF7BFF900EBC00101EB00106168E7
:101DD0008900B0FBF1F7FFF7B5F900EBC00101EBAB
:101DE00000106168B0468900B0FBF1F0B0FBF5F07F
:101DF0006FF01801484307EB800106EB0110B0FBC0
:101E0000F5F000F0F006FFF79DF900EBC00101EBE3
:101E1000001061688900B0FBF1F0B0FBF5F006EB53
:101E20000016FFF78FF900EBC00101EB00106168AD
:101E30008900B0FBF1F7FFF785F93BE0FFF772F996
:101E400000EBC00101EB001061688900B0FBF1F705
:101E5000FFF768F900EBC00101EB00106168B046C4
:101E60008900B0FBF1F0B0FBF5F06FF018014843CA
:101E700007EB800106EB0110B0FBF5F000F0F00677
:101E8000FFF750F900EBC00101EB00106168890019
:101E9000B0FBF1F0B0FBF5F006EB0016FFF742F9EE
:101EA00000EBC00101EB001061688900B0FBF1F7A5
:101EB000FFF738F900EBC00101EB00106168890001
:101EC000B0FBF1F0B0FBF5F06FF01801484307EB01
:101ED000800108EB0110B0FBF5F0216800F00F0065
:101EE00030448860BDE8F081003801402DE9F041C0
:101EF000984617460E460446069D1DE0681C1BD0FA
:101F00002DB1FEF73FFDA0EB0800A84214D92068D0
:101F1000C16821F4D071C1602068416921F00101DC
:101F20004161202084F8390084F83A00002084F8C8
:101F300038000320BDE8F0812068006836EA000020
:101F400004D00020B842D9D00020F3E70120F9E7FF
:101F5000FEE700000FB4084B10B504A902AA0398CD
:101F600000F0DEF8044602A9002000F070FC2046D4
:101F700010BC5DF814FB00004F28000802E008C800
:101F8000121F08C1002AFAD170477047002001E0F3
:101F900001C1121F002AFBD1704700002DE9FF5F2D
:101FA00082B00021DDE90430020DDDF840B00343CA
:101FB00018D044F61050A2F2FF3242431514119883
:101FC00001281FD0A5EB0B00401C5FEA000A4FF070
:101FD00000064E4FDFF83891B046504615D5CAF18D
:101FE000000413E0119801244AA3012801D16FEAEB
:101FF0000B010298119AC0E90031C0E9024206B013
:10200000BDE8F09FCBF10000DFE704460021404A25
:10201000491842EB0450CDE9001012E0E00707D068
:1020200032463B4640464946FEF718FA8046894606
:1020300032463B4610461946FEF710FA06460F4652
:102040006410002CEAD1DDE90401DDE90023BAF1D6
:10205000000F06DAFEF702FA42464B46FEF7FEF99B
:1020600005E0FEF76DFA42464B46FEF769FA044674
:102070000E460022284BFEF7EBFA03D84FF0FF3054
:10208000014607E00022254B20463146FEF73FF986
:10209000FEF7C5FA102409E0002C0ADB0A2200230F
:1020A000FEF7CDF8039B30321A55641E50EA010248
:1020B000F2D1641C039AC4F111031444119A012A49
:1020C00003D0012208430DD10AE0084304D00020C8
:1020D0004FF0110B119072E7A3EB0B056D1E0DE095
:1020E0005B4504DD4FF0000205F1010504E003DA71
:1020F0004FF00002A5F10105002AECD002981199D9
:10210000C0E90231C0E9004579E700000000144051
:102110000000F03F300000000000F0430000E03F0E
:102120002DE9FF4F95B09B468946064600250FE2F4
:10213000252877D100242746F84A0121059400E09C
:10214000044316F8013F203B01FA03F01042F7D197
:1021500030782A2811D06FF02F033078A0F13002A8
:10216000092A16D8059A44F0020402EB820203EB16
:1021700042021044761C0590EFE759F8042B0592B3
:10218000002A03DA504244F40054059044F002045B
:10219000761C30782E2816D116F8010F44F004046E
:1021A0002A280DD06FF02F023078A0F13003092BD0
:1021B00009D807EB870302EB4303C718761CF3E744
:1021C00059F8047B761C30786C280FD006DC4C283C
:1021D00017D068280DD06A2814D104E0742810D0D4
:1021E0007A280FD10DE044F400140AE044F480147E
:1021F00001E044F440147278824202D104F5801464
:10220000761C761C307866280BD013DC582877D0E3
:1022100009DC002875D04528F6D04628F4D0472898
:102220001AD19DE118E0632835D0642879D065285B
:1022300012D195E1702873D008DC6728F1D06928A5
:102240006FD06E280DD06F2806D1B5E073282CD042
:10225000752875D0782874D05A46179990476D1C08
:1022600075E1C4F30250022809D003280DD0D9F833
:10227000001004280DD00D6009F1040967E1D9F8B8
:102280000010EA17C1E90052F6E7D9F800100D80F6
:10229000F2E70D70F0E719F8041B8DF8001000202C
:1022A0008DF80100EA46012003E059F804AB4FF035
:1022B000FF3061074FF0000102D40DE008F1010189
:1022C0008846B9420FDA8045F8DB1AF80810002971
:1022D000F4D108E008F1010188468142FADB1AF8DE
:1022E00008100029F6D105985B46A0EB08072146A7
:1022F0003846179A00F094FA284400EB080507E0E6
:102300004DE029E10DE01AF8010B5A461799904764
:10231000B8F10108F7D25B4621463846179A13E117
:1023200042E00A220092C4F302524FF0000A022A4D
:1023300008D059F804CB032A4FEAEC710AD00DE01B
:1023400029E02AE009F1070121F00702F2E802C1C1
:10235000914609E00FFA8CFC4FEAEC71042A03D194
:102360004FFA8CFC4FEAEC71002907DA0A4600218B
:10237000DCF1000C61EB02012D2202E0220504D504
:102380002B228DF80420012203E0E20701D0202255
:10239000F7E7904659E00A2102E010220DE01021F3
:1023A0004FF0000A00910BE010224FF0000A44F0B9
:1023B00004040827009203E008224FF0000A00926C
:1023C000C4F30252022A05D059F804CB0021032A93
:1023D00008D009E009F1070121F00702F2E802C183
:1023E000914605E01FFA8CFC042A01D10CF0FF0C89
:1023F0004FF00008220728D5702806D0009B83F0F4
:10240000100353EA0A0305D00EE040228DF80420A1
:10241000012208E05CEA010206D030228DF8042097
:102420008DF8050002229046009B83F0080353EAD2
:102430000A030AD15CEA010201D1620705D5302204
:102440008DF804204FF001087F1E582804D034A0D6
:1024500003900EA802900DE036A0F9E753466046BF
:10246000009AFDF7ECFE84460398825C0298401EB9
:10247000029002705CEA0100F0D1029806A9081AE5
:1024800000F1200A600702D524F4803400E001271F
:10249000574502DDA7EB0A0000E0002000EB0A012F
:1024A000009005984144401A0590E00306D45B462D
:1024B0002146179A059800F0B3F90544002706E075
:1024C00001A85A46C05D179990476D1C7F1C47456F
:1024D000F6DBE0030CD55B462146179A059800F021
:1024E0009FF9054404E030205A46179990476D1C27
:1024F0000099481E00900029F5DC08E00298029936
:102500005A460078491C0291179990476D1CBAF100
:102510000001AAF1010AF1DC65E1000009280100CF
:102520003031323334353637383961626364656649
:10253000000000003031323334353637383941420B
:10254000434445460000000000F058F90544761C5D
:10255000307800287FF4ECAD19B02846BDE8F08F44
:10256000620700D4062709F1070222F0070CFCE8F5
:102570000223E14603F000485FEA080C02D00FF2A4
:10258000702C0DE05FEA045C02D50FF2682C07E0C6
:102590005FEAC47C02D00FF2602C01E0AFF2700C55
:1025A0004FF0FF3823F00043CDF850C065280CD021
:1025B00006DC452809D046281DD047283DD13DE0FE
:1025C000662818D067287ED138E00021112F01DB62
:1025D000112000E0781CCDE9000106A90EA8FFF744
:1025E000DDFCDDE90F010E9A03910021009207F155
:1025F000010A04914DE04FF000400097CDE9011031
:1026000006A90EA8FFF7CAFCDDE90F0203920E9B94
:1026100011990022DDF80CA00093049211B9791CE5
:1026200000EB010AB7EB0A0004D4C0F1FF3007F158
:10263000010A0490AAEB0700019044E0012F00DAA0
:1026400001270021112F01DD112000E03846CDE9DE
:10265000000106A90EA8FFF7A1FCDDE90F010E9A03
:102660000391002104910092BA4621070CD40399EA
:10267000514500DA8A46BAF1010F05DD009AAAF148
:102680000101515C302908D0B84202DA10F1040F80
:1026900006DA0121CDE9011015E0AAF10101E9E70F
:1026A000002805DC049901440491AAEB000102E032
:1026B000411C514500DD8A460499401A401C019096
:1026C0004FF000400290200704D40198504501DBF0
:1026D000CDF8048000208DF84F0002980DF14F07CF
:1026E000B0F1004F25D02B200E9002984FF0020839
:1026F00000280CDA404202902D200E9007E00A21BB
:102700000298FDF786FD3031029007F8011DB8F1FF
:102710000001A8F10108F2DC02980028EFD1791E2F
:102720000E980870307800F0200040F0450007F85F
:10273000020D12A8C01B00F107081498007800B120
:10274000012000EB0A01019801EBE071059841447A
:10275000401A401E0590E00306D45B462146179AB6
:10276000059800F05DF805441498007818B15A46B1
:10277000179990476D1CE00324D55B462146179AB4
:10278000059800F04DF805441CE00498002807DB8C
:10279000DDE90301884203DD0098405C179901E000
:1027A000179930205A469047049805F10105401CBE
:1027B00004900198401E019004D12E205A4617998A
:1027C00090476D1CBAF10001AAF1010ADDDC05E0B9
:1027D00017F8010B5A46179990476D1CB8F1000184
:1027E000A8F10108F4DC5B462146179A0598ABE690
:1027F0002D0000002B000000200000002DE9F0411A
:10280000044600251E461746880404D405E03946D0
:102810002020B0476D1C641EF9D52846BDE8F08124
:102820002DE9F041044600251E469046C80301D517
:10283000302700E02027880404D505E041463846CB
:10284000B0476D1C641EF9D52846BDE8F0810A68C2
:10285000531C0B60107070478CB0FEF707FBFFF73E
:102860003CFA3D48816941F004018161816901F0D0
:1028700004010091816941F008018161806900F0E3
:1028800008000090FFF7F2F9354834490024016050
:102890004FF41651C0E901140C21C460C0E9044191
:1028A0008461C461FEF73BFE00B1FEE72C4854385A
:1028B000FFF7D0F98DF82A408DF828408DF82B408D
:1028C00001208DF829008DF82C400AA8FFF7CEF8DA
:1028D00023484030FFF770F921484C30FFF798F952
:1028E0001F4C4C34A068FDF781FC81460291606862
:1028F000FDF77CFC074601912068FDF777FC0C3C56
:1029000082468B46A068FDF771FC064688466068E3
:10291000FDF76CFC00900D462068FDF767FC0B4648
:1029200002990DF1040CCDE9089101990246CDE917
:1029300006718CE8600D0BA104F11800FFF70AFB8B
:1029400004F11800FDF710FC82B2642304F11801B1
:102950000348FEF741FEBBE700100240003801408B
:10296000800000204163656C65726F6D6574726FE5
:102970003A2025662C25662C25660A4769726F73F6
:10298000636F70696F3A2025662C25662C25660AD0
:10299000000000000000000000000000010203042D
:1029A000060708090000000001020304CC29000802
:1029B000000000202C0000007C1F0008F8290008FF
:1029C0002C000020640500008C1F0008000000009F
:1029D00000000000000000000000000000000000F7
:1029E00000000000000000000100000010000000D6
:0829F0000000000000A24A04EF
:04000005080000ED02
:00000001FF
