:020000040800F2
:100000005004002001010008770C0008ED0B0008E7
:10001000750C0008490100081D0F000800000000D1
:100020000000000000000000000000009B0C000821
:100030004B01000800000000990C00089D0C00080E
:100040001B0100081B0100081B0100081B01000820
:100050001B0100081B0100081B0100081B01000810
:100060001B0100081B0100081B0100081B01000800
:100070001B0100081B0100081B0100081B010008F0
:100080001B0100081B0100081B0100081B010008E0
:100090001B0100081B0100081B0100081B010008D0
:1000A0001B0100081B0100081B0100081B010008C0
:1000B0001B0100081B0100081B0100081B010008B0
:1000C0001B0100081B0100081B0100081B010008A0
:1000D0001B0100081B0100081B0100081B01000890
:1000E0001B0100081B0100081B010008DFF80CD0F1
:1000F00000F018F8004800473D0F000850040020A9
:100100000648804706480047FEE7FEE7FEE7FEE7B1
:10011000FEE7FEE7FEE7FEE7FEE7FEE70D0D00085F
:10012000ED000008064C074D06E0E06840F00103D2
:1001300094E8070098471034AC42F6D3FFF7DAFF93
:10014000E00F000800100008FEE7704770B5044695
:1001500000F0ECF80546601C02D004480078044426
:1001600000F0E4F8401BA042FAD370BD000000206C
:100170002DE9F84FDFF890A100220AF1040B144694
:1001800001274FF00F090BF1040E00BF0B6807FAAF
:1001900004F52B40AB4274D1DFF870C14E68A6EB7A
:1001A0000C0866452BD00DDC032E34D005DC36B3AD
:1001B000012E19D0022E2FD11BE0112E16D0122E97
:1001C0002AD119E0B8F5881F19D006DCB8F5803FB0
:1001D00015D0B8F5801F1FD111E0B8F5001F0ED063
:1001E000B8F5041F18D10AE0CA6815E0CA68121DE4
:1001F00012E0CA6808320FE0CA680C320CE08A6864
:100200002AB1012A4FF0080203D0456104E004221C
:1002100002E0056100E00022FF2B01D8064601E064
:1002200000F104064FEA840501D9A5F12005D6F8AE
:1002300000C009FA05F82CEA080C02FA05F54CEAA8
:10024000050CC6F800C04D68ED0057D5304DAE69BD
:1002500046F00106AE61AD6924F0030605F0010524
:1002600000952C4D06EB050CDCF80850A6074FEA6C
:10027000167809FA08F6B543274EB04202D1002697
:1002800010E03BE0254EB04201D101260AE0244EA9
:10029000B04201D1022605E0224EB04201D1032630
:1002A00000E0042606FA08F62E43CCF808604D68F4
:1002B000DAF80060ED03554601D51E4300E09E4389
:1002C0002E604D68DBF80060AD035D4601D51E432E
:1002D00000E09E432E604D68DEF80060ED0275463A
:1002E00001D51E4300E09E432E604D68AD020E4DC9
:1002F0002E6801D51E4300E09E432E60641C102C26
:10030000FFF444AFBDE8F88F000401400000111075
:10031000001002400000014000080140000C0140B4
:1003200000100140001401400C04014001488068A5
:1003300070470000000000200248816802781144E4
:100340008160704700000020074810B5016841F047
:1003500010010160032000F091F8002000F006F881
:1003600000F024F8002010BD0020024070B50D4DB3
:1003700004464FF47A712878B1FBF0F00A49096815
:10038000B1FBF0F000F001FB48B9102C07D20022BD
:100390002146501E00F052F800206C6070BD012014
:1003A00070BD0000000000200C000020214808B5AE
:1003B000816941F001018161816901F001010091D0
:1003C000C16941F08051C161C06900F08050009066
:1003D000032000F053F8002211466FF00B0000F0EC
:1003E0002DF8002211466FF00A0000F027F80022D5
:1003F00011466FF0090000F021F800221146501F4D
:1004000000F01CF800221146101F00F017F800221F
:100410001146901E00F012F800221146501E00F006
:100420000DF80548416821F0E06141F080614160CC
:1004300008BD00000010024000000140F0B40E4B67
:100440001B680C46C3F30223C3F10705042D00D932
:100450000425191D072901D2002300E0DB1E012617
:1004600006FA05F1491E214099409E40761E16402D
:100470003143F0BC00F000BC0CED00E0064900F098
:10048000070208684FF6FF03184040EA0220034ABB
:1004900010430860704700000CED00E00000FA0512
:1004A0002DE9F047DFF83C8105460E46D8F80000FC
:1004B00000F00700B0420CD2D8F8001021F007017C
:1004C0003143C8F80010D8F8000000F00700B0422F
:1004D00063D12878444C800705D56068A96820F06E
:1004E000F000084360602878C00745D0686801289C
:1004F00016D02168022816D0890700294DDA6168D4
:1005000021F0030101436160FFF710FF69680746AE
:1005100041F2883001290FD00229814619D027E005
:1005200021688903E9E78901E7E700BFFFF7FEFEDD
:10053000C11B494501D918E081466068C0F38100BC
:100540000128F3D118E000BFFFF7F0FEC11B4945B9
:100550000BD86068C0F381000228F5D10CE000BF21
:10056000FFF7E4FEC11B494502D90320BDE8F0872F
:10057000606810F00C0FF3D1D8F80010404601F07D
:100580000701B1420BD9016821F007013143016035
:10059000006800F00700B04201D00120E6E72878AB
:1005A000400705D56068E96820F4E06008436060B2
:1005B0002878000706D56068296920F4605040EA71
:1005C000C100606000F01CF86168084AC1F30311C3
:1005D000515CC840064908600020FFF7C7FE0020B4
:1005E000C4E700000020024000100240D00F0008C5
:1005F0000C00002001480068704700000C0000203B
:1006000012A185B00FC98DE80F0014A0144A00682C
:1006100004905168134801F00C03042B10D0082BF0
:100620000ED1C1F38343C9031DF803000AD55168F5
:1006300004AAC1F34041515C0A4A5043B0FBF1F0B7
:1006400005B0704708494843FAE700000203040573
:10065000060708090A0B0C0D0E0F1010010200000E
:100660000010024000127A0000093D002DE9F84F09
:1006700004460078B94DC00748D06868C0F38100CF
:10068000012807D06868C0F38100022809D1686892
:10069000C00306D52868800338D5606800286FD06D
:1006A00034E06068B0F5803F0BD010B1B0F5A02FFA
:1006B00011D0286820F480302860286820F4802039
:1006C00002E0286840F480302860606888B1FFF755
:1006D0002DFE064609E0286840F480202860F0E7F7
:1006E000FFF724FE801B642875D828688003F7D59F
:1006F0000CE0FFF71BFE064605E000BFFFF716FE05
:10070000801B6428F0D828688003F7D42078944EA2
:1007100080074FF001094FF000083BD5686810F0E2
:100720000C0F07D06868C0F38100022809D16868FF
:10073000C00306D42868800714D5206901281FD17A
:1007400010E02069B0B1C6F80090FFF7EFFD074652
:1007500005E000BFFFF7EAFDC01B0228C4D82868E7
:100760008007F7D52868616920F0F80040EAC100E9
:1007700028600FE0C6F80080FFF7D8FD074606E0C6
:10078000E9E000BFFFF7D2FDC01B022823D828688C
:100790008007F7D4207800072CD57248A169D9B119
:1007A000C0F80090FFF7C2FD074604E0FFF7BEFD6A
:1007B000C01B02280FD8686A8007F7D56A484FF433
:1007C000FA510068B0FBF1F0009000BF0098411EA4
:1007D0000091FAD20EE080E0C0F80080FFF7A6FD9D
:1007E000074604E0FFF7A2FDC01B022875D8686A1F
:1007F0008007F7D42078400760D5E8690027C0005B
:1008000008D4E86940F08050E861E869012700F009
:100810008050009055480168C90513D4016883468B
:1008200041F480710160FFF781FD824606E000BF60
:10083000FFF77CFDA0EB0A0064284ED8DBF800002F
:10084000C005F5D5E06801280AD008B1052813D005
:10085000286A20F001002862286A20F0040002E0E3
:10086000286A40F001002862E06841F2883B98B1B4
:10087000FFF75CFD82460BE0286A40F00400286226
:10088000EEE700BFFFF752FDA0EB0A0159455AD829
:10089000286A8007F6D50CE0FFF748FD824605E0A0
:1008A000FFF744FDA0EB0A0159454CD8286A8007A0
:1008B000F6D41FB1E86920F08050E861E06988B3A0
:1008C0006968C1F38101022945D00228C6F8608019
:1008D00004D0FFF72BFD044638E034E0FFF726FD97
:1008E000074604E0FFF722FDC01B02282BD828682A
:1008F0008001F7D4206AB0F5803F05D16868A1680F
:1009000020F4003008436860D4E9080108436968AE
:1009100021F4741108436860C6F86090FFF706FD83
:10092000044606E015E000BFFFF700FD001B0228AB
:1009300009D828688001F7D50BE000BFFFF7F6FC67
:10094000001B022802D90320BDE8F88F2868800127
:10095000F4D40020F8E70120F6E700000010024080
:1009600000004242800442420C000020007000401F
:100970004FF0E0210428086903D020F0040008614A
:10098000704740F00400FAE7704710B5401EB0F120
:10099000807F01D3012010BD4FF0E02460610F2162
:1009A000601700F069F90020A06107202061002095
:1009B00010BD10B5FFF7E8FF10BD10B590F83C2052
:1009C000012A25D0012280F83C20CA688C6822F4D4
:1009D000407222434C6822F4806222430C6822F465
:1009E000006222430C6922F4805222434C6922F4B3
:1009F000005222438C6922F48042224322F40041B7
:100A0000026800232143516480F83C30002010BD6F
:100A1000022010BD30B590F83C20012A20D00122E0
:100A200080F83C20022380F83D3003685C6824F0A5
:100A300070045C6003685C680D682C435C6003684C
:100A40009C6824F080049C6003689C6849680C439F
:100A50009C6080F83D20002180F83C10084630BDA5
:100A6000022030BD1FB500680649884208D18015B4
:100A7000009002200190039069460348FFF778FB3D
:100A80001FBD0000002C01400008014070B5044665
:100A900090F83C000D4601280DD0012684F83C60FA
:100AA000022084F83D0042B1042A18D0082A2AD036
:100AB0000C2A4DD139E0022070BD206800F08CF97D
:100AC0002068816941F0080181612068816921F015
:100AD00004018161206881692A69114311E020685D
:100AE00000F0A2F92068816941F400618161206809
:100AF000816921F480618161206881692A6941EA04
:100B00000221816124E0206800F0BAF92068C169FF
:100B100041F00801C1612068C16921F00401C1618F
:100B20002068C1692A69114311E0206800F0D4F9F6
:100B30002068C16941F40061C1612068C16921F484
:100B40008061C1612068C1692A6941EA0221C161ED
:100B500084F83D60002084F83C0070BD10B50400AE
:100B600003D094F83D0010B107E0012010BD002033
:100B700084F83C00204600F00DF8022084F83D0087
:100B8000211D206800F0E6F8012084F83D000020D7
:100B900010BD000008B500680649884208D1064823
:100BA000816941F400618161806900F40060009016
:100BB00008BD0000002C01400010024010B50446A2
:100BC0000068012200F0FCF807492068884203D140
:100BD000416C41F4004141642068016841F0010129
:100BE0000160002010BD0000002C0140FEE7000065
:100BF00030B51F4891B01D490024C0E900144FF4DE
:100C0000FA75C0E90245046144618461FFF7A6FFFB
:100C100000B1FEE70E940EA915480F94FFF7FAFEF7
:100C200000B1FEE760200090CDE9015403940494E4
:100C30000594002269460E480694FFF727FF00B18D
:100C4000FEE70794089409944FF400500A94CDE904
:100C50000B4007A906480D94FFF7AFFE00B1FEE771
:100C60000348FFF7FFFE11B030BD0000002C01402B
:100C700010000020FEE770470907090E002806DA79
:100C800000F00F0000F1E02080F8141D704700F123
:100C9000E02080F8001470477047704710B5FFF7E8
:100CA0004BFBBDE81040FFF784BE30B58FB001218B
:100CB000080400240491CDE90010CDE90804029451
:100CC000022507956846FFF7D1FC00B1FEE70F202B
:100CD000CDE90A058020CDE90C0400210AA80E9474
:100CE000FFF7DEFB00B1FEE7FFF784FC4FF47A71FB
:100CF000B0FBF1F0FFF749FE0420FFF739FE0022B8
:100D00001146501EFFF79AFB0FB030BD0D48016829
:100D100041F00101016041680B4A114041600168E6
:100D20000A4A11400160016821F480210160416894
:100D300021F4FE0141604FF41F0181600449C003AA
:100D400008607047001002400000FFF8FFFFF6FE49
:100D500008ED00E0F0B50268164B174C174D4FF048
:100D60008047984205D0B84203D0A04201D0A842A3
:100D700003D122F070064A683243984205D0B84247
:100D800003D0A04201D0A84203D122F44074CA6823
:100D9000224322F080044A69224302608A68C262C8
:100DA0000A688262984201D10969016301214161A7
:100DB000F0BD0000002C014000040040000800408D
:100DC00010B50123046A8B409C430462036A8A4085
:100DD0001343036210BD000030B5026A22F0010225
:100DE0000262026A4368846924F073050C682C432C
:100DF00022F002058A682A430A4DA8420BD122F04C
:100E00000805CA6823F440732A434D6922F004029E
:100E10001D438B692B4343608461496841630262CF
:100E200030BD0000002C014030B5026A22F01002F3
:100E30000262026A436884690D6824F4E64444EA65
:100E400005248D6822F0200242EA05120B4DA842CB
:100E50000ED1CD6822F0800242EA05124D6923F4DA
:100E6000406343EA85038D6922F0400243EA85032B
:100E70004360846149688163026230BD002C014097
:100E800030B5026A22F480720262036A4268C46961
:100E900023F4007324F073050C682C438D6843EA37
:100EA00005230C4DA8420ED1CD6823F4006343EA1C
:100EB00005234D6922F4405242EA05128D6923F45C
:100EC000806342EA05124260C4614968C1630362FB
:100ED00030BD0000002C014030B5026A22F480527F
:100EE0000262046A4268C3690D6823F4E64343EA78
:100EF00005238D6824F4005444EA0534064DA842C5
:100F000004D14D6922F4804242EA85124260C361F5
:100F100049680164046230BD002C0140FEE702E034
:100F200008C8121F08C1002AFAD170477047002074
:100F300001E001C1121F002AFBD1704708B5FFF77D
:100F400003FAFFF7B2FE1F48816941F02001816179
:100F5000816901F020010091816941F00401816102
:100F6000806900F004000090FFF742FE002116485F
:100F7000FFF724FE0026154C4FF4FA75C8274FF4EE
:100F8000C8784FF496794FF0640A2560C820FFF7BF
:100F9000DDF82560C820FFF7D9F8C4F80080C82024
:100FA000FFF7D4F8C4F80090C820FFF7CFF8276007
:100FB000C820FFF7CBF8C4F800A0C820FFF7C6F898
:100FC0002660E2E70010024010000020342C0140AF
:100FD00000000000000000000102030406070809E9
:100FE0000010000800000020100000001E0F000884
:100FF0001010000810000020400400002E0F000810
:1010000001000000100000000000000000A24A04DF
:04000005080000ED02
:00000001FF
